{
  "_format": "hh-sol-artifact-1",
  "contractName": "PropertyContract",
  "sourceName": "contracts/PropertyContract.sol",
  "abi": [
    {
      "inputs": [
        {
          "internalType": "address",
          "name": "gatewayTokenContract",
          "type": "address"
        },
        {
          "internalType": "uint256",
          "name": "gatekeeperNetwork",
          "type": "uint256"
        }
      ],
      "stateMutability": "nonpayable",
      "type": "constructor"
    },
    {
      "inputs": [
        {
          "internalType": "address",
          "name": "gatewayToken",
          "type": "address"
        }
      ],
      "name": "IsGated__InvalidGatewayToken",
      "type": "error"
    },
    {
      "anonymous": false,
      "inputs": [
        {
          "indexed": true,
          "internalType": "address",
          "name": "owner",
          "type": "address"
        },
        {
          "indexed": true,
          "internalType": "address",
          "name": "approved",
          "type": "address"
        },
        {
          "indexed": true,
          "internalType": "uint256",
          "name": "tokenId",
          "type": "uint256"
        }
      ],
      "name": "Approval",
      "type": "event"
    },
    {
      "anonymous": false,
      "inputs": [
        {
          "indexed": true,
          "internalType": "address",
          "name": "owner",
          "type": "address"
        },
        {
          "indexed": true,
          "internalType": "address",
          "name": "operator",
          "type": "address"
        },
        {
          "indexed": false,
          "internalType": "bool",
          "name": "approved",
          "type": "bool"
        }
      ],
      "name": "ApprovalForAll",
      "type": "event"
    },
    {
      "anonymous": false,
      "inputs": [
        {
          "indexed": true,
          "internalType": "address",
          "name": "previousOwner",
          "type": "address"
        },
        {
          "indexed": true,
          "internalType": "address",
          "name": "newOwner",
          "type": "address"
        }
      ],
      "name": "OwnershipTransferred",
      "type": "event"
    },
    {
      "anonymous": false,
      "inputs": [
        {
          "indexed": true,
          "internalType": "address",
          "name": "from",
          "type": "address"
        },
        {
          "indexed": true,
          "internalType": "address",
          "name": "to",
          "type": "address"
        },
        {
          "indexed": true,
          "internalType": "uint256",
          "name": "tokenId",
          "type": "uint256"
        }
      ],
      "name": "Transfer",
      "type": "event"
    },
    {
      "anonymous": false,
      "inputs": [
        {
          "indexed": true,
          "internalType": "uint256",
          "name": "tokenId",
          "type": "uint256"
        },
        {
          "indexed": true,
          "internalType": "address",
          "name": "buyer",
          "type": "address"
        },
        {
          "indexed": false,
          "internalType": "uint256",
          "name": "amount",
          "type": "uint256"
        }
      ],
      "name": "buyshare",
      "type": "event"
    },
    {
      "inputs": [
        {
          "internalType": "address",
          "name": "to",
          "type": "address"
        },
        {
          "internalType": "uint256",
          "name": "tokenId",
          "type": "uint256"
        }
      ],
      "name": "approve",
      "outputs": [],
      "stateMutability": "nonpayable",
      "type": "function"
    },
    {
      "inputs": [
        {
          "internalType": "address",
          "name": "owner",
          "type": "address"
        }
      ],
      "name": "balanceOf",
      "outputs": [
        {
          "internalType": "uint256",
          "name": "",
          "type": "uint256"
        }
      ],
      "stateMutability": "view",
      "type": "function"
    },
    {
      "inputs": [
        {
          "internalType": "uint256",
          "name": "id",
          "type": "uint256"
        }
      ],
      "name": "buyProperty",
      "outputs": [],
      "stateMutability": "payable",
      "type": "function"
    },
    {
      "inputs": [
        {
          "internalType": "uint256",
          "name": "index",
          "type": "uint256"
        }
      ],
      "name": "buyShare",
      "outputs": [],
      "stateMutability": "payable",
      "type": "function"
    },
    {
      "inputs": [
        {
          "internalType": "uint256",
          "name": "_id",
          "type": "uint256"
        }
      ],
      "name": "checkShareOwner",
      "outputs": [
        {
          "internalType": "bool",
          "name": "",
          "type": "bool"
        },
        {
          "internalType": "uint256",
          "name": "",
          "type": "uint256"
        }
      ],
      "stateMutability": "view",
      "type": "function"
    },
    {
      "inputs": [
        {
          "internalType": "string",
          "name": "_name",
          "type": "string"
        },
        {
          "internalType": "string",
          "name": "_location",
          "type": "string"
        },
        {
          "internalType": "string[3]",
          "name": "_image",
          "type": "string[3]"
        },
        {
          "internalType": "uint256",
          "name": "_price",
          "type": "uint256"
        },
        {
          "internalType": "string",
          "name": "_description",
          "type": "string"
        },
        {
          "internalType": "uint256",
          "name": "_rate",
          "type": "uint256"
        },
        {
          "internalType": "uint256",
          "name": "_shares",
          "type": "uint256"
        }
      ],
      "name": "createProperty",
      "outputs": [],
      "stateMutability": "nonpayable",
      "type": "function"
    },
    {
      "inputs": [
        {
          "internalType": "uint256",
          "name": "_id",
          "type": "uint256"
        },
        {
          "internalType": "uint256",
          "name": "_share",
          "type": "uint256"
        }
      ],
      "name": "createShare",
      "outputs": [],
      "stateMutability": "nonpayable",
      "type": "function"
    },
    {
      "inputs": [
        {
          "internalType": "uint256",
          "name": "",
          "type": "uint256"
        },
        {
          "internalType": "uint256",
          "name": "",
          "type": "uint256"
        }
      ],
      "name": "decisions",
      "outputs": [
        {
          "internalType": "string",
          "name": "details",
          "type": "string"
        },
        {
          "internalType": "address",
          "name": "by",
          "type": "address"
        },
        {
          "internalType": "uint256",
          "name": "support",
          "type": "uint256"
        },
        {
          "internalType": "uint256",
          "name": "decline",
          "type": "uint256"
        }
      ],
      "stateMutability": "view",
      "type": "function"
    },
    {
      "inputs": [
        {
          "internalType": "uint256",
          "name": "",
          "type": "uint256"
        },
        {
          "internalType": "uint256",
          "name": "",
          "type": "uint256"
        },
        {
          "internalType": "address",
          "name": "",
          "type": "address"
        }
      ],
      "name": "decisionvote",
      "outputs": [
        {
          "internalType": "bool",
          "name": "",
          "type": "bool"
        }
      ],
      "stateMutability": "view",
      "type": "function"
    },
    {
      "inputs": [
        {
          "internalType": "uint256",
          "name": "id",
          "type": "uint256"
        },
        {
          "internalType": "uint256",
          "name": "amount",
          "type": "uint256"
        }
      ],
      "name": "depositFunds",
      "outputs": [],
      "stateMutability": "payable",
      "type": "function"
    },
    {
      "inputs": [
        {
          "internalType": "uint256",
          "name": "",
          "type": "uint256"
        }
      ],
      "name": "forsale",
      "outputs": [
        {
          "internalType": "address",
          "name": "owner",
          "type": "address"
        },
        {
          "internalType": "uint256",
          "name": "price",
          "type": "uint256"
        },
        {
          "internalType": "uint256",
          "name": "share",
          "type": "uint256"
        }
      ],
      "stateMutability": "view",
      "type": "function"
    },
    {
      "inputs": [
        {
          "internalType": "uint256",
          "name": "tokenId",
          "type": "uint256"
        }
      ],
      "name": "getApproved",
      "outputs": [
        {
          "internalType": "address",
          "name": "",
          "type": "address"
        }
      ],
      "stateMutability": "view",
      "type": "function"
    },
    {
      "inputs": [
        {
          "internalType": "uint256",
          "name": "id",
          "type": "uint256"
        }
      ],
      "name": "getBalance",
      "outputs": [
        {
          "internalType": "uint256",
          "name": "",
          "type": "uint256"
        }
      ],
      "stateMutability": "view",
      "type": "function"
    },
    {
      "inputs": [
        {
          "internalType": "uint256",
          "name": "_id",
          "type": "uint256"
        }
      ],
      "name": "getDecision",
      "outputs": [
        {
          "components": [
            {
              "internalType": "string",
              "name": "details",
              "type": "string"
            },
            {
              "internalType": "address",
              "name": "by",
              "type": "address"
            },
            {
              "internalType": "uint256",
              "name": "support",
              "type": "uint256"
            },
            {
              "internalType": "uint256",
              "name": "decline",
              "type": "uint256"
            }
          ],
          "internalType": "struct PropertyContract.Decision[]",
          "name": "",
          "type": "tuple[]"
        }
      ],
      "stateMutability": "view",
      "type": "function"
    },
    {
      "inputs": [
        {
          "internalType": "uint256",
          "name": "id",
          "type": "uint256"
        }
      ],
      "name": "getOnSaleProperty",
      "outputs": [
        {
          "components": [
            {
              "internalType": "address",
              "name": "owner",
              "type": "address"
            },
            {
              "internalType": "uint256",
              "name": "price",
              "type": "uint256"
            },
            {
              "internalType": "uint256",
              "name": "share",
              "type": "uint256"
            }
          ],
          "internalType": "struct PropertyContract.Forsale",
          "name": "",
          "type": "tuple"
        }
      ],
      "stateMutability": "view",
      "type": "function"
    },
    {
      "inputs": [],
      "name": "getOpenShareCount",
      "outputs": [
        {
          "internalType": "uint256",
          "name": "",
          "type": "uint256"
        }
      ],
      "stateMutability": "view",
      "type": "function"
    },
    {
      "inputs": [
        {
          "internalType": "uint256",
          "name": "_id",
          "type": "uint256"
        }
      ],
      "name": "getOpenShares",
      "outputs": [
        {
          "internalType": "uint256",
          "name": "",
          "type": "uint256"
        },
        {
          "internalType": "uint256",
          "name": "",
          "type": "uint256"
        },
        {
          "internalType": "address",
          "name": "",
          "type": "address"
        },
        {
          "internalType": "uint256",
          "name": "",
          "type": "uint256"
        }
      ],
      "stateMutability": "view",
      "type": "function"
    },
    {
      "inputs": [
        {
          "internalType": "uint256",
          "name": "id",
          "type": "uint256"
        }
      ],
      "name": "getParticipants",
      "outputs": [
        {
          "components": [
            {
              "internalType": "address",
              "name": "owner",
              "type": "address"
            },
            {
              "internalType": "uint256",
              "name": "share",
              "type": "uint256"
            },
            {
              "internalType": "uint256",
              "name": "balance",
              "type": "uint256"
            }
          ],
          "internalType": "struct PropertyContract.Shares[]",
          "name": "",
          "type": "tuple[]"
        }
      ],
      "stateMutability": "view",
      "type": "function"
    },
    {
      "inputs": [
        {
          "internalType": "uint256",
          "name": "_id",
          "type": "uint256"
        }
      ],
      "name": "getProperty",
      "outputs": [
        {
          "internalType": "string",
          "name": "",
          "type": "string"
        },
        {
          "internalType": "string",
          "name": "",
          "type": "string"
        },
        {
          "internalType": "address",
          "name": "",
          "type": "address"
        },
        {
          "internalType": "string[3]",
          "name": "",
          "type": "string[3]"
        },
        {
          "internalType": "uint256",
          "name": "",
          "type": "uint256"
        },
        {
          "internalType": "string",
          "name": "",
          "type": "string"
        },
        {
          "internalType": "uint256",
          "name": "",
          "type": "uint256"
        },
        {
          "internalType": "uint256",
          "name": "",
          "type": "uint256"
        },
        {
          "internalType": "uint256",
          "name": "",
          "type": "uint256"
        }
      ],
      "stateMutability": "view",
      "type": "function"
    },
    {
      "inputs": [],
      "name": "getPropertyCount",
      "outputs": [
        {
          "internalType": "uint256",
          "name": "",
          "type": "uint256"
        }
      ],
      "stateMutability": "view",
      "type": "function"
    },
    {
      "inputs": [
        {
          "internalType": "uint256",
          "name": "_id",
          "type": "uint256"
        }
      ],
      "name": "getPunishment",
      "outputs": [
        {
          "components": [
            {
              "internalType": "address",
              "name": "who",
              "type": "address"
            },
            {
              "internalType": "string",
              "name": "reason",
              "type": "string"
            },
            {
              "internalType": "string",
              "name": "details",
              "type": "string"
            },
            {
              "internalType": "uint256",
              "name": "support",
              "type": "uint256"
            },
            {
              "internalType": "address",
              "name": "by",
              "type": "address"
            }
          ],
          "internalType": "struct PropertyContract.Punish[]",
          "name": "",
          "type": "tuple[]"
        }
      ],
      "stateMutability": "view",
      "type": "function"
    },
    {
      "inputs": [
        {
          "internalType": "uint256",
          "name": "_id",
          "type": "uint256"
        }
      ],
      "name": "getRequestFunds",
      "outputs": [
        {
          "components": [
            {
              "internalType": "string",
              "name": "reason",
              "type": "string"
            },
            {
              "internalType": "address",
              "name": "to",
              "type": "address"
            },
            {
              "internalType": "uint256",
              "name": "amount",
              "type": "uint256"
            },
            {
              "internalType": "uint256",
              "name": "support",
              "type": "uint256"
            },
            {
              "internalType": "uint256",
              "name": "decline",
              "type": "uint256"
            }
          ],
          "internalType": "struct PropertyContract.Requestfunds[]",
          "name": "",
          "type": "tuple[]"
        }
      ],
      "stateMutability": "view",
      "type": "function"
    },
    {
      "inputs": [
        {
          "internalType": "uint256",
          "name": "_id",
          "type": "uint256"
        }
      ],
      "name": "getShares",
      "outputs": [
        {
          "components": [
            {
              "internalType": "address",
              "name": "owner",
              "type": "address"
            },
            {
              "internalType": "uint256",
              "name": "share",
              "type": "uint256"
            },
            {
              "internalType": "uint256",
              "name": "balance",
              "type": "uint256"
            }
          ],
          "internalType": "struct PropertyContract.Shares[]",
          "name": "",
          "type": "tuple[]"
        }
      ],
      "stateMutability": "view",
      "type": "function"
    },
    {
      "inputs": [
        {
          "internalType": "uint256",
          "name": "id",
          "type": "uint256"
        }
      ],
      "name": "hasShare",
      "outputs": [
        {
          "internalType": "bool",
          "name": "",
          "type": "bool"
        },
        {
          "internalType": "uint256",
          "name": "",
          "type": "uint256"
        }
      ],
      "stateMutability": "view",
      "type": "function"
    },
    {
      "inputs": [
        {
          "internalType": "uint256",
          "name": "id",
          "type": "uint256"
        },
        {
          "internalType": "uint256",
          "name": "share",
          "type": "uint256"
        }
      ],
      "name": "invest",
      "outputs": [],
      "stateMutability": "payable",
      "type": "function"
    },
    {
      "inputs": [
        {
          "internalType": "address",
          "name": "owner",
          "type": "address"
        },
        {
          "internalType": "address",
          "name": "operator",
          "type": "address"
        }
      ],
      "name": "isApprovedForAll",
      "outputs": [
        {
          "internalType": "bool",
          "name": "",
          "type": "bool"
        }
      ],
      "stateMutability": "view",
      "type": "function"
    },
    {
      "inputs": [
        {
          "internalType": "uint256",
          "name": "id",
          "type": "uint256"
        }
      ],
      "name": "isOwner",
      "outputs": [
        {
          "internalType": "bool",
          "name": "",
          "type": "bool"
        }
      ],
      "stateMutability": "view",
      "type": "function"
    },
    {
      "inputs": [
        {
          "internalType": "uint256",
          "name": "_id",
          "type": "uint256"
        },
        {
          "internalType": "string",
          "name": "_details",
          "type": "string"
        }
      ],
      "name": "makeDecision",
      "outputs": [],
      "stateMutability": "nonpayable",
      "type": "function"
    },
    {
      "inputs": [
        {
          "internalType": "uint256",
          "name": "_id",
          "type": "uint256"
        },
        {
          "internalType": "string",
          "name": "_reason",
          "type": "string"
        },
        {
          "internalType": "address",
          "name": "_to",
          "type": "address"
        },
        {
          "internalType": "uint256",
          "name": "_amount",
          "type": "uint256"
        }
      ],
      "name": "makeRequest",
      "outputs": [],
      "stateMutability": "nonpayable",
      "type": "function"
    },
    {
      "inputs": [],
      "name": "name",
      "outputs": [
        {
          "internalType": "string",
          "name": "",
          "type": "string"
        }
      ],
      "stateMutability": "view",
      "type": "function"
    },
    {
      "inputs": [],
      "name": "nextTokenId",
      "outputs": [
        {
          "internalType": "uint256",
          "name": "",
          "type": "uint256"
        }
      ],
      "stateMutability": "view",
      "type": "function"
    },
    {
      "inputs": [],
      "name": "owner",
      "outputs": [
        {
          "internalType": "address",
          "name": "",
          "type": "address"
        }
      ],
      "stateMutability": "view",
      "type": "function"
    },
    {
      "inputs": [
        {
          "internalType": "uint256",
          "name": "tokenId",
          "type": "uint256"
        }
      ],
      "name": "ownerOf",
      "outputs": [
        {
          "internalType": "address",
          "name": "",
          "type": "address"
        }
      ],
      "stateMutability": "view",
      "type": "function"
    },
    {
      "inputs": [
        {
          "internalType": "uint256",
          "name": "",
          "type": "uint256"
        }
      ],
      "name": "properties",
      "outputs": [
        {
          "internalType": "string",
          "name": "name",
          "type": "string"
        },
        {
          "internalType": "string",
          "name": "location",
          "type": "string"
        },
        {
          "internalType": "address",
          "name": "owner",
          "type": "address"
        },
        {
          "internalType": "uint256",
          "name": "price",
          "type": "uint256"
        },
        {
          "internalType": "string",
          "name": "description",
          "type": "string"
        },
        {
          "internalType": "uint256",
          "name": "timestamp",
          "type": "uint256"
        },
        {
          "internalType": "uint256",
          "name": "rate",
          "type": "uint256"
        },
        {
          "internalType": "uint256",
          "name": "shares",
          "type": "uint256"
        }
      ],
      "stateMutability": "view",
      "type": "function"
    },
    {
      "inputs": [
        {
          "internalType": "uint256",
          "name": "",
          "type": "uint256"
        }
      ],
      "name": "propertyBalance",
      "outputs": [
        {
          "internalType": "uint256",
          "name": "",
          "type": "uint256"
        }
      ],
      "stateMutability": "view",
      "type": "function"
    },
    {
      "inputs": [
        {
          "internalType": "uint256",
          "name": "",
          "type": "uint256"
        }
      ],
      "name": "property_id",
      "outputs": [
        {
          "internalType": "uint256",
          "name": "",
          "type": "uint256"
        }
      ],
      "stateMutability": "view",
      "type": "function"
    },
    {
      "inputs": [
        {
          "internalType": "uint256",
          "name": "",
          "type": "uint256"
        },
        {
          "internalType": "uint256",
          "name": "",
          "type": "uint256"
        }
      ],
      "name": "punish",
      "outputs": [
        {
          "internalType": "address",
          "name": "who",
          "type": "address"
        },
        {
          "internalType": "string",
          "name": "reason",
          "type": "string"
        },
        {
          "internalType": "string",
          "name": "details",
          "type": "string"
        },
        {
          "internalType": "uint256",
          "name": "support",
          "type": "uint256"
        },
        {
          "internalType": "address",
          "name": "by",
          "type": "address"
        }
      ],
      "stateMutability": "view",
      "type": "function"
    },
    {
      "inputs": [
        {
          "internalType": "uint256",
          "name": "",
          "type": "uint256"
        },
        {
          "internalType": "uint256",
          "name": "",
          "type": "uint256"
        },
        {
          "internalType": "address",
          "name": "",
          "type": "address"
        }
      ],
      "name": "punishvote",
      "outputs": [
        {
          "internalType": "bool",
          "name": "",
          "type": "bool"
        }
      ],
      "stateMutability": "view",
      "type": "function"
    },
    {
      "inputs": [
        {
          "internalType": "uint256",
          "name": "id",
          "type": "uint256"
        },
        {
          "internalType": "uint256",
          "name": "_amount",
          "type": "uint256"
        }
      ],
      "name": "redrawProfit",
      "outputs": [],
      "stateMutability": "payable",
      "type": "function"
    },
    {
      "inputs": [],
      "name": "renounceOwnership",
      "outputs": [],
      "stateMutability": "nonpayable",
      "type": "function"
    },
    {
      "inputs": [
        {
          "internalType": "uint256",
          "name": "_id",
          "type": "uint256"
        },
        {
          "internalType": "address",
          "name": "who",
          "type": "address"
        },
        {
          "internalType": "string",
          "name": "reason",
          "type": "string"
        },
        {
          "internalType": "string",
          "name": "details",
          "type": "string"
        }
      ],
      "name": "requestPunishment",
      "outputs": [],
      "stateMutability": "nonpayable",
      "type": "function"
    },
    {
      "inputs": [
        {
          "internalType": "uint256",
          "name": "",
          "type": "uint256"
        },
        {
          "internalType": "uint256",
          "name": "",
          "type": "uint256"
        }
      ],
      "name": "requestfunds",
      "outputs": [
        {
          "internalType": "string",
          "name": "reason",
          "type": "string"
        },
        {
          "internalType": "address",
          "name": "to",
          "type": "address"
        },
        {
          "internalType": "uint256",
          "name": "amount",
          "type": "uint256"
        },
        {
          "internalType": "uint256",
          "name": "support",
          "type": "uint256"
        },
        {
          "internalType": "uint256",
          "name": "decline",
          "type": "uint256"
        }
      ],
      "stateMutability": "view",
      "type": "function"
    },
    {
      "inputs": [
        {
          "internalType": "uint256",
          "name": "",
          "type": "uint256"
        },
        {
          "internalType": "uint256",
          "name": "",
          "type": "uint256"
        },
        {
          "internalType": "address",
          "name": "",
          "type": "address"
        }
      ],
      "name": "requestvote",
      "outputs": [
        {
          "internalType": "bool",
          "name": "",
          "type": "bool"
        }
      ],
      "stateMutability": "view",
      "type": "function"
    },
    {
      "inputs": [
        {
          "internalType": "address",
          "name": "from",
          "type": "address"
        },
        {
          "internalType": "address",
          "name": "to",
          "type": "address"
        },
        {
          "internalType": "uint256",
          "name": "tokenId",
          "type": "uint256"
        }
      ],
      "name": "safeTransferFrom",
      "outputs": [],
      "stateMutability": "nonpayable",
      "type": "function"
    },
    {
      "inputs": [
        {
          "internalType": "address",
          "name": "from",
          "type": "address"
        },
        {
          "internalType": "address",
          "name": "to",
          "type": "address"
        },
        {
          "internalType": "uint256",
          "name": "tokenId",
          "type": "uint256"
        },
        {
          "internalType": "bytes",
          "name": "data",
          "type": "bytes"
        }
      ],
      "name": "safeTransferFrom",
      "outputs": [],
      "stateMutability": "nonpayable",
      "type": "function"
    },
    {
      "inputs": [
        {
          "internalType": "uint256",
          "name": "id",
          "type": "uint256"
        },
        {
          "internalType": "uint256",
          "name": "price",
          "type": "uint256"
        },
        {
          "internalType": "uint256",
          "name": "share",
          "type": "uint256"
        }
      ],
      "name": "sellProperty",
      "outputs": [],
      "stateMutability": "nonpayable",
      "type": "function"
    },
    {
      "inputs": [
        {
          "internalType": "uint256",
          "name": "_id",
          "type": "uint256"
        },
        {
          "internalType": "uint256",
          "name": "_share",
          "type": "uint256"
        }
      ],
      "name": "sellShare",
      "outputs": [],
      "stateMutability": "nonpayable",
      "type": "function"
    },
    {
      "inputs": [
        {
          "internalType": "address",
          "name": "operator",
          "type": "address"
        },
        {
          "internalType": "bool",
          "name": "approved",
          "type": "bool"
        }
      ],
      "name": "setApprovalForAll",
      "outputs": [],
      "stateMutability": "nonpayable",
      "type": "function"
    },
    {
      "inputs": [
        {
          "internalType": "uint256",
          "name": "",
          "type": "uint256"
        },
        {
          "internalType": "uint256",
          "name": "",
          "type": "uint256"
        }
      ],
      "name": "shares",
      "outputs": [
        {
          "internalType": "address",
          "name": "owner",
          "type": "address"
        },
        {
          "internalType": "uint256",
          "name": "share",
          "type": "uint256"
        },
        {
          "internalType": "uint256",
          "name": "balance",
          "type": "uint256"
        }
      ],
      "stateMutability": "view",
      "type": "function"
    },
    {
      "inputs": [
        {
          "internalType": "bytes4",
          "name": "interfaceId",
          "type": "bytes4"
        }
      ],
      "name": "supportsInterface",
      "outputs": [
        {
          "internalType": "bool",
          "name": "",
          "type": "bool"
        }
      ],
      "stateMutability": "view",
      "type": "function"
    },
    {
      "inputs": [],
      "name": "symbol",
      "outputs": [
        {
          "internalType": "string",
          "name": "",
          "type": "string"
        }
      ],
      "stateMutability": "view",
      "type": "function"
    },
    {
      "inputs": [
        {
          "internalType": "uint256",
          "name": "id",
          "type": "uint256"
        },
        {
          "internalType": "uint256",
          "name": "i",
          "type": "uint256"
        }
      ],
      "name": "terminate",
      "outputs": [],
      "stateMutability": "payable",
      "type": "function"
    },
    {
      "inputs": [
        {
          "internalType": "uint256",
          "name": "tokenId",
          "type": "uint256"
        }
      ],
      "name": "tokenURI",
      "outputs": [
        {
          "internalType": "string",
          "name": "",
          "type": "string"
        }
      ],
      "stateMutability": "view",
      "type": "function"
    },
    {
      "inputs": [
        {
          "internalType": "address",
          "name": "from",
          "type": "address"
        },
        {
          "internalType": "address",
          "name": "to",
          "type": "address"
        },
        {
          "internalType": "uint256",
          "name": "tokenId",
          "type": "uint256"
        }
      ],
      "name": "transferFrom",
      "outputs": [],
      "stateMutability": "nonpayable",
      "type": "function"
    },
    {
      "inputs": [
        {
          "internalType": "address",
          "name": "newOwner",
          "type": "address"
        }
      ],
      "name": "transferOwnership",
      "outputs": [],
      "stateMutability": "nonpayable",
      "type": "function"
    },
    {
      "inputs": [
        {
          "internalType": "uint256",
          "name": "_id",
          "type": "uint256"
        },
        {
          "internalType": "uint256",
          "name": "index",
          "type": "uint256"
        },
        {
          "internalType": "bool",
          "name": "istrue",
          "type": "bool"
        }
      ],
      "name": "vote",
      "outputs": [],
      "stateMutability": "nonpayable",
      "type": "function"
    },
    {
      "inputs": [
        {
          "internalType": "uint256",
          "name": "id",
          "type": "uint256"
        },
        {
          "internalType": "uint256",
          "name": "index",
          "type": "uint256"
        }
      ],
      "name": "votePunishment",
      "outputs": [],
      "stateMutability": "nonpayable",
      "type": "function"
    },
    {
      "inputs": [
        {
          "internalType": "uint256",
          "name": "_id",
          "type": "uint256"
        },
        {
          "internalType": "uint256",
          "name": "index",
          "type": "uint256"
        },
        {
          "internalType": "bool",
          "name": "_i",
          "type": "bool"
        }
      ],
      "name": "voteRequest",
      "outputs": [],
      "stateMutability": "nonpayable",
      "type": "function"
    }
  ],
  "bytecode": "0x60806040523480156200001157600080fd5b5060405162005f8738038062005f878339810160408190526200003491620001fa565b604080518082018252601381527f50726f7065727479436f6e747261637430783100000000000000000000000000602080830191825283518085019094526005845264524530783160d81b908401528151859385939290916200009a9160009162000154565b508051620000b090600190602084019062000154565b505050620000cd620000c7620000fe60201b60201c565b62000102565b600780546001600160a01b0319166001600160a01b0393909316929092179091556008555050600160095562000273565b3390565b600680546001600160a01b038381166001600160a01b0319831681179093556040519116919082907f8be0079c531659141344cd1fd0a4f28419497f9722a3daafe3b4186f6b6457e090600090a35050565b828054620001629062000236565b90600052602060002090601f016020900481019282620001865760008555620001d1565b82601f10620001a157805160ff1916838001178555620001d1565b82800160010185558215620001d1579182015b82811115620001d1578251825591602001919060010190620001b4565b50620001df929150620001e3565b5090565b5b80821115620001df5760008155600101620001e4565b600080604083850312156200020e57600080fd5b82516001600160a01b03811681146200022657600080fd5b6020939093015192949293505050565b600181811c908216806200024b57607f821691505b602082108114156200026d57634e487b7160e01b600052602260045260246000fd5b50919050565b615d0480620002836000396000f3fe6080604052600436106103815760003560e01c806370a08231116101d1578063b2df9ef111610102578063d70080cc116100a0578063f7b108081161006f578063f7b1080814610b9f578063f8d3563014610bd3578063f9689d5814610bf3578063fd040ac714610c4257600080fd5b8063d70080cc14610b1b578063d87aa64314610b4c578063e985e9c514610b5f578063f2fde38b14610b7f57600080fd5b8063bc93e759116100dc578063bc93e75914610ac8578063c1e3bd3e1461082d578063c5b3a64d14610ae8578063c87b56dd14610afb57600080fd5b8063b2df9ef114610a47578063b88d4fde14610a67578063ba5c17be14610a8757600080fd5b806391dcac521161016f578063a22cb46511610149578063a22cb465146109a1578063a4903c75146109c1578063a9ed6e9a14610a07578063af75484814610a1a57600080fd5b806391dcac521461094c57806395d89b41146109795780639cefeafb1461098e57600080fd5b806373368dd2116101ab57806373368dd2146108b757806374857e74146108d757806375794a3c146109185780638da5cb5b1461092e57600080fd5b806370a082311461086d578063715018a61461088d5780637326b901146108a257600080fd5b806330f703a3116102b65780635be821d7116102545780636a18ff7a116102235780636a18ff7a146107dc5780636e9d0118146107fc5780636f7267b71461082d5780636fa830a61461085a57600080fd5b80635be821d71461075c57806361638ed514610789578063625e4e831461079c5780636352211e146107bc57600080fd5b80633bbc7b0b116102905780633bbc7b0b1461065c578063418a6636146106e557806342842e0e1461071c57806358335ef31461073c57600080fd5b806330f703a3146105da57806332665ffb1461060757806339c7639c1461063c57600080fd5b80631c6431ca1161032357806324d5f03f116102fd57806324d5f03f1461055857806325694c6a146105785780632a8092cb146105a55780632babeb40146105ba57600080fd5b80631c6431ca146104ca5780631e0104391461050b57806323b872dd1461053857600080fd5b80630519e9751161035f5780630519e9751461042e57806306fdde0314610450578063081812fc14610472578063095ea7b3146104aa57600080fd5b806301bee1d61461038657806301ffc9a7146103d057806303747b8014610400575b600080fd5b34801561039257600080fd5b506103a66103a1366004614f55565b610c72565b604080516001600160a01b0390941684526020840192909252908201526060015b60405180910390f35b3480156103dc57600080fd5b506103f06103eb366004614f8d565b610cbe565b60405190151581526020016103c7565b34801561040c57600080fd5b5061042061041b366004614faa565b610d10565b6040519081526020016103c7565b34801561043a57600080fd5b5061044e610449366004614f55565b610d31565b005b34801561045c57600080fd5b50610465610eff565b6040516103c7919061501b565b34801561047e57600080fd5b5061049261048d366004614faa565b610f91565b6040516001600160a01b0390911681526020016103c7565b3480156104b657600080fd5b5061044e6104c536600461504a565b610fb8565b3480156104d657600080fd5b506103f06104e5366004615074565b601160209081526000938452604080852082529284528284209052825290205460ff1681565b34801561051757600080fd5b50610420610526366004614faa565b6000908152600c602052604090205490565b34801561054457600080fd5b5061044e6105533660046150a9565b6110ce565b34801561056457600080fd5b5061044e6105733660046150e5565b6110ff565b34801561058457600080fd5b50610598610593366004614faa565b6112d0565b6040516103c79190615111565b3480156105b157600080fd5b50600e54610420565b3480156105c657600080fd5b5061044e6105d53660046151e7565b61133f565b3480156105e657600080fd5b506105fa6105f5366004614faa565b61143d565b6040516103c79190615265565b34801561061357600080fd5b50610627610622366004614faa565b611603565b6040516103c79998979695949392919061531c565b34801561064857600080fd5b506103f0610657366004614faa565b61193b565b34801561066857600080fd5b5061044e610677366004614f55565b6040805160608101825233815260208082019384526000828401818152958152600d8252928320805460018082018355918552919093209151600390910290910180546001600160a01b0319166001600160a01b039092169190911781559151908201559051600290910155565b3480156106f157600080fd5b50610705610700366004614faa565b611968565b6040805192151583526020830191909152016103c7565b34801561072857600080fd5b5061044e6107373660046150a9565b6119ef565b34801561074857600080fd5b50610705610757366004614faa565b611a0a565b34801561076857600080fd5b50610420610777366004614faa565b600c6020526000908152604090205481565b61044e610797366004614f55565b611a86565b3480156107a857600080fd5b5061044e6107b7366004615456565b611b90565b3480156107c857600080fd5b506104926107d7366004614faa565b611e0d565b3480156107e857600080fd5b5061044e6107f736600461552e565b611e6d565b34801561080857600080fd5b5061081c610817366004614f55565b6120b7565b6040516103c7959493929190615567565b34801561083957600080fd5b5061084d610848366004614faa565b61219d565b6040516103c791906155a7565b61044e610868366004614faa565b612232565b34801561087957600080fd5b50610420610888366004615612565b61259f565b34801561089957600080fd5b5061044e612625565b3480156108ae57600080fd5b50600954610420565b3480156108c357600080fd5b5061044e6108d2366004614f55565b612639565b3480156108e357600080fd5b506103f06108f2366004615074565b601360209081526000938452604080852082529284528284209052825290205460ff1681565b34801561092457600080fd5b5061042060095481565b34801561093a57600080fd5b506006546001600160a01b0316610492565b34801561095857600080fd5b5061096c610967366004614faa565b612922565b6040516103c7919061562d565b34801561098557600080fd5b50610465612a48565b61044e61099c366004614f55565b612a57565b3480156109ad57600080fd5b5061044e6109bc3660046156bd565b612c0c565b3480156109cd57600080fd5b506103a66109dc366004614faa565b6015602052600090815260409020805460018201546002909201546001600160a01b03909116919083565b61044e610a15366004614faa565b612c17565b348015610a2657600080fd5b50610a3a610a35366004614faa565b6132f1565b6040516103c791906156f4565b348015610a5357600080fd5b5061044e610a6236600461552e565b61340d565b348015610a7357600080fd5b5061044e610a8236600461577a565b61385d565b348015610a9357600080fd5b506103f0610aa2366004615074565b600f60209081526000938452604080852082529284528284209052825290205460ff1681565b348015610ad457600080fd5b5061044e610ae33660046157ea565b61388f565b61044e610af6366004614f55565b61394c565b348015610b0757600080fd5b50610465610b16366004614faa565b613bb8565b348015610b2757600080fd5b50610b3b610b36366004614f55565b613c2c565b6040516103c7959493929190615849565b61044e610b5a366004614f55565b613da0565b348015610b6b57600080fd5b506103f0610b7a366004615898565b6140d2565b348015610b8b57600080fd5b5061044e610b9a366004615612565b614100565b348015610bab57600080fd5b50610bbf610bba366004614faa565b614179565b6040516103c79897969594939291906158cb565b348015610bdf57600080fd5b5061044e610bee36600461593e565b61435f565b348015610bff57600080fd5b50610c13610c0e366004614faa565b614400565b6040516103c7949392919093845260208401929092526001600160a01b03166040830152606082015260800190565b348015610c4e57600080fd5b50610c62610c5d366004614f55565b614479565b6040516103c79493929190615985565b600d6020528160005260406000208181548110610c8e57600080fd5b60009182526020909120600390910201805460018201546002909201546001600160a01b03909116935090915083565b60006001600160e01b031982166380ac58cd60e01b1480610cef57506001600160e01b03198216635b5e139f60e01b145b80610d0a57506301ffc9a760e01b6001600160e01b03198316145b92915050565b600b8181548110610d2057600080fd5b600091825260209091200154905081565b600080610d3d84611968565b915091508115610ef9576000848152600d60205260408120805483908110610d6757610d676159bd565b90600052602060002090600302016001015490506000600d60008781526020019081526020016000208381548110610da157610da16159bd565b60009182526020909120600390910201546001600160a01b0316905081851115610e0a5760405162461bcd60e51b8152602060048201526015602482015274125b9d985b1a59081cda185c99481d1bc81cd95b1b605a1b60448201526064015b60405180910390fd5b60408051608081018252878152602081018581526001600160a01b0393841692820192835260608201888152600e805460018101825560009190915292517fbb7b4a454dc3493923482f07822329ed19e8244eff582cc204f8554c3620c3fd60049094029384015590517fbb7b4a454dc3493923482f07822329ed19e8244eff582cc204f8554c3620c3fe83015591517fbb7b4a454dc3493923482f07822329ed19e8244eff582cc204f8554c3620c3ff820180546001600160a01b0319169190941617909255517fbb7b4a454dc3493923482f07822329ed19e8244eff582cc204f8554c3620c40090910155505b50505050565b606060008054610f0e906159d3565b80601f0160208091040260200160405190810160405280929190818152602001828054610f3a906159d3565b8015610f875780601f10610f5c57610100808354040283529160200191610f87565b820191906000526020600020905b815481529060010190602001808311610f6a57829003601f168201915b5050505050905090565b6000610f9c8261455a565b506000908152600460205260409020546001600160a01b031690565b6000610fc382611e0d565b9050806001600160a01b0316836001600160a01b031614156110315760405162461bcd60e51b815260206004820152602160248201527f4552433732313a20617070726f76616c20746f2063757272656e74206f776e656044820152603960f91b6064820152608401610e01565b336001600160a01b038216148061104d575061104d81336140d2565b6110bf5760405162461bcd60e51b815260206004820152603d60248201527f4552433732313a20617070726f76652063616c6c6572206973206e6f7420746f60448201527f6b656e206f776e6572206f7220617070726f76656420666f7220616c6c0000006064820152608401610e01565b6110c983836145b9565b505050565b6110d83382614627565b6110f45760405162461bcd60e51b8152600401610e0190615a0e565b6110c9838383614686565b6000838152600a60205260409020600201546001600160a01b0316331461112557600080fd5b6000838152600a602052604081206006015483116111905760405162461bcd60e51b815260206004820152602260248201527f5072696365206d7573742062652067726561746572207468616e2062616c616e604482015261636560f01b6064820152608401610e01565b60005b6000858152600d6020526040902054811015611276576000858152600d602052604081208054839081106111c9576111c96159bd565b9060005260206000209060030201600201549050600a6000878152602001908152602001600020600601546064600d6000898152602001908152602001600020848154811061121a5761121a6159bd565b9060005260206000209060030201600101546112369190615a71565b6112409190615a93565b81101561125f5760405162461bcd60e51b8152600401610e0190615ab2565b50600191508061126e81615af9565b915050611193565b508015610ef957506040805160608101825233815260208082019485528183019384526000958652601590529320925183546001600160a01b0319166001600160a01b039091161783559051600183015551600290910155565b6112fd604051806060016040528060006001600160a01b0316815260200160008152602001600081525090565b50600090815260156020908152604091829020825160608101845281546001600160a01b03168152600182015492810192909252600201549181019190915290565b6000848152600a60205260409020600201546001600160a01b03848116911614610ef9576040805160a0810182526001600160a01b03858116825260208083018681528385018690526000606085018190523360808601528981526014835294852080546001808201835591875295839020855160059097020180546001600160a01b03191696909416959095178355518051939485946113e7939185019290910190614df2565b5060408201518051611403916002840191602090910190614df2565b5060608201516003820155608090910151600490910180546001600160a01b0319166001600160a01b039092169190911790555050505050565b6000818152601460209081526040808320805482518185028101850190935280835260609493849084015b828210156115f75760008481526020908190206040805160a081019091526005850290910180546001600160a01b0316825260018101805492939192918401916114b1906159d3565b80601f01602080910402602001604051908101604052809291908181526020018280546114dd906159d3565b801561152a5780601f106114ff5761010080835404028352916020019161152a565b820191906000526020600020905b81548152906001019060200180831161150d57829003601f168201915b50505050508152602001600282018054611543906159d3565b80601f016020809104026020016040519081016040528092919081815260200182805461156f906159d3565b80156115bc5780601f10611591576101008083540402835291602001916115bc565b820191906000526020600020905b81548152906001019060200180831161159f57829003601f168201915b505050918352505060038201546020808301919091526004909201546001600160a01b03166040909101529082526001929092019101611468565b50929695505050505050565b6060806000611610614e76565b60006060600080600080600a60008c815260200190815260200160002060405180610120016040529081600082018054611649906159d3565b80601f0160208091040260200160405190810160405280929190818152602001828054611675906159d3565b80156116c25780601f10611697576101008083540402835291602001916116c2565b820191906000526020600020905b8154815290600101906020018083116116a557829003601f168201915b505050505081526020016001820180546116db906159d3565b80601f0160208091040260200160405190810160405280929190818152602001828054611707906159d3565b80156117545780601f1061172957610100808354040283529160200191611754565b820191906000526020600020905b81548152906001019060200180831161173757829003601f168201915b505050918352505060028201546001600160a01b03166020820152604080516060810182529101906003808401906000835b8282101561182957838201805461179c906159d3565b80601f01602080910402602001604051908101604052809291908181526020018280546117c8906159d3565b80156118155780601f106117ea57610100808354040283529160200191611815565b820191906000526020600020905b8154815290600101906020018083116117f857829003601f168201915b505050505081526020019060010190611786565b5050505081526020016006820154815260200160078201805461184b906159d3565b80601f0160208091040260200160405190810160405280929190818152602001828054611877906159d3565b80156118c45780601f10611899576101008083540402835291602001916118c4565b820191906000526020600020905b8154815290600101906020018083116118a757829003601f168201915b505050505081526020016008820154815260200160098201548152602001600a820154815250509050806000015181602001518260400151836060015184608001518560a001518660c001518760e00151886101000151995099509950995099509950995099509950509193959799909294969850565b6000818152600a602052604081206002015481906001600160a01b0316331415610d0a5750600192915050565b60008060008060005b6000868152600d60205260409020548110156119e4576000868152600d602052604090208054339190839081106119aa576119aa6159bd565b60009182526020909120600390910201546001600160a01b031614156119d257600192508091505b806119dc81615af9565b915050611971565b509094909350915050565b6110c98383836040518060200160405280600081525061385d565b60008060008060005b6000868152600d60205260409020548110156119e4576000868152600d60205260409020805433919083908110611a4c57611a4c6159bd565b60009182526020909120600390910201546001600160a01b03161415611a7457600192508091505b80611a7e81615af9565b915050611a13565b60005b6000838152600d6020526040902054811015611b56576000838152600d60205260408120805483908110611abf57611abf6159bd565b9060005260206000209060030201600101549050606481611ae09190615a71565b611aea9084615a93565b611afc90670de0b6b3a7640000615a93565b6000858152600d60205260409020805484908110611b1c57611b1c6159bd565b90600052602060002090600302016002016000828254611b3c9190615b14565b90915550829150611b4e905081615af9565b915050611a89565b50611b6981670de0b6b3a7640000615a93565b6000838152600c602052604081208054909190611b87908490615b14565b90915550505050565b600754600854604051600162740ee760e11b0319815233600482015260248101919091526001600160a01b0390911690819063ff17e2329060440160206040518083038186803b158015611be357600080fd5b505afa158015611bf7573d6000803e3d6000fd5b505050506040513d601f19601f82011682018060405250810190611c1b9190615b2c565b611c47576007546040516355ec9bfb60e11b81526001600160a01b039091166004820152602401610e01565b604080516101208101825289815260208082018a90523382840152606082018990526080820188905260a082018790524260c083015260e0820186905261010082018590526009546000908152600a8252929092208151805192938493611cb19284920190614df2565b506020828101518051611cca9260018501920190614df2565b5060408201516002820180546001600160a01b0319166001600160a01b039092169190911790556060820151611d069060038084019190614e9d565b506080820151600682015560a08201518051611d2c916007840191602090910190614df2565b5060c0820151816008015560e0820151816009015561010082015181600a0155905050611d5b336009546147ea565b604080516060810190915233815260009060208101611d7b866064615b49565b815260006020918201819052600980548252600d83526040808320805460018082018355918552858520875160039092020180546001600160a01b0319166001600160a01b0390921691909117815586860151918101919091558582015160029091015581548352600c9093529181208190558154929350611dfc83615af9565b919050555050505050505050505050565b6000818152600260205260408120546001600160a01b031680610d0a5760405162461bcd60e51b8152602060048201526018602482015277115490cdcc8c4e881a5b9d985b1a59081d1bdad95b88125160421b6044820152606401610e01565b6000838152600f60209081526040808320858452825280832033845290915290205460ff1615611ecf5760405162461bcd60e51b815260206004820152600d60248201526c566f74656420616c726561647960981b6044820152606401610e01565b600080611edb85611a0a565b9150915081611efc5760405162461bcd60e51b8152600401610e0190615b60565b6000858152601060205260408120805486908110611f1c57611f1c6159bd565b90600052602060002090600402016002015490506000601060008881526020019081526020016000208681548110611f5657611f566159bd565b906000526020600020906004020160030154905060648183611f789190615b14565b10156120ae578415612005576000878152600d60205260409020805484908110611fa457611fa46159bd565b906000526020600020906003020160010154601060008981526020019081526020016000208781548110611fda57611fda6159bd565b90600052602060002090600402016002016000828254611ffa9190615b14565b909155506120819050565b6000878152600d60205260409020805484908110612025576120256159bd565b90600052602060002090600302016001015460106000898152602001908152602001600020878154811061205b5761205b6159bd565b9060005260206000209060040201600301600082825461207b9190615b14565b90915550505b6000878152600f6020908152604080832089845282528083203384529091529020805460ff191660011790555b50505050505050565b601260205281600052604060002081815481106120d357600080fd5b9060005260206000209060050201600091509150508060000180546120f7906159d3565b80601f0160208091040260200160405190810160405280929190818152602001828054612123906159d3565b80156121705780601f1061214557610100808354040283529160200191612170565b820191906000526020600020905b81548152906001019060200180831161215357829003601f168201915b5050505060018301546002840154600385015460049095015493946001600160a01b039092169390925085565b6060600d6000838152602001908152602001600020805480602002602001604051908101604052809291908181526020016000905b82821015612227576000848152602090819020604080516060810182526003860290920180546001600160a01b03168352600180820154848601526002909101549183019190915290835290920191016121d2565b505050509050919050565b60008181526015602052604090206001015434146122925760405162461bcd60e51b815260206004820152601a60248201527f446f206e6f74206861766520656e6f7567682062616c616e63650000000000006044820152606401610e01565b6000805b6000838152600d6020526040902054811015612379576000838152600d602052604081208054839081106122cc576122cc6159bd565b9060005260206000209060030201600201549050600a6000858152602001908152602001600020600601546064600d6000878152602001908152602001600020848154811061231d5761231d6159bd565b9060005260206000209060030201600101546123399190615a71565b6123439190615a93565b8110156123625760405162461bcd60e51b8152600401610e0190615ab2565b50600191508061237181615af9565b915050612296565b50801561259b57600082815260156020526040808220600201549051309282156108fc02929190818181858888f193505050501580156123bd573d6000803e3d6000fd5b506000828152600a6020908152604080832060029081015460159093529220918201546001909201546001600160a01b03909116916108fc916124009190615b49565b6040518115909202916000818181858888f19350505050158015612428573d6000803e3d6000fd5b5060005b6000838152600d6020526040902054811015612565576000838152600d6020526040812080546064919084908110612466576124666159bd565b9060005260206000209060030201600101546124829190615a71565b60008581526015602052604090206002015461249e9190615a93565b6000858152600d60205260409020805491925090859081106124c2576124c26159bd565b600091825260208220600390910201546040516001600160a01b039091169183156108fc02918491818181858888f19350505050158015612507573d6000803e3d6000fd5b506000848152600d6020526040902080548291908490811061252b5761252b6159bd565b9060005260206000209060030201600201600082825461254b9190615b14565b9091555082915061255d905081615af9565b91505061242c565b5061257961257283611e0d565b33846110ce565b6000828152600a6020526040902060020180546001600160a01b031916331790555b5050565b60006001600160a01b0382166126095760405162461bcd60e51b815260206004820152602960248201527f4552433732313a2061646472657373207a65726f206973206e6f7420612076616044820152683634b21037bbb732b960b91b6064820152608401610e01565b506001600160a01b031660009081526003602052604090205490565b61262d614804565b612637600061485e565b565b6000828152601460205260408120805483908110612659576126596159bd565b90600052602060002090600502016003015490506000601460008581526020019081526020016000208381548110612693576126936159bd565b60009182526020909120600590910201546001600160a01b03169050338114156126ff5760405162461bcd60e51b815260206004820152601b60248201527f596f7520617265206e6f7420616c6c6f77656420746f20766f746500000000006044820152606401610e01565b6000848152601360209081526040808320868452825280832033845290915290205460ff16156127675760405162461bcd60e51b8152602060048201526013602482015272416c72656164792063617374656420766f746560681b6044820152606401610e01565b60008061277386611a0a565b91509150816127945760405162461bcd60e51b8152600401610e0190615b60565b60005b6000878152600d60205260409020548110156120ae576000878152600d602052604090208054829081106127cd576127cd6159bd565b60009182526020909120600390910201546001600160a01b0385811691161415612910576000878152600d60205260408120805483908110612811576128116159bd565b6000918252602082206001600390920201015491506128308288615b49565b9050600061283f836064615b49565b9050600a61284e826008615a93565b6128589190615a71565b821115612864576128e0565b60008a8152600d60205260409020805486908110612884576128846159bd565b906000526020600020906003020160010154601460008c81526020019081526020016000208a815481106128ba576128ba6159bd565b906000526020600020906005020160030160008282546128da9190615b14565b90915550505b505050600087815260136020908152604080832089845282528083203384529091529020805460ff191660011790555b8061291a81615af9565b915050612797565b6000818152601260209081526040808320805482518185028101850190935280835260609493849084015b828210156115f757838290600052602060002090600502016040518060a0016040529081600082018054612980906159d3565b80601f01602080910402602001604051908101604052809291908181526020018280546129ac906159d3565b80156129f95780601f106129ce576101008083540402835291602001916129f9565b820191906000526020600020905b8154815290600101906020018083116129dc57829003601f168201915b50505091835250506001828101546001600160a01b031660208084019190915260028401546040840152600384015460608401526004909301546080909201919091529183529201910161294d565b606060018054610f0e906159d3565b6000828152600d60205260408120805483908110612a7757612a776159bd565b90600052602060002090600302016002015490506000600d60008581526020019081526020016000208381548110612ab157612ab16159bd565b6000918252602080832060016003909302019190910154868352600a909152604090912060060154909150612ae7606483615a71565b612af19082615a93565b831015612b575760405162461bcd60e51b815260206004820152602e60248201527f43616e6e6f74207465726d696e61746520757365722064756520746f20696e7360448201526d7566666963656e742066756e647360901b6064820152608401610e01565b6000858152600d60205260409020805485908110612b7757612b776159bd565b600091825260208220600390910201546040516001600160a01b039091169185156108fc02918691818181858888f19350505050158015612bbc573d6000803e3d6000fd5b506000858152600d60205260409020805485908110612bdd57612bdd6159bd565b60009182526020822060039091020180546001600160a01b031916815560018101829055600201555050505050565b61259b3383836148b0565b6000600e8281548110612c2c57612c2c6159bd565b60009182526020918290206040805160808101825260049093029091018054835260018101549383019390935260028301546001600160a01b03169082015260039091015460608201819052909150612cb45760405162461bcd60e51b815260206004820152600a60248201526914da185c99481cdbdb1960b21b6044820152606401610e01565b6000600e8381548110612cc957612cc96159bd565b9060005260206000209060040201600001549050612cfe816000908152600260205260409020546001600160a01b0316151590565b612d415760405162461bcd60e51b8152602060048201526014602482015273151bdad95b88191bd95cc81b9bdd08195e1a5cdd60621b6044820152606401610e01565b6000600e8481548110612d5657612d566159bd565b90600052602060002090600402016001015490506000600e8581548110612d7f57612d7f6159bd565b9060005260206000209060040201600301549050600080612d9f85611a0a565b6000878152600d602052604090208054929450909250339186908110612dc757612dc76159bd565b600091825260208220600390910201546040516001600160a01b03909116913480156108fc02929091818181858888f19350505050158015612e0d573d6000803e3d6000fd5b506000868152600d60205260409020805485919087908110612e3157612e316159bd565b90600052602060002090600302016001016000828254612e519190615b49565b9091555050604051348152339087907fe7ecf9e57e42ab7fff69c37136c4066c98050210b2d4b7cc83ebecde635c297a9060200160405180910390a36000868152600d60205260409020805486908110612ead57612ead6159bd565b90600052602060002090600302016001015460001415612f1d576000868152600d60205260409020805433919087908110612eea57612eea6159bd565b6000918252602090912060039091020180546001600160a01b0319166001600160a01b03929092169190911790556132a5565b82156130f5576000868152600d60205260409020805485919084908110612f4657612f466159bd565b90600052602060002090600302016001016000828254612f669190615b14565b90915550506000868152600d60205260409020805486908110612f8b57612f8b6159bd565b906000526020600020906003020160020154600d60008881526020019081526020016000208681548110612fc157612fc16159bd565b90600052602060002090600302016001015485612fde9190615a71565b612fe89190615a93565b6000878152600d60205260409020805487908110613008576130086159bd565b906000526020600020906003020160020160008282546130289190615b49565b90915550506000868152600d6020526040902080548690811061304d5761304d6159bd565b906000526020600020906003020160020154600d60008881526020019081526020016000208681548110613083576130836159bd565b906000526020600020906003020160010154856130a09190615a71565b6130aa9190615a93565b6000878152600d602052604090208054849081106130ca576130ca6159bd565b906000526020600020906003020160020160008282546130ea9190615b14565b909155506132a59050565b6000868152600d60205260409020805486908110613115576131156159bd565b906000526020600020906003020160020154600d6000888152602001908152602001600020868154811061314b5761314b6159bd565b906000526020600020906003020160010154856131689190615a71565b6131729190615a93565b6000878152600d60205260409020805487908110613192576131926159bd565b906000526020600020906003020160020160008282546131b29190615b49565b90915550506000868152600d602052604081208054879081106131d7576131d76159bd565b906000526020600020906003020160020154600d6000898152602001908152602001600020878154811061320d5761320d6159bd565b9060005260206000209060030201600101548661322a9190615a71565b6132349190615a93565b604080516060810182526001600160a01b03858116825260208083018a815283850195865260008d8152600d8352948520805460018082018355918752929095209351600390920290930180546001600160a01b031916919092161781559051918101919091559051600290910155505b600e88815481106132b8576132b86159bd565b600091825260208220600490910201818155600181018290556002810180546001600160a01b0319169055600301555050505050505050565b6000818152601060209081526040808320805482518185028101850190935280835260609493849084015b828210156115f7578382906000526020600020906004020160405180608001604052908160008201805461334f906159d3565b80601f016020809104026020016040519081016040528092919081815260200182805461337b906159d3565b80156133c85780601f1061339d576101008083540402835291602001916133c8565b820191906000526020600020905b8154815290600101906020018083116133ab57829003601f168201915b50505091835250506001828101546001600160a01b0316602080840191909152600284015460408401526003909301546060909201919091529183529201910161331c565b60008061341985611a0a565b915091508161343a5760405162461bcd60e51b8152600401610e0190615b60565b6000858152601160209081526040808320878452825280832033845290915290205460ff16156134a25760405162461bcd60e51b8152602060048201526013602482015272416c72656164792063617374656420766f746560681b6044820152606401610e01565b6000858152600d602052604081208054839081106134c2576134c26159bd565b906000526020600020906003020160010154905060006012600088815260200190815260200160002086815481106134fc576134fc6159bd565b90600052602060002090600502016003015490506000601260008981526020019081526020016000208781548110613536576135366159bd565b90600052602060002090600502016004015490506000601260008a81526020019081526020016000208881548110613570576135706159bd565b60009182526020808320600160059093020191909101548b835260129091526040822080546001600160a01b039092169350908a9081106135b3576135b36159bd565b9060005260206000209060050201600201549050606483856135d59190615b14565b10156136a557871561362f5760008a815260126020526040902080548691908b908110613604576136046159bd565b906000526020600020906005020160030160008282546136249190615b14565b909155506136789050565b60008a815260126020526040902080548691908b908110613652576136526159bd565b906000526020600020906005020160040160008282546136729190615b14565b90915550505b60008a81526011602090815260408083208c845282528083203384529091529020805460ff191660011790555b6032841115613851576136c081670de0b6b3a7640000615a93565b60008b8152600c602052604090205410156137135760405162461bcd60e51b8152602060048201526013602482015272496e737566666963656e742042616c616e636560681b6044820152606401610e01565b6040516001600160a01b0383169082156108fc029083906000818181858888f19350505050158015613749573d6000803e3d6000fd5b5060005b60008b8152600d602052604090205481101561381a5760008b8152600d60205260408120805483908110613783576137836159bd565b90600052602060002090600302016001015490506064816137a49190615a71565b6137ae9084615a93565b6137c090670de0b6b3a7640000615a93565b60008d8152600d602052604090208054849081106137e0576137e06159bd565b906000526020600020906003020160020160008282546138009190615b49565b90915550829150613812905081615af9565b91505061374d565b5061382d81670de0b6b3a7640000615a93565b60008b8152600c60205260408120805490919061384b908490615b49565b90915550505b50505050505050505050565b6138673383614627565b6138835760405162461bcd60e51b8152600401610e0190615a0e565b610ef98484848461497f565b6040805160a0810182528481526001600160a01b038416602080830191909152818301849052600060608301819052608083018190528781526012825292832080546001810182559084529281902082518051939485946005909102909201926138fe92849290910190614df2565b5060208201516001820180546001600160a01b0319166001600160a01b0390921691909117905560408201516002820155606082015160038201556080909101516004909101555050505050565b60008061395884611a0a565b91509150816139b45760405162461bcd60e51b815260206004820152602260248201527f446f206e6f74206861766520736861726520696e20746869732070726f706572604482015261747960f01b6064820152608401610e01565b6000848152600d602052604081208054839081106139d4576139d46159bd565b90600052602060002090600302016002015490506000600d60008781526020019081526020016000208381548110613a0e57613a0e6159bd565b6000918252602080832060016003909302019190910154888352600a9091526040822060060154909250906064613a458484615a93565b613a4f9190615a71565b613a6190670de0b6b3a7640000615a93565b9050808411613ab25760405162461bcd60e51b815260206004820152601960248201527f4e6f2070726f666974206561726e6564206f6e207368617265000000000000006044820152606401610e01565b6000613abe8286615b49565b9050613ad288670de0b6b3a7640000615a93565b975080881115613b145760405162461bcd60e51b815260206004820152600d60248201526c131bddc81bdb881c1c9bd99a5d609a1b6044820152606401610e01565b604051339089156108fc02908a906000818181858888f19350505050158015613b41573d6000803e3d6000fd5b506000898152600d60205260409020805489919088908110613b6557613b656159bd565b90600052602060002090600302016002016000828254613b859190615b49565b90915550506000898152600c6020526040812080548a9290613ba8908490615b49565b9091555050505050505050505050565b6060613bc38261455a565b6000613bda60408051602081019091526000815290565b90506000815111613bfa5760405180602001604052806000815250613c25565b80613c04846149b2565b604051602001613c15929190615bae565b6040516020818303038152906040525b9392505050565b60146020528160005260406000208181548110613c4857600080fd5b6000918252602090912060059091020180546001820180546001600160a01b039092169450919250613c79906159d3565b80601f0160208091040260200160405190810160405280929190818152602001828054613ca5906159d3565b8015613cf25780601f10613cc757610100808354040283529160200191613cf2565b820191906000526020600020905b815481529060010190602001808311613cd557829003601f168201915b505050505090806002018054613d07906159d3565b80601f0160208091040260200160405190810160405280929190818152602001828054613d33906159d3565b8015613d805780601f10613d5557610100808354040283529160200191613d80565b820191906000526020600020905b815481529060010190602001808311613d6357829003601f168201915b5050505060038301546004909301549192916001600160a01b0316905085565b6000828152600260205260409020546001600160a01b0316613df75760405162461bcd60e51b815260206004820152601060248201526f125b9d985b1a5908151bdad95b88125960821b6044820152606401610e01565b6000828152600a602081905260409091200154811115613e4e5760405162461bcd60e51b8152602060048201526012602482015271496e737566666963656e742073686172657360701b6044820152606401610e01565b600160005b6000848152600d6020526040902054811015613fdb576000848152600d60205260409020805433919083908110613e8c57613e8c6159bd565b60009182526020909120600390910201546001600160a01b03161415613fc4576000848152600d602052604081208054919350849183908110613ed157613ed16159bd565b90600052602060002090600302016001016000828254613ef19190615b14565b9091555050604051348152339085907fe7ecf9e57e42ab7fff69c37136c4066c98050210b2d4b7cc83ebecde635c297a9060200160405180910390a36000848152600a602081905260408220018054859290613f4e908490615b49565b90915550506000848152600d60205260409020805434919083908110613f7657613f766159bd565b90600052602060002090600302016002016000828254613f969190615b14565b90915550506000848152600c602052604081208054349290613fb9908490615b14565b90915550613fc99050565b600191505b80613fd381615af9565b915050613e53565b5080156110c957604051348152339084907fe7ecf9e57e42ab7fff69c37136c4066c98050210b2d4b7cc83ebecde635c297a9060200160405180910390a3604080516060810182523381526020808201858152348385019081526000888152600d8452858120805460018082018355918352858320875160039092020180546001600160a01b0319166001600160a01b039092169190911781559351908401559051600290920191909155868152600a91829052928320018054919285926140a4908490615b49565b90915550506000848152600c6020526040812080543492906140c7908490615b14565b909155505050505050565b6001600160a01b03918216600090815260056020908152604080832093909416825291909152205460ff1690565b614108614804565b6001600160a01b03811661416d5760405162461bcd60e51b815260206004820152602660248201527f4f776e61626c653a206e6577206f776e657220697320746865207a65726f206160448201526564647265737360d01b6064820152608401610e01565b6141768161485e565b50565b600a60205260009081526040902080548190614194906159d3565b80601f01602080910402602001604051908101604052809291908181526020018280546141c0906159d3565b801561420d5780601f106141e25761010080835404028352916020019161420d565b820191906000526020600020905b8154815290600101906020018083116141f057829003601f168201915b505050505090806001018054614222906159d3565b80601f016020809104026020016040519081016040528092919081815260200182805461424e906159d3565b801561429b5780601f106142705761010080835404028352916020019161429b565b820191906000526020600020905b81548152906001019060200180831161427e57829003601f168201915b505050506002830154600684015460078501805494956001600160a01b0390931694919350906142ca906159d3565b80601f01602080910402602001604051908101604052809291908181526020018280546142f6906159d3565b80156143435780601f1061431857610100808354040283529160200191614343565b820191906000526020600020905b81548152906001019060200180831161432657829003601f168201915b50505050509080600801549080600901549080600a0154905088565b60408051608081018252828152336020808301919091526000828401819052606083018190528581526010825292832080546001810182559084529281902082518051939485946004909102909201926143be92849290910190614df2565b5060208201516001820180546001600160a01b0319166001600160a01b0390921691909117905560408201516002820155606090910151600390910155505050565b6000806000806000600e868154811061441b5761441b6159bd565b6000918252602091829020604080516080810182526004939093029091018054808452600182015494840185905260028201546001600160a01b03169284018390526003909101546060909301839052999298509650945092505050565b6010602052816000526040600020818154811061449557600080fd5b9060005260206000209060040201600091509150508060000180546144b9906159d3565b80601f01602080910402602001604051908101604052809291908181526020018280546144e5906159d3565b80156145325780601f1061450757610100808354040283529160200191614532565b820191906000526020600020905b81548152906001019060200180831161451557829003601f168201915b505050506001830154600284015460039094015492936001600160a01b039091169290915084565b6000818152600260205260409020546001600160a01b03166141765760405162461bcd60e51b8152602060048201526018602482015277115490cdcc8c4e881a5b9d985b1a59081d1bdad95b88125160421b6044820152606401610e01565b600081815260046020526040902080546001600160a01b0319166001600160a01b03841690811790915581906145ee82611e0d565b6001600160a01b03167f8c5be1e5ebec7d5bd14f71427d1e84f3dd0314c0f7b2291e5b200ac8c7c3b92560405160405180910390a45050565b60008061463383611e0d565b9050806001600160a01b0316846001600160a01b0316148061465a575061465a81856140d2565b8061467e5750836001600160a01b031661467384610f91565b6001600160a01b0316145b949350505050565b826001600160a01b031661469982611e0d565b6001600160a01b0316146146bf5760405162461bcd60e51b8152600401610e0190615bdd565b6001600160a01b0382166147215760405162461bcd60e51b8152602060048201526024808201527f4552433732313a207472616e7366657220746f20746865207a65726f206164646044820152637265737360e01b6064820152608401610e01565b826001600160a01b031661473482611e0d565b6001600160a01b03161461475a5760405162461bcd60e51b8152600401610e0190615bdd565b600081815260046020908152604080832080546001600160a01b03199081169091556001600160a01b0387811680865260038552838620805460001901905590871680865283862080546001019055868652600290945282852080549092168417909155905184937fddf252ad1be2c89b69c2b068fc378daa952ba7f163c4a11628f55a4df523b3ef91a4505050565b61259b828260405180602001604052806000815250614a4f565b6006546001600160a01b031633146126375760405162461bcd60e51b815260206004820181905260248201527f4f776e61626c653a2063616c6c6572206973206e6f7420746865206f776e65726044820152606401610e01565b600680546001600160a01b038381166001600160a01b0319831681179093556040519116919082907f8be0079c531659141344cd1fd0a4f28419497f9722a3daafe3b4186f6b6457e090600090a35050565b816001600160a01b0316836001600160a01b031614156149125760405162461bcd60e51b815260206004820152601960248201527f4552433732313a20617070726f766520746f2063616c6c6572000000000000006044820152606401610e01565b6001600160a01b03838116600081815260056020908152604080832094871680845294825291829020805460ff191686151590811790915591519182527f17307eab39ab6107e8899845ad3d59bd9653f200f220920489ca2b5937696c31910160405180910390a3505050565b61498a848484614686565b61499684848484614a82565b610ef95760405162461bcd60e51b8152600401610e0190615c22565b606060006149bf83614b8f565b600101905060008167ffffffffffffffff8111156149df576149df61513b565b6040519080825280601f01601f191660200182016040528015614a09576020820181803683370190505b5090508181016020015b600019016f181899199a1a9b1b9c1cb0b131b232b360811b600a86061a8153600a8504945084614a4257614a47565b614a13565b509392505050565b614a598383614c67565b614a666000848484614a82565b6110c95760405162461bcd60e51b8152600401610e0190615c22565b60006001600160a01b0384163b15614b8457604051630a85bd0160e11b81526001600160a01b0385169063150b7a0290614ac6903390899088908890600401615c74565b602060405180830381600087803b158015614ae057600080fd5b505af1925050508015614b10575060408051601f3d908101601f19168201909252614b0d91810190615cb1565b60015b614b6a573d808015614b3e576040519150601f19603f3d011682016040523d82523d6000602084013e614b43565b606091505b508051614b625760405162461bcd60e51b8152600401610e0190615c22565b805181602001fd5b6001600160e01b031916630a85bd0160e11b14905061467e565b506001949350505050565b60008072184f03e93ff9f4daa797ed6e38ed64bf6a1f0160401b8310614bce5772184f03e93ff9f4daa797ed6e38ed64bf6a1f0160401b830492506040015b6d04ee2d6d415b85acef81000000008310614bfa576d04ee2d6d415b85acef8100000000830492506020015b662386f26fc100008310614c1857662386f26fc10000830492506010015b6305f5e1008310614c30576305f5e100830492506008015b6127108310614c4457612710830492506004015b60648310614c56576064830492506002015b600a8310610d0a5760010192915050565b6001600160a01b038216614cbd5760405162461bcd60e51b815260206004820181905260248201527f4552433732313a206d696e7420746f20746865207a65726f20616464726573736044820152606401610e01565b6000818152600260205260409020546001600160a01b031615614d225760405162461bcd60e51b815260206004820152601c60248201527f4552433732313a20746f6b656e20616c7265616479206d696e746564000000006044820152606401610e01565b6000818152600260205260409020546001600160a01b031615614d875760405162461bcd60e51b815260206004820152601c60248201527f4552433732313a20746f6b656e20616c7265616479206d696e746564000000006044820152606401610e01565b6001600160a01b038216600081815260036020908152604080832080546001019055848352600290915280822080546001600160a01b0319168417905551839291907fddf252ad1be2c89b69c2b068fc378daa952ba7f163c4a11628f55a4df523b3ef908290a45050565b828054614dfe906159d3565b90600052602060002090601f016020900481019282614e205760008555614e66565b82601f10614e3957805160ff1916838001178555614e66565b82800160010185558215614e66579182015b82811115614e66578251825591602001919060010190614e4b565b50614e72929150614ee9565b5090565b60405180606001604052806003905b6060815260200190600190039081614e855790505090565b8260038101928215614edd579160200282015b82811115614edd5782518051614ecd918491602090910190614df2565b5091602001919060010190614eb0565b50614e72929150614efe565b5b80821115614e725760008155600101614eea565b80821115614e72576000614f128282614f1b565b50600101614efe565b508054614f27906159d3565b6000825580601f10614f37575050565b601f0160209004906000526020600020908101906141769190614ee9565b60008060408385031215614f6857600080fd5b50508035926020909101359150565b6001600160e01b03198116811461417657600080fd5b600060208284031215614f9f57600080fd5b8135613c2581614f77565b600060208284031215614fbc57600080fd5b5035919050565b60005b83811015614fde578181015183820152602001614fc6565b83811115610ef95750506000910152565b60008151808452615007816020860160208601614fc3565b601f01601f19169290920160200192915050565b602081526000613c256020830184614fef565b80356001600160a01b038116811461504557600080fd5b919050565b6000806040838503121561505d57600080fd5b6150668361502e565b946020939093013593505050565b60008060006060848603121561508957600080fd5b83359250602084013591506150a06040850161502e565b90509250925092565b6000806000606084860312156150be57600080fd5b6150c78461502e565b92506150d56020850161502e565b9150604084013590509250925092565b6000806000606084860312156150fa57600080fd5b505081359360208301359350604090920135919050565b81516001600160a01b03168152602080830151908201526040808301519082015260608101610d0a565b634e487b7160e01b600052604160045260246000fd5b600067ffffffffffffffff8084111561516c5761516c61513b565b604051601f8501601f19908116603f011681019082821181831017156151945761519461513b565b816040528093508581528686860111156151ad57600080fd5b858560208301376000602087830101525050509392505050565b600082601f8301126151d857600080fd5b613c2583833560208501615151565b600080600080608085870312156151fd57600080fd5b8435935061520d6020860161502e565b9250604085013567ffffffffffffffff8082111561522a57600080fd5b615236888389016151c7565b9350606087013591508082111561524c57600080fd5b50615259878288016151c7565b91505092959194509250565b60006020808301818452808551808352604092508286019150828160051b87010184880160005b8381101561530e57888303603f19018552815180516001600160a01b0390811685528882015160a08a870181905291906152c883880182614fef565b925050888301518683038a8801526152e08382614fef565b606085810151908901526080948501519092169390960192909252509487019492509086019060010161528c565b509098975050505050505050565b60006101208083526153308184018d614fef565b9050602083820381850152615345828d614fef565b6001600160a01b038c166040860152848103606080870191909152909250829081018b60005b6003811015615396578583038452615384838351614fef565b9385019392509084019060010161536b565b50508a608087015285810360a08701526153b0818b614fef565b60c08701999099525050505060e08201939093526101000152509695505050505050565b600082601f8301126153e557600080fd5b6040516060810167ffffffffffffffff82821081831117156154095761540961513b565b81604052829150606085018681111561542157600080fd5b855b818110156115f75780358381111561543b5760008081fd5b61544789828a016151c7565b85525060209384019301615423565b600080600080600080600060e0888a03121561547157600080fd5b873567ffffffffffffffff8082111561548957600080fd5b6154958b838c016151c7565b985060208a01359150808211156154ab57600080fd5b6154b78b838c016151c7565b975060408a01359150808211156154cd57600080fd5b6154d98b838c016153d4565b965060608a0135955060808a01359150808211156154f657600080fd5b506155038a828b016151c7565b93505060a0880135915060c0880135905092959891949750929550565b801515811461417657600080fd5b60008060006060848603121561554357600080fd5b8335925060208401359150604084013561555c81615520565b809150509250925092565b60a08152600061557a60a0830188614fef565b6001600160a01b039690961660208301525060408101939093526060830191909152608090910152919050565b6020808252825182820181905260009190848201906040850190845b81811015615606576155f383855180516001600160a01b0316825260208082015190830152604090810151910152565b92840192606092909201916001016155c3565b50909695505050505050565b60006020828403121561562457600080fd5b613c258261502e565b60006020808301818452808551808352604092508286019150828160051b87010184880160005b8381101561530e57603f19898403018552815160a0815181865261567a82870182614fef565b838b01516001600160a01b0316878c0152898401518a88015260608085015190880152608093840151939096019290925250509386019390860190600101615654565b600080604083850312156156d057600080fd5b6156d98361502e565b915060208301356156e981615520565b809150509250929050565b60006020808301818452808551808352604092508286019150828160051b87010184880160005b8381101561530e57603f1989840301855281516080815181865261574182870182614fef565b838b01516001600160a01b0316878c0152898401518a88015260609384015193909601929092525050938601939086019060010161571b565b6000806000806080858703121561579057600080fd5b6157998561502e565b93506157a76020860161502e565b925060408501359150606085013567ffffffffffffffff8111156157ca57600080fd5b8501601f810187136157db57600080fd5b61525987823560208401615151565b6000806000806080858703121561580057600080fd5b84359350602085013567ffffffffffffffff81111561581e57600080fd5b61582a878288016151c7565b9350506158396040860161502e565b9396929550929360600135925050565b600060018060a01b03808816835260a0602084015261586b60a0840188614fef565b838103604085015261587d8188614fef565b60608501969096525092909216608090910152509392505050565b600080604083850312156158ab57600080fd5b6158b48361502e565b91506158c26020840161502e565b90509250929050565b60006101008083526158df8184018c614fef565b905082810360208401526158f3818b614fef565b6001600160a01b038a166040850152606084018990528381036080850152905061591d8188614fef565b60a0840196909652505060c081019290925260e09091015295945050505050565b6000806040838503121561595157600080fd5b82359150602083013567ffffffffffffffff81111561596f57600080fd5b61597b858286016151c7565b9150509250929050565b6080815260006159986080830187614fef565b6001600160a01b03959095166020830152506040810192909252606090910152919050565b634e487b7160e01b600052603260045260246000fd5b600181811c908216806159e757607f821691505b60208210811415615a0857634e487b7160e01b600052602260045260246000fd5b50919050565b6020808252602d908201527f4552433732313a2063616c6c6572206973206e6f7420746f6b656e206f776e6560408201526c1c881bdc88185c1c1c9bdd9959609a1b606082015260800190565b634e487b7160e01b600052601160045260246000fd5b600082615a8e57634e487b7160e01b600052601260045260246000fd5b500490565b6000816000190483118215151615615aad57615aad615a5b565b500290565b60208082526027908201527f5368617265686f6c6465727320646f206e6f74206861766520656e6f7567682060408201526662616c616e636560c81b606082015260800190565b6000600019821415615b0d57615b0d615a5b565b5060010190565b60008219821115615b2757615b27615a5b565b500190565b600060208284031215615b3e57600080fd5b8151613c2581615520565b600082821015615b5b57615b5b615a5b565b500390565b6020808252602e908201527f446f206e6f742068617665207065726d6973696f6e20746f20636f6e7472696260408201526d1d5d19481d1bc81c1c9bda9958dd60921b606082015260800190565b60008351615bc0818460208801614fc3565b835190830190615bd4818360208801614fc3565b01949350505050565b60208082526025908201527f4552433732313a207472616e736665722066726f6d20696e636f72726563742060408201526437bbb732b960d91b606082015260800190565b60208082526032908201527f4552433732313a207472616e7366657220746f206e6f6e20455243373231526560408201527131b2b4bb32b91034b6b83632b6b2b73a32b960711b606082015260800190565b6001600160a01b0385811682528416602082015260408101839052608060608201819052600090615ca790830184614fef565b9695505050505050565b600060208284031215615cc357600080fd5b8151613c2581614f7756fea26469706673582212209f8313b1e5c339bd40a1387e8f610fbcf0ce86eaafb75d0a7e325403dfac58bc64736f6c63430008090033",
  "linkReferences": {},
  "deployedLinkReferences": {}
}