{"contracts/PropertyContract.sol":{"PropertyContract":{"abi":[{"inputs":[],"stateMutability":"nonpayable","type":"constructor"},{"anonymous":false,"inputs":[{"indexed":true,"internalType":"address","name":"owner","type":"address"},{"indexed":true,"internalType":"address","name":"approved","type":"address"},{"indexed":true,"internalType":"uint256","name":"tokenId","type":"uint256"}],"name":"Approval","type":"event"},{"anonymous":false,"inputs":[{"indexed":true,"internalType":"address","name":"owner","type":"address"},{"indexed":true,"internalType":"address","name":"operator","type":"address"},{"indexed":false,"internalType":"bool","name":"approved","type":"bool"}],"name":"ApprovalForAll","type":"event"},{"anonymous":false,"inputs":[{"indexed":true,"internalType":"address","name":"previousOwner","type":"address"},{"indexed":true,"internalType":"address","name":"newOwner","type":"address"}],"name":"OwnershipTransferred","type":"event"},{"anonymous":false,"inputs":[{"indexed":true,"internalType":"address","name":"from","type":"address"},{"indexed":true,"internalType":"address","name":"to","type":"address"},{"indexed":true,"internalType":"uint256","name":"tokenId","type":"uint256"}],"name":"Transfer","type":"event"},{"inputs":[{"internalType":"address","name":"to","type":"address"},{"internalType":"uint256","name":"tokenId","type":"uint256"}],"name":"approve","outputs":[],"stateMutability":"nonpayable","type":"function"},{"inputs":[{"internalType":"address","name":"owner","type":"address"}],"name":"balanceOf","outputs":[{"internalType":"uint256","name":"","type":"uint256"}],"stateMutability":"view","type":"function"},{"inputs":[{"internalType":"uint256","name":"index","type":"uint256"}],"name":"buyShare","outputs":[],"stateMutability":"payable","type":"function"},{"inputs":[{"internalType":"uint256","name":"_id","type":"uint256"}],"name":"checkPropertyOwner","outputs":[{"internalType":"bool","name":"","type":"bool"}],"stateMutability":"view","type":"function"},{"inputs":[{"internalType":"uint256","name":"_id","type":"uint256"}],"name":"checkShareOwner","outputs":[{"internalType":"bool","name":"","type":"bool"},{"internalType":"uint256","name":"","type":"uint256"}],"stateMutability":"view","type":"function"},{"inputs":[{"internalType":"string","name":"_name","type":"string"},{"internalType":"string","name":"_location","type":"string"},{"internalType":"string[3]","name":"_image","type":"string[3]"},{"internalType":"uint256","name":"_price","type":"uint256"},{"internalType":"string","name":"_description","type":"string"},{"internalType":"uint256","name":"_rate","type":"uint256"},{"internalType":"uint256","name":"_shares","type":"uint256"}],"name":"createProperty","outputs":[],"stateMutability":"nonpayable","type":"function"},{"inputs":[{"internalType":"uint256","name":"_id","type":"uint256"},{"internalType":"uint256","name":"_share","type":"uint256"}],"name":"createShare","outputs":[],"stateMutability":"nonpayable","type":"function"},{"inputs":[{"internalType":"uint256","name":"","type":"uint256"},{"internalType":"uint256","name":"","type":"uint256"}],"name":"decisions","outputs":[{"internalType":"string","name":"details","type":"string"},{"internalType":"address","name":"by","type":"address"},{"internalType":"uint256","name":"support","type":"uint256"},{"internalType":"uint256","name":"decline","type":"uint256"}],"stateMutability":"view","type":"function"},{"inputs":[{"internalType":"uint256","name":"tokenId","type":"uint256"}],"name":"getApproved","outputs":[{"internalType":"address","name":"","type":"address"}],"stateMutability":"view","type":"function"},{"inputs":[{"internalType":"uint256","name":"_id","type":"uint256"}],"name":"getDecision","outputs":[{"components":[{"internalType":"string","name":"details","type":"string"},{"internalType":"address","name":"by","type":"address"},{"internalType":"uint256","name":"support","type":"uint256"},{"internalType":"uint256","name":"decline","type":"uint256"}],"internalType":"struct PropertyContract.Decision[]","name":"","type":"tuple[]"}],"stateMutability":"view","type":"function"},{"inputs":[],"name":"getOpenShareCount","outputs":[{"internalType":"uint256","name":"","type":"uint256"}],"stateMutability":"view","type":"function"},{"inputs":[{"internalType":"uint256","name":"_id","type":"uint256"}],"name":"getOpenShares","outputs":[{"internalType":"uint256","name":"","type":"uint256"},{"internalType":"uint256","name":"","type":"uint256"},{"internalType":"address","name":"","type":"address"},{"internalType":"uint256","name":"","type":"uint256"}],"stateMutability":"view","type":"function"},{"inputs":[{"internalType":"uint256","name":"_id","type":"uint256"}],"name":"getProperty","outputs":[{"internalType":"string","name":"","type":"string"},{"internalType":"string","name":"","type":"string"},{"internalType":"address","name":"","type":"address"},{"internalType":"string[3]","name":"","type":"string[3]"},{"internalType":"uint256","name":"","type":"uint256"},{"internalType":"string","name":"","type":"string"},{"internalType":"uint256","name":"","type":"uint256"},{"internalType":"uint256","name":"","type":"uint256"},{"internalType":"uint256","name":"","type":"uint256"}],"stateMutability":"view","type":"function"},{"inputs":[],"name":"getPropertyCount","outputs":[{"internalType":"uint256","name":"","type":"uint256"}],"stateMutability":"view","type":"function"},{"inputs":[{"internalType":"uint256","name":"_id","type":"uint256"}],"name":"getPunishment","outputs":[{"components":[{"internalType":"address","name":"who","type":"address"},{"internalType":"string","name":"reason","type":"string"},{"internalType":"string","name":"details","type":"string"},{"internalType":"uint256","name":"support","type":"uint256"},{"internalType":"address","name":"by","type":"address"}],"internalType":"struct PropertyContract.Punish[]","name":"","type":"tuple[]"}],"stateMutability":"view","type":"function"},{"inputs":[{"internalType":"uint256","name":"_id","type":"uint256"}],"name":"getRequestFunds","outputs":[{"components":[{"internalType":"string","name":"reason","type":"string"},{"internalType":"address","name":"to","type":"address"},{"internalType":"uint256","name":"amount","type":"uint256"},{"internalType":"uint256","name":"support","type":"uint256"},{"internalType":"uint256","name":"decline","type":"uint256"}],"internalType":"struct PropertyContract.Requestfunds[]","name":"","type":"tuple[]"}],"stateMutability":"view","type":"function"},{"inputs":[{"internalType":"uint256","name":"_id","type":"uint256"}],"name":"getShares","outputs":[{"components":[{"internalType":"address","name":"owner","type":"address"},{"internalType":"uint256","name":"share","type":"uint256"}],"internalType":"struct PropertyContract.Shares[]","name":"","type":"tuple[]"}],"stateMutability":"view","type":"function"},{"inputs":[{"internalType":"uint256","name":"_id","type":"uint256"}],"name":"getTransact","outputs":[{"components":[{"internalType":"uint256","name":"amount","type":"uint256"},{"internalType":"string","name":"reason","type":"string"},{"internalType":"address","name":"to","type":"address"},{"internalType":"address","name":"by","type":"address"},{"internalType":"uint256","name":"support","type":"uint256"},{"internalType":"uint256","name":"decline","type":"uint256"}],"internalType":"struct PropertyContract.Transact[]","name":"","type":"tuple[]"}],"stateMutability":"view","type":"function"},{"inputs":[{"internalType":"uint256","name":"id","type":"uint256"}],"name":"hasShare","outputs":[{"internalType":"bool","name":"","type":"bool"}],"stateMutability":"view","type":"function"},{"inputs":[{"internalType":"uint256","name":"id","type":"uint256"},{"internalType":"uint256","name":"share","type":"uint256"}],"name":"invest","outputs":[],"stateMutability":"payable","type":"function"},{"inputs":[{"internalType":"address","name":"owner","type":"address"},{"internalType":"address","name":"operator","type":"address"}],"name":"isApprovedForAll","outputs":[{"internalType":"bool","name":"","type":"bool"}],"stateMutability":"view","type":"function"},{"inputs":[{"internalType":"uint256","name":"_id","type":"uint256"},{"internalType":"string","name":"_details","type":"string"}],"name":"makeDecision","outputs":[],"stateMutability":"nonpayable","type":"function"},{"inputs":[{"internalType":"uint256","name":"_id","type":"uint256"},{"internalType":"string","name":"_reason","type":"string"},{"internalType":"address","name":"_to","type":"address"},{"internalType":"uint256","name":"_amount","type":"uint256"}],"name":"makeRequest","outputs":[],"stateMutability":"nonpayable","type":"function"},{"inputs":[{"internalType":"uint256","name":"id","type":"uint256"},{"internalType":"uint256","name":"amount","type":"uint256"},{"internalType":"string","name":"reason","type":"string"},{"internalType":"address","name":"to","type":"address"}],"name":"makeTransact","outputs":[],"stateMutability":"nonpayable","type":"function"},{"inputs":[{"internalType":"address","name":"to","type":"address"},{"internalType":"uint256","name":"amount","type":"uint256"}],"name":"makeTransaction","outputs":[],"stateMutability":"nonpayable","type":"function"},{"inputs":[],"name":"name","outputs":[{"internalType":"string","name":"","type":"string"}],"stateMutability":"view","type":"function"},{"inputs":[],"name":"nextTokenId","outputs":[{"internalType":"uint256","name":"","type":"uint256"}],"stateMutability":"view","type":"function"},{"inputs":[],"name":"owner","outputs":[{"internalType":"address","name":"","type":"address"}],"stateMutability":"view","type":"function"},{"inputs":[{"internalType":"uint256","name":"tokenId","type":"uint256"}],"name":"ownerOf","outputs":[{"internalType":"address","name":"","type":"address"}],"stateMutability":"view","type":"function"},{"inputs":[{"internalType":"uint256","name":"","type":"uint256"}],"name":"properties","outputs":[{"internalType":"string","name":"name","type":"string"},{"internalType":"string","name":"location","type":"string"},{"internalType":"address","name":"owner","type":"address"},{"internalType":"uint256","name":"price","type":"uint256"},{"internalType":"string","name":"description","type":"string"},{"internalType":"uint256","name":"timestamp","type":"uint256"},{"internalType":"uint256","name":"rate","type":"uint256"},{"internalType":"uint256","name":"shares","type":"uint256"}],"stateMutability":"view","type":"function"},{"inputs":[{"internalType":"uint256","name":"","type":"uint256"}],"name":"property_id","outputs":[{"internalType":"uint256","name":"","type":"uint256"}],"stateMutability":"view","type":"function"},{"inputs":[{"internalType":"uint256","name":"","type":"uint256"},{"internalType":"uint256","name":"","type":"uint256"}],"name":"punish","outputs":[{"internalType":"address","name":"who","type":"address"},{"internalType":"string","name":"reason","type":"string"},{"internalType":"string","name":"details","type":"string"},{"internalType":"uint256","name":"support","type":"uint256"},{"internalType":"address","name":"by","type":"address"}],"stateMutability":"view","type":"function"},{"inputs":[],"name":"renounceOwnership","outputs":[],"stateMutability":"nonpayable","type":"function"},{"inputs":[{"internalType":"address","name":"to","type":"address"},{"internalType":"uint256","name":"amount","type":"uint256"}],"name":"requestFunds","outputs":[],"stateMutability":"nonpayable","type":"function"},{"inputs":[{"internalType":"uint256","name":"_id","type":"uint256"},{"internalType":"address","name":"who","type":"address"},{"internalType":"string","name":"reason","type":"string"},{"internalType":"string","name":"details","type":"string"}],"name":"requestPunishment","outputs":[],"stateMutability":"nonpayable","type":"function"},{"inputs":[{"internalType":"uint256","name":"","type":"uint256"},{"internalType":"uint256","name":"","type":"uint256"}],"name":"requestfunds","outputs":[{"internalType":"string","name":"reason","type":"string"},{"internalType":"address","name":"to","type":"address"},{"internalType":"uint256","name":"amount","type":"uint256"},{"internalType":"uint256","name":"support","type":"uint256"},{"internalType":"uint256","name":"decline","type":"uint256"}],"stateMutability":"view","type":"function"},{"inputs":[{"internalType":"address","name":"from","type":"address"},{"internalType":"address","name":"to","type":"address"},{"internalType":"uint256","name":"tokenId","type":"uint256"}],"name":"safeTransferFrom","outputs":[],"stateMutability":"nonpayable","type":"function"},{"inputs":[{"internalType":"address","name":"from","type":"address"},{"internalType":"address","name":"to","type":"address"},{"internalType":"uint256","name":"tokenId","type":"uint256"},{"internalType":"bytes","name":"data","type":"bytes"}],"name":"safeTransferFrom","outputs":[],"stateMutability":"nonpayable","type":"function"},{"inputs":[{"internalType":"uint256","name":"_id","type":"uint256"},{"internalType":"uint256","name":"_share","type":"uint256"}],"name":"sellShare","outputs":[],"stateMutability":"nonpayable","type":"function"},{"inputs":[{"internalType":"address","name":"operator","type":"address"},{"internalType":"bool","name":"approved","type":"bool"}],"name":"setApprovalForAll","outputs":[],"stateMutability":"nonpayable","type":"function"},{"inputs":[{"internalType":"uint256","name":"","type":"uint256"},{"internalType":"uint256","name":"","type":"uint256"}],"name":"shares","outputs":[{"internalType":"address","name":"owner","type":"address"},{"internalType":"uint256","name":"share","type":"uint256"}],"stateMutability":"view","type":"function"},{"inputs":[{"internalType":"bytes4","name":"interfaceId","type":"bytes4"}],"name":"supportsInterface","outputs":[{"internalType":"bool","name":"","type":"bool"}],"stateMutability":"view","type":"function"},{"inputs":[],"name":"symbol","outputs":[{"internalType":"string","name":"","type":"string"}],"stateMutability":"view","type":"function"},{"inputs":[{"internalType":"uint256","name":"tokenId","type":"uint256"}],"name":"tokenURI","outputs":[{"internalType":"string","name":"","type":"string"}],"stateMutability":"view","type":"function"},{"inputs":[{"internalType":"uint256","name":"","type":"uint256"},{"internalType":"uint256","name":"","type":"uint256"}],"name":"transact","outputs":[{"internalType":"uint256","name":"amount","type":"uint256"},{"internalType":"string","name":"reason","type":"string"},{"internalType":"address","name":"to","type":"address"},{"internalType":"address","name":"by","type":"address"},{"internalType":"uint256","name":"support","type":"uint256"},{"internalType":"uint256","name":"decline","type":"uint256"}],"stateMutability":"view","type":"function"},{"inputs":[{"internalType":"address","name":"from","type":"address"},{"internalType":"address","name":"to","type":"address"},{"internalType":"uint256","name":"tokenId","type":"uint256"}],"name":"transferFrom","outputs":[],"stateMutability":"nonpayable","type":"function"},{"inputs":[{"internalType":"address","name":"newOwner","type":"address"}],"name":"transferOwnership","outputs":[],"stateMutability":"nonpayable","type":"function"},{"inputs":[{"internalType":"uint256","name":"_id","type":"uint256"},{"internalType":"uint256","name":"index","type":"uint256"}],"name":"vote","outputs":[],"stateMutability":"view","type":"function"},{"inputs":[{"internalType":"uint256","name":"id","type":"uint256"},{"internalType":"uint256","name":"index","type":"uint256"}],"name":"votePunishment","outputs":[],"stateMutability":"nonpayable","type":"function"},{"inputs":[{"internalType":"uint256","name":"_id","type":"uint256"},{"internalType":"uint256","name":"index","type":"uint256"},{"internalType":"bool","name":"_i","type":"bool"}],"name":"voteRequest","outputs":[],"stateMutability":"nonpayable","type":"function"},{"inputs":[{"internalType":"uint256","name":"_id","type":"uint256"},{"internalType":"uint256","name":"index","type":"uint256"},{"internalType":"bool","name":"_i","type":"bool"}],"name":"voteTransact","outputs":[],"stateMutability":"nonpayable","type":"function"}],"evm":{"bytecode":{"linkReferences":{},"object":"60806040523480156200001157600080fd5b50604080518082018252601081526f141c9bdc195c9d1e50dbdb9d1c9858dd60821b602080830191825283518085019094526002845261524560f01b9084015281519192916200006491600091620000f8565b5080516200007a906001906020840190620000f8565b5050506200009762000091620000a260201b60201c565b620000a6565b6001600755620001db565b3390565b600680546001600160a01b038381166001600160a01b0319831681179093556040519116919082907f8be0079c531659141344cd1fd0a4f28419497f9722a3daafe3b4186f6b6457e090600090a35050565b82805462000106906200019e565b90600052602060002090601f0160209004810192826200012a576000855562000175565b82601f106200014557805160ff191683800117855562000175565b8280016001018555821562000175579182015b828111156200017557825182559160200191906001019062000158565b506200018392915062000187565b5090565b5b8082111562000183576000815560010162000188565b600181811c90821680620001b357607f821691505b60208210811415620001d557634e487b7160e01b600052602260045260246000fd5b50919050565b614b4380620001eb6000396000f3fe6080604052600436106102e45760003560e01c8063715018a611610190578063b88d4fde116100dc578063e985e9c511610095578063f8d356301161006f578063f8d35630146109f2578063f9689d5814610a12578063f9b1fb4814610a61578063fd040ac714610a9357600080fd5b8063e985e9c514610955578063f2fde38b1461099e578063f7b10808146109be57600080fd5b8063b88d4fde146108b1578063bc93e759146108d1578063c87b56dd146108f1578063d70080cc14610911578063d87aa64314610942578063e6beded8146105d957600080fd5b806395d89b4111610149578063af75484811610123578063af75484814610824578063b2df9ef114610851578063b384abef14610871578063b5229abe1461089157600080fd5b806395d89b41146107dc578063a22cb465146107f1578063a9ed6e9a1461081157600080fd5b8063715018a6146107315780637326b9011461074657806373368dd21461075b57806375794a3c1461077b5780638da5cb5b1461079157806391dcac52146107af57600080fd5b806338f36f5b1161024f57806358335ef31161020857806365186d5f116101e257806365186d5f146106785780636e9d0118146106b35780636f7267b7146106e457806370a082311461071157600080fd5b806358335ef314610618578063625e4e83146106385780636352211e1461065857600080fd5b806338f36f5b146104de5780633bbc7b0b1461050b578063418a66361461058257806342842e0e146105b9578063494666b6146105d957806353557d28146105f857600080fd5b8063095ea7b3116102a1578063095ea7b31461040757806323b872dd146104275780632a8092cb146104475780632babeb401461045c57806330f703a31461047c57806332665ffb146104a957600080fd5b806301bee1d6146102e957806301ffc9a71461032d57806303747b801461035d5780630519e9751461038b57806306fdde03146103ad578063081812fc146103cf575b600080fd5b3480156102f557600080fd5b50610309610304366004613dac565b610ac3565b604080516001600160a01b0390931683526020830191909152015b60405180910390f35b34801561033957600080fd5b5061034d610348366004613de4565b610b09565b6040519015158152602001610324565b34801561036957600080fd5b5061037d610378366004613e01565b610b5b565b604051908152602001610324565b34801561039757600080fd5b506103ab6103a6366004613dac565b610b7c565b005b3480156103b957600080fd5b506103c2610d4a565b6040516103249190613e72565b3480156103db57600080fd5b506103ef6103ea366004613e01565b610ddc565b6040516001600160a01b039091168152602001610324565b34801561041357600080fd5b506103ab610422366004613ea1565b610e03565b34801561043357600080fd5b506103ab610442366004613ecb565b610f19565b34801561045357600080fd5b50600b5461037d565b34801561046857600080fd5b506103ab610477366004613fb3565b610f4a565b34801561048857600080fd5b5061049c610497366004613e01565b61106f565b6040516103249190614031565b3480156104b557600080fd5b506104c96104c4366004613e01565b611235565b604051610324999897969594939291906140e8565b3480156104ea57600080fd5b506104fe6104f9366004613e01565b61156d565b60405161032491906141a0565b34801561051757600080fd5b506103ab610526366004613dac565b60408051808201825233815260208082019384526000948552600a815291842080546001808201835591865292909420905160029092020180546001600160a01b0319166001600160a01b039092169190911781559051910155565b34801561058e57600080fd5b506105a261059d366004613e01565b6116a2565b604080519215158352602083019190915201610324565b3480156105c557600080fd5b506103ab6105d4366004613ecb565b611729565b3480156105e557600080fd5b506103ab6105f4366004613ea1565b5050565b34801561060457600080fd5b506103ab61061336600461423f565b611744565b34801561062457600080fd5b5061034d610633366004613e01565b611812565b34801561064457600080fd5b506103ab610653366004614322565b61188e565b34801561066457600080fd5b506103ef610673366004613e01565b6119c9565b34801561068457600080fd5b5061034d610693366004613e01565b6000908152600860205260409020600201546001600160a01b0316331490565b3480156106bf57600080fd5b506106d36106ce366004613dac565b611a29565b6040516103249594939291906143ec565b3480156106f057600080fd5b506107046106ff366004613e01565b611b0f565b604051610324919061442c565b34801561071d57600080fd5b5061037d61072c366004614484565b611b97565b34801561073d57600080fd5b506103ab611c1d565b34801561075257600080fd5b5060075461037d565b34801561076757600080fd5b506103ab610776366004613dac565b611c31565b34801561078757600080fd5b5061037d60075481565b34801561079d57600080fd5b506006546001600160a01b03166103ef565b3480156107bb57600080fd5b506107cf6107ca366004613e01565b611eb2565b604051610324919061449f565b3480156107e857600080fd5b506103c2611fd8565b3480156107fd57600080fd5b506103ab61080c36600461453f565b611fe7565b6103ab61081f366004613e01565b611ff2565b34801561083057600080fd5b5061084461083f366004613e01565b612221565b6040516103249190614572565b34801561085d57600080fd5b506103ab61086c3660046145f8565b61233d565b34801561087d57600080fd5b506103ab61088c366004613dac565b6125b4565b34801561089d57600080fd5b506103ab6108ac3660046145f8565b61264d565b3480156108bd57600080fd5b506103ab6108cc36600461462d565b6128c4565b3480156108dd57600080fd5b506103ab6108ec36600461469d565b6128f6565b3480156108fd57600080fd5b506103c261090c366004613e01565b6129b3565b34801561091d57600080fd5b5061093161092c366004613dac565b612a27565b6040516103249594939291906146fc565b6103ab610950366004613dac565b612b9b565b34801561096157600080fd5b5061034d61097036600461474b565b6001600160a01b03918216600090815260056020908152604080832093909416825291909152205460ff1690565b3480156109aa57600080fd5b506103ab6109b9366004614484565b612e05565b3480156109ca57600080fd5b506109de6109d9366004613e01565b612e7b565b604051610324989796959493929190614775565b3480156109fe57600080fd5b506103ab610a0d3660046147e8565b613061565b348015610a1e57600080fd5b50610a32610a2d366004613e01565b613102565b604051610324949392919093845260208401929092526001600160a01b03166040830152606082015260800190565b348015610a6d57600080fd5b50610a81610a7c366004613dac565b61317b565b6040516103249695949392919061482f565b348015610a9f57600080fd5b50610ab3610aae366004613dac565b61326b565b6040516103249493929190614876565b600a6020528160005260406000208181548110610adf57600080fd5b6000918252602090912060029091020180546001909101546001600160a01b039091169250905082565b60006001600160e01b031982166380ac58cd60e01b1480610b3a57506001600160e01b03198216635b5e139f60e01b145b80610b5557506301ffc9a760e01b6001600160e01b03198316145b92915050565b60098181548110610b6b57600080fd5b600091825260209091200154905081565b600080610b88846116a2565b915091508115610d44576000848152600a60205260408120805483908110610bb257610bb26148ae565b90600052602060002090600202016001015490506000600a60008781526020019081526020016000208381548110610bec57610bec6148ae565b60009182526020909120600290910201546001600160a01b0316905081851115610c555760405162461bcd60e51b8152602060048201526015602482015274125b9d985b1a59081cda185c99481d1bc81cd95b1b605a1b60448201526064015b60405180910390fd5b60408051608081018252878152602081018581526001600160a01b0393841692820192835260608201888152600b805460018101825560009190915292517f0175b7a638427703f0dbe7bb9bbf987a2551717b34e79f33b5b1008d1fa01db960049094029384015590517f0175b7a638427703f0dbe7bb9bbf987a2551717b34e79f33b5b1008d1fa01dba83015591517f0175b7a638427703f0dbe7bb9bbf987a2551717b34e79f33b5b1008d1fa01dbb820180546001600160a01b0319169190941617909255517f0175b7a638427703f0dbe7bb9bbf987a2551717b34e79f33b5b1008d1fa01dbc90910155505b50505050565b606060008054610d59906148c4565b80601f0160208091040260200160405190810160405280929190818152602001828054610d85906148c4565b8015610dd25780601f10610da757610100808354040283529160200191610dd2565b820191906000526020600020905b815481529060010190602001808311610db557829003601f168201915b5050505050905090565b6000610de78261334c565b506000908152600460205260409020546001600160a01b031690565b6000610e0e826119c9565b9050806001600160a01b0316836001600160a01b03161415610e7c5760405162461bcd60e51b815260206004820152602160248201527f4552433732313a20617070726f76616c20746f2063757272656e74206f776e656044820152603960f91b6064820152608401610c4c565b336001600160a01b0382161480610e985750610e988133610970565b610f0a5760405162461bcd60e51b815260206004820152603d60248201527f4552433732313a20617070726f76652063616c6c6572206973206e6f7420746f60448201527f6b656e206f776e6572206f7220617070726f76656420666f7220616c6c0000006064820152608401610c4c565b610f1483836133ab565b505050565b610f233382613419565b610f3f5760405162461bcd60e51b8152600401610c4c906148ff565b610f14838383613498565b600060098581548110610f5f57610f5f6148ae565b600091825260208083209091015480835260089091526040909120600201549091506001600160a01b03858116911614611068576040805160a0810182526001600160a01b03868116825260208083018781528385018790526000606085018190523360808601528a8152600f835294852080546001808201835591875295839020855160059097020180546001600160a01b0319169690941695909517835551805193948594611017939185019290910190613c49565b5060408201518051611033916002840191602090910190613c49565b5060608201516003820155608090910151600490910180546001600160a01b0319166001600160a01b03909216919091179055505b5050505050565b6000818152600f60209081526040808320805482518185028101850190935280835260609493849084015b828210156112295760008481526020908190206040805160a081019091526005850290910180546001600160a01b0316825260018101805492939192918401916110e3906148c4565b80601f016020809104026020016040519081016040528092919081815260200182805461110f906148c4565b801561115c5780601f106111315761010080835404028352916020019161115c565b820191906000526020600020905b81548152906001019060200180831161113f57829003601f168201915b50505050508152602001600282018054611175906148c4565b80601f01602080910402602001604051908101604052809291908181526020018280546111a1906148c4565b80156111ee5780601f106111c3576101008083540402835291602001916111ee565b820191906000526020600020905b8154815290600101906020018083116111d157829003601f168201915b505050918352505060038201546020808301919091526004909201546001600160a01b0316604090910152908252600192909201910161109a565b50929695505050505050565b6060806000611242613ccd565b60006060600080600080600860008c81526020019081526020016000206040518061012001604052908160008201805461127b906148c4565b80601f01602080910402602001604051908101604052809291908181526020018280546112a7906148c4565b80156112f45780601f106112c9576101008083540402835291602001916112f4565b820191906000526020600020905b8154815290600101906020018083116112d757829003601f168201915b5050505050815260200160018201805461130d906148c4565b80601f0160208091040260200160405190810160405280929190818152602001828054611339906148c4565b80156113865780601f1061135b57610100808354040283529160200191611386565b820191906000526020600020905b81548152906001019060200180831161136957829003601f168201915b505050918352505060028201546001600160a01b03166020820152604080516060810182529101906003808401906000835b8282101561145b5783820180546113ce906148c4565b80601f01602080910402602001604051908101604052809291908181526020018280546113fa906148c4565b80156114475780601f1061141c57610100808354040283529160200191611447565b820191906000526020600020905b81548152906001019060200180831161142a57829003601f168201915b5050505050815260200190600101906113b8565b5050505081526020016006820154815260200160078201805461147d906148c4565b80601f01602080910402602001604051908101604052809291908181526020018280546114a9906148c4565b80156114f65780601f106114cb576101008083540402835291602001916114f6565b820191906000526020600020905b8154815290600101906020018083116114d957829003601f168201915b505050505081526020016008820154815260200160098201548152602001600a820154815250509050806000015181602001518260400151836060015184608001518560a001518660c001518760e00151886101000151995099509950995099509950995099509950509193959799909294969850565b6000818152600d60209081526040808320805482518185028101850190935280835260609493849084015b8282101561122957838290600052602060002090600602016040518060c0016040529081600082015481526020016001820180546115d5906148c4565b80601f0160208091040260200160405190810160405280929190818152602001828054611601906148c4565b801561164e5780601f106116235761010080835404028352916020019161164e565b820191906000526020600020905b81548152906001019060200180831161163157829003601f168201915b505050918352505060028201546001600160a01b0390811660208084019190915260038401549091166040830152600483015460608301526005909201546080909101529082526001929092019101611598565b60008060008060005b6000868152600a602052604090205481101561171e576000868152600a602052604090208054339190839081106116e4576116e46148ae565b60009182526020909120600290910201546001600160a01b0316141561170c57600192508091505b8061171681614962565b9150506116ab565b509094909350915050565b610f14838383604051806020016040528060008152506128c4565b6040805160c08101825284815260208082018581526001600160a01b0385168385015233606084015260006080840181905260a08401819052888152600d8352938420805460018181018355918652948390208451600690960201948555905180519394859490936117ba938501920190613c49565b5060408201516002820180546001600160a01b039283166001600160a01b03199182161790915560608401516003840180549190931691161790556080820151600482015560a0909101516005909101555050505050565b600080805b6000848152600a6020526040902054811015611887576000848152600a60205260409020805433919083908110611850576118506148ae565b60009182526020909120600290910201546001600160a01b0316141561187557600191505b8061187f81614962565b915050611817565b5092915050565b6118966135fc565b604080516101208101825288815260208082018990523382840152606082018890526080820187905260a082018690524260c083015260e0820185905261010082018490526007546000908152600882529290922081518051929384936119009284920190613c49565b5060208281015180516119199260018501920190613c49565b5060408201516002820180546001600160a01b0319166001600160a01b0390921691909117905560608201516119559060038084019190613cf4565b506080820151600682015560a0820151805161197b916007840191602090910190613c49565b5060c0820151816008015560e0820151816009015561010082015181600a01559050506119aa33600754613656565b600780549060006119ba83614962565b91905055505050505050505050565b6000818152600260205260408120546001600160a01b031680610b555760405162461bcd60e51b8152602060048201526018602482015277115490cdcc8c4e881a5b9d985b1a59081d1bdad95b88125160421b6044820152606401610c4c565b600e6020528160005260406000208181548110611a4557600080fd5b906000526020600020906005020160009150915050806000018054611a69906148c4565b80601f0160208091040260200160405190810160405280929190818152602001828054611a95906148c4565b8015611ae25780601f10611ab757610100808354040283529160200191611ae2565b820191906000526020600020905b815481529060010190602001808311611ac557829003601f168201915b5050505060018301546002840154600385015460049095015493946001600160a01b039092169390925085565b6060600a6000838152602001908152602001600020805480602002602001604051908101604052809291908181526020016000905b82821015611b8c576000848152602090819020604080518082019091526002850290910180546001600160a01b03168252600190810154828401529083529092019101611b44565b505050509050919050565b60006001600160a01b038216611c015760405162461bcd60e51b815260206004820152602960248201527f4552433732313a2061646472657373207a65726f206973206e6f7420612076616044820152683634b21037bbb732b960b91b6064820152608401610c4c565b506001600160a01b031660009081526003602052604090205490565b611c256135fc565b611c2f6000613670565b565b6000828152600f60205260408120805483908110611c5157611c516148ae565b90600052602060002090600502016003015490506000600f60008581526020019081526020016000208381548110611c8b57611c8b6148ae565b60009182526020909120600590910201546001600160a01b03169050338114610d445760005b6000858152600a6020526040902054811015611068576000858152600a60205260409020805482908110611ce757611ce76148ae565b60009182526020909120600290910201546001600160a01b0383811691161415611ea0576000858152600a60205260408120805483908110611d2b57611d2b6148ae565b600091825260208220600160029092020101549150611d4a828661497d565b90506000611d5983606461497d565b9050600a611d68826008614994565b611d7291906149b3565b821115611d8857611d8388856136c2565b611e9c565b60005b6000898152600a6020526040902054811015611e9a576000898152600a60205260409020805433919083908110611dc457611dc46148ae565b60009182526020909120600290910201546001600160a01b03161415611e88576000898152600a60205260409020805482908110611e0457611e046148ae565b906000526020600020906002020160010154600f60008b81526020019081526020016000208981548110611e3a57611e3a6148ae565b90600052602060002090600502016003016000828254611e5a91906149d5565b90915550600a9050611e6d836008614994565b611e7791906149b3565b831115611e8857611e8889866136c2565b80611e9281614962565b915050611d8b565b505b5050505b80611eaa81614962565b915050611cb1565b6000818152600e60209081526040808320805482518185028101850190935280835260609493849084015b8282101561122957838290600052602060002090600502016040518060a0016040529081600082018054611f10906148c4565b80601f0160208091040260200160405190810160405280929190818152602001828054611f3c906148c4565b8015611f895780601f10611f5e57610100808354040283529160200191611f89565b820191906000526020600020905b815481529060010190602001808311611f6c57829003601f168201915b50505091835250506001828101546001600160a01b0316602080840191909152600284015460408401526003840154606084015260049093015460809092019190915291835292019101611edd565b606060018054610d59906148c4565b6105f4338383613707565b6000600b8281548110612007576120076148ae565b90600052602060002090600402016000015490506000600b8381548110612030576120306148ae565b90600052602060002090600402016001015490506000600b8481548110612059576120596148ae565b600091825260209091206003600490920201015490503361207b6064836149b3565b6000858152600860205260409020600601546120979190614994565b34146120a257600080fd5b6000848152600a602052604090208054839190859081106120c5576120c56148ae565b906000526020600020906002020160010160008282546120e5919061497d565b90915550506000848152600a6020526040902080548490811061210a5761210a6148ae565b9060005260206000209060020201600101546000141561217a576000848152600a60205260409020805433919085908110612147576121476148ae565b6000918252602090912060029091020180546001600160a01b0319166001600160a01b03929092169190911790556121d7565b6040805180820182526001600160a01b03838116825260208083018681526000898152600a8352948520805460018082018355918752929095209351600290920290930180546001600160a01b0319169190921617815590519101555b600b85815481106121ea576121ea6148ae565b600091825260208220600490910201818155600181018290556002810180546001600160a01b031916905560030155505050505b50565b6000818152600c60209081526040808320805482518185028101850190935280835260609493849084015b82821015611229578382906000526020600020906004020160405180608001604052908160008201805461227f906148c4565b80601f01602080910402602001604051908101604052809291908181526020018280546122ab906148c4565b80156122f85780601f106122cd576101008083540402835291602001916122f8565b820191906000526020600020905b8154815290600101906020018083116122db57829003601f168201915b50505091835250506001828101546001600160a01b0316602080840191909152600284015460408401526003909301546060909201919091529183529201910161224c565b60005b6000848152600a6020526040902054811015610d44576000848152600a60205260409020805433919083908110612379576123796148ae565b60009182526020909120600290910201546001600160a01b031614156125a2576000848152600a602052604081208054839081106123b9576123b96148ae565b90600052602060002090600202016001015490506000600e600087815260200190815260200160002085815481106123f3576123f36148ae565b90600052602060002090600502016003015490506000600e6000888152602001908152602001600020868154811061242d5761242d6148ae565b90600052602060002090600502016004015490506000600e60008981526020019081526020016000208781548110612467576124676148ae565b60009182526020808320600160059093020191909101548a8352600e9091526040822080546001600160a01b03909216935090899081106124aa576124aa6148ae565b90600052602060002090600502016002015490506032841080156124ce5750603283105b1561256a578615612527576000898152600e6020526040902080548691908a9081106124fc576124fc6148ae565b9060005260206000209060050201600301600082825461251c91906149d5565b9091555061259c9050565b6000898152600e6020526040902080548691908a90811061254a5761254a6148ae565b9060005260206000209060050201600401600082825461251c91906149d5565b83603214801561257a5750826032145b156125845761259c565b60328411806125935750603283115b61259c57600080fd5b50505050505b806125ac81614962565b915050612340565b6000828152600c602052604081208054839081106125d4576125d46148ae565b90600052602060002090600402016002015490506000600c6000858152602001908152602001600020838154811061260e5761260e6148ae565b90600052602060002090600402016003015490506032821080156126325750603281105b1561263c57610d44565b816032148015611068575050505050565b60005b6000848152600a6020526040902054811015610d44576000848152600a60205260409020805433919083908110612689576126896148ae565b60009182526020909120600290910201546001600160a01b031614156128b2576000848152600a602052604081208054839081106126c9576126c96148ae565b90600052602060002090600202016001015490506000600d60008781526020019081526020016000208581548110612703576127036148ae565b90600052602060002090600602016004015490506000600d6000888152602001908152602001600020868154811061273d5761273d6148ae565b90600052602060002090600602016005015490506000600d60008981526020019081526020016000208781548110612777576127776148ae565b60009182526020808320600260069093020191909101548a8352600d9091526040822080546001600160a01b03909216935090899081106127ba576127ba6148ae565b90600052602060002090600602016000015490506032841080156127de5750603283105b1561287a578615612837576000898152600d6020526040902080548691908a90811061280c5761280c6148ae565b9060005260206000209060060201600401600082825461282c91906149d5565b909155506128ac9050565b6000898152600d6020526040902080548691908a90811061285a5761285a6148ae565b9060005260206000209060060201600501600082825461282c91906149d5565b83603214801561288a5750826032145b15612894576128ac565b60328411806128a35750603283115b6128ac57600080fd5b50505050505b806128bc81614962565b915050612650565b6128ce3383613419565b6128ea5760405162461bcd60e51b8152600401610c4c906148ff565b610d44848484846137d6565b6040805160a0810182528481526001600160a01b03841660208083019190915281830184905260006060830181905260808301819052878152600e8252928320805460018101825590845292819020825180519394859460059091029092019261296592849290910190613c49565b5060208201516001820180546001600160a01b0319166001600160a01b0390921691909117905560408201516002820155606082015160038201556080909101516004909101555050505050565b60606129be8261334c565b60006129d560408051602081019091526000815290565b905060008151116129f55760405180602001604052806000815250612a20565b806129ff84613809565b604051602001612a109291906149ed565b6040516020818303038152906040525b9392505050565b600f6020528160005260406000208181548110612a4357600080fd5b6000918252602090912060059091020180546001820180546001600160a01b039092169450919250612a74906148c4565b80601f0160208091040260200160405190810160405280929190818152602001828054612aa0906148c4565b8015612aed5780601f10612ac257610100808354040283529160200191612aed565b820191906000526020600020905b815481529060010190602001808311612ad057829003601f168201915b505050505090806002018054612b02906148c4565b80601f0160208091040260200160405190810160405280929190818152602001828054612b2e906148c4565b8015612b7b5780601f10612b5057610100808354040283529160200191612b7b565b820191906000526020600020905b815481529060010190602001808311612b5e57829003601f168201915b5050505060038301546004909301549192916001600160a01b0316905085565b6000828152600260205260409020546001600160a01b0316612bf25760405162461bcd60e51b815260206004820152601060248201526f125b9d985b1a5908151bdad95b88125960821b6044820152606401610c4c565b6000828152600860205260409020600a01548110612c475760405162461bcd60e51b8152602060048201526012602482015271496e737566666963656e742073686172657360701b6044820152606401610c4c565b612c526064826149b3565b600083815260086020526040902060060154612c6e9190614994565b3414612cb25760405162461bcd60e51b8152602060048201526013602482015272496e737566666963656e742042616c616e636560681b6044820152606401610c4c565b600160005b6000848152600a6020526040902054811015612d77576000848152600a60205260409020805433919083908110612cf057612cf06148ae565b60009182526020909120600290910201546001600160a01b03161415612d60576000848152600a602052604081208054919350849183908110612d3557612d356148ae565b90600052602060002090600202016001016000828254612d5591906149d5565b90915550612d659050565b600191505b80612d6f81614962565b915050612cb7565b508015610f145760408051808201825233815260208082018581526000878152600a808452858220805460018082018355918452858420875160029092020180546001600160a01b0319166001600160a01b0390921691909117815593519301929092558781526008909252928120909201805491928592612dfa90849061497d565b909155505050505050565b612e0d6135fc565b6001600160a01b038116612e725760405162461bcd60e51b815260206004820152602660248201527f4f776e61626c653a206e6577206f776e657220697320746865207a65726f206160448201526564647265737360d01b6064820152608401610c4c565b61221e81613670565b600860205260009081526040902080548190612e96906148c4565b80601f0160208091040260200160405190810160405280929190818152602001828054612ec2906148c4565b8015612f0f5780601f10612ee457610100808354040283529160200191612f0f565b820191906000526020600020905b815481529060010190602001808311612ef257829003601f168201915b505050505090806001018054612f24906148c4565b80601f0160208091040260200160405190810160405280929190818152602001828054612f50906148c4565b8015612f9d5780601f10612f7257610100808354040283529160200191612f9d565b820191906000526020600020905b815481529060010190602001808311612f8057829003601f168201915b505050506002830154600684015460078501805494956001600160a01b039093169491935090612fcc906148c4565b80601f0160208091040260200160405190810160405280929190818152602001828054612ff8906148c4565b80156130455780601f1061301a57610100808354040283529160200191613045565b820191906000526020600020905b81548152906001019060200180831161302857829003601f168201915b50505050509080600801549080600901549080600a0154905088565b6040805160808101825282815233602080830191909152600082840181905260608301819052858152600c825292832080546001810182559084529281902082518051939485946004909102909201926130c092849290910190613c49565b5060208201516001820180546001600160a01b0319166001600160a01b0390921691909117905560408201516002820155606090910151600390910155505050565b6000806000806000600b868154811061311d5761311d6148ae565b6000918252602091829020604080516080810182526004939093029091018054808452600182015494840185905260028201546001600160a01b03169284018390526003909101546060909301839052999298509650945092505050565b600d602052816000526040600020818154811061319757600080fd5b9060005260206000209060060201600091509150508060000154908060010180546131c1906148c4565b80601f01602080910402602001604051908101604052809291908181526020018280546131ed906148c4565b801561323a5780601f1061320f5761010080835404028352916020019161323a565b820191906000526020600020905b81548152906001019060200180831161321d57829003601f168201915b5050505060028301546003840154600485015460059095015493946001600160a01b03928316949290911692509086565b600c602052816000526040600020818154811061328757600080fd5b9060005260206000209060040201600091509150508060000180546132ab906148c4565b80601f01602080910402602001604051908101604052809291908181526020018280546132d7906148c4565b80156133245780601f106132f957610100808354040283529160200191613324565b820191906000526020600020905b81548152906001019060200180831161330757829003601f168201915b505050506001830154600284015460039094015492936001600160a01b039091169290915084565b6000818152600260205260409020546001600160a01b031661221e5760405162461bcd60e51b8152602060048201526018602482015277115490cdcc8c4e881a5b9d985b1a59081d1bdad95b88125160421b6044820152606401610c4c565b600081815260046020526040902080546001600160a01b0319166001600160a01b03841690811790915581906133e0826119c9565b6001600160a01b03167f8c5be1e5ebec7d5bd14f71427d1e84f3dd0314c0f7b2291e5b200ac8c7c3b92560405160405180910390a45050565b600080613425836119c9565b9050806001600160a01b0316846001600160a01b0316148061346c57506001600160a01b0380821660009081526005602090815260408083209388168352929052205460ff165b806134905750836001600160a01b031661348584610ddc565b6001600160a01b0316145b949350505050565b826001600160a01b03166134ab826119c9565b6001600160a01b0316146134d15760405162461bcd60e51b8152600401610c4c90614a1c565b6001600160a01b0382166135335760405162461bcd60e51b8152602060048201526024808201527f4552433732313a207472616e7366657220746f20746865207a65726f206164646044820152637265737360e01b6064820152608401610c4c565b826001600160a01b0316613546826119c9565b6001600160a01b03161461356c5760405162461bcd60e51b8152600401610c4c90614a1c565b600081815260046020908152604080832080546001600160a01b03199081169091556001600160a01b0387811680865260038552838620805460001901905590871680865283862080546001019055868652600290945282852080549092168417909155905184937fddf252ad1be2c89b69c2b068fc378daa952ba7f163c4a11628f55a4df523b3ef91a4505050565b6006546001600160a01b03163314611c2f5760405162461bcd60e51b815260206004820181905260248201527f4f776e61626c653a2063616c6c6572206973206e6f7420746865206f776e65726044820152606401610c4c565b6105f48282604051806020016040528060008152506138a6565b600680546001600160a01b038381166001600160a01b0319831681179093556040519116919082907f8be0079c531659141344cd1fd0a4f28419497f9722a3daafe3b4186f6b6457e090600090a35050565b6000828152600a602052604090208054829081106136e2576136e26148ae565b60009182526020822060029091020180546001600160a01b0319168155600101555050565b816001600160a01b0316836001600160a01b031614156137695760405162461bcd60e51b815260206004820152601960248201527f4552433732313a20617070726f766520746f2063616c6c6572000000000000006044820152606401610c4c565b6001600160a01b03838116600081815260056020908152604080832094871680845294825291829020805460ff191686151590811790915591519182527f17307eab39ab6107e8899845ad3d59bd9653f200f220920489ca2b5937696c31910160405180910390a3505050565b6137e1848484613498565b6137ed848484846138d9565b610d445760405162461bcd60e51b8152600401610c4c90614a61565b60606000613816836139e6565b600101905060008167ffffffffffffffff81111561383657613836613f07565b6040519080825280601f01601f191660200182016040528015613860576020820181803683370190505b5090508181016020015b600019016f181899199a1a9b1b9c1cb0b131b232b360811b600a86061a8153600a85049450846138995761389e565b61386a565b509392505050565b6138b08383613abe565b6138bd60008484846138d9565b610f145760405162461bcd60e51b8152600401610c4c90614a61565b60006001600160a01b0384163b156139db57604051630a85bd0160e11b81526001600160a01b0385169063150b7a029061391d903390899088908890600401614ab3565b602060405180830381600087803b15801561393757600080fd5b505af1925050508015613967575060408051601f3d908101601f1916820190925261396491810190614af0565b60015b6139c1573d808015613995576040519150601f19603f3d011682016040523d82523d6000602084013e61399a565b606091505b5080516139b95760405162461bcd60e51b8152600401610c4c90614a61565b805181602001fd5b6001600160e01b031916630a85bd0160e11b149050613490565b506001949350505050565b60008072184f03e93ff9f4daa797ed6e38ed64bf6a1f0160401b8310613a255772184f03e93ff9f4daa797ed6e38ed64bf6a1f0160401b830492506040015b6d04ee2d6d415b85acef81000000008310613a51576d04ee2d6d415b85acef8100000000830492506020015b662386f26fc100008310613a6f57662386f26fc10000830492506010015b6305f5e1008310613a87576305f5e100830492506008015b6127108310613a9b57612710830492506004015b60648310613aad576064830492506002015b600a8310610b555760010192915050565b6001600160a01b038216613b145760405162461bcd60e51b815260206004820181905260248201527f4552433732313a206d696e7420746f20746865207a65726f20616464726573736044820152606401610c4c565b6000818152600260205260409020546001600160a01b031615613b795760405162461bcd60e51b815260206004820152601c60248201527f4552433732313a20746f6b656e20616c7265616479206d696e746564000000006044820152606401610c4c565b6000818152600260205260409020546001600160a01b031615613bde5760405162461bcd60e51b815260206004820152601c60248201527f4552433732313a20746f6b656e20616c7265616479206d696e746564000000006044820152606401610c4c565b6001600160a01b038216600081815260036020908152604080832080546001019055848352600290915280822080546001600160a01b0319168417905551839291907fddf252ad1be2c89b69c2b068fc378daa952ba7f163c4a11628f55a4df523b3ef908290a45050565b828054613c55906148c4565b90600052602060002090601f016020900481019282613c775760008555613cbd565b82601f10613c9057805160ff1916838001178555613cbd565b82800160010185558215613cbd579182015b82811115613cbd578251825591602001919060010190613ca2565b50613cc9929150613d40565b5090565b60405180606001604052806003905b6060815260200190600190039081613cdc5790505090565b8260038101928215613d34579160200282015b82811115613d345782518051613d24918491602090910190613c49565b5091602001919060010190613d07565b50613cc9929150613d55565b5b80821115613cc95760008155600101613d41565b80821115613cc9576000613d698282613d72565b50600101613d55565b508054613d7e906148c4565b6000825580601f10613d8e575050565b601f01602090049060005260206000209081019061221e9190613d40565b60008060408385031215613dbf57600080fd5b50508035926020909101359150565b6001600160e01b03198116811461221e57600080fd5b600060208284031215613df657600080fd5b8135612a2081613dce565b600060208284031215613e1357600080fd5b5035919050565b60005b83811015613e35578181015183820152602001613e1d565b83811115610d445750506000910152565b60008151808452613e5e816020860160208601613e1a565b601f01601f19169290920160200192915050565b602081526000612a206020830184613e46565b80356001600160a01b0381168114613e9c57600080fd5b919050565b60008060408385031215613eb457600080fd5b613ebd83613e85565b946020939093013593505050565b600080600060608486031215613ee057600080fd5b613ee984613e85565b9250613ef760208501613e85565b9150604084013590509250925092565b634e487b7160e01b600052604160045260246000fd5b600067ffffffffffffffff80841115613f3857613f38613f07565b604051601f8501601f19908116603f01168101908282118183101715613f6057613f60613f07565b81604052809350858152868686011115613f7957600080fd5b858560208301376000602087830101525050509392505050565b600082601f830112613fa457600080fd5b612a2083833560208501613f1d565b60008060008060808587031215613fc957600080fd5b84359350613fd960208601613e85565b9250604085013567ffffffffffffffff80821115613ff657600080fd5b61400288838901613f93565b9350606087013591508082111561401857600080fd5b5061402587828801613f93565b91505092959194509250565b60006020808301818452808551808352604092508286019150828160051b87010184880160005b838110156140da57888303603f19018552815180516001600160a01b0390811685528882015160a08a8701819052919061409483880182613e46565b925050888301518683038a8801526140ac8382613e46565b6060858101519089015260809485015190921693909601929092525094870194925090860190600101614058565b509098975050505050505050565b60006101208083526140fc8184018d613e46565b9050602083820381850152614111828d613e46565b6001600160a01b038c166040860152848103606080870191909152909250829081018b60005b6003811015614162578583038452614150838351613e46565b93850193925090840190600101614137565b50508a608087015285810360a087015261417c818b613e46565b60c08701999099525050505060e08201939093526101000152509695505050505050565b60006020808301818452808551808352604092508286019150828160051b87010184880160005b838110156140da57603f19898403018552815160c08151855288820151818a8701526141f582870182613e46565b898401516001600160a01b03908116888c0152606080860151909116908801526080808501519088015260a0938401519390960192909252505093860193908601906001016141c7565b6000806000806080858703121561425557600080fd5b8435935060208501359250604085013567ffffffffffffffff81111561427a57600080fd5b61428687828801613f93565b92505061429560608601613e85565b905092959194509250565b600082601f8301126142b157600080fd5b6040516060810167ffffffffffffffff82821081831117156142d5576142d5613f07565b8160405282915060608501868111156142ed57600080fd5b855b81811015611229578035838111156143075760008081fd5b61431389828a01613f93565b855250602093840193016142ef565b600080600080600080600060e0888a03121561433d57600080fd5b873567ffffffffffffffff8082111561435557600080fd5b6143618b838c01613f93565b985060208a013591508082111561437757600080fd5b6143838b838c01613f93565b975060408a013591508082111561439957600080fd5b6143a58b838c016142a0565b965060608a0135955060808a01359150808211156143c257600080fd5b506143cf8a828b01613f93565b93505060a0880135915060c0880135905092959891949750929550565b60a0815260006143ff60a0830188613e46565b6001600160a01b039690961660208301525060408101939093526060830191909152608090910152919050565b602080825282518282018190526000919060409081850190868401855b8281101561447757815180516001600160a01b03168552860151868501529284019290850190600101614449565b5091979650505050505050565b60006020828403121561449657600080fd5b612a2082613e85565b60006020808301818452808551808352604092508286019150828160051b87010184880160005b838110156140da57603f19898403018552815160a081518186526144ec82870182613e46565b838b01516001600160a01b0316878c0152898401518a880152606080850151908801526080938401519390960192909252505093860193908601906001016144c6565b80358015158114613e9c57600080fd5b6000806040838503121561455257600080fd5b61455b83613e85565b91506145696020840161452f565b90509250929050565b60006020808301818452808551808352604092508286019150828160051b87010184880160005b838110156140da57603f198984030185528151608081518186526145bf82870182613e46565b838b01516001600160a01b0316878c0152898401518a880152606093840151939096019290925250509386019390860190600101614599565b60008060006060848603121561460d57600080fd5b83359250602084013591506146246040850161452f565b90509250925092565b6000806000806080858703121561464357600080fd5b61464c85613e85565b935061465a60208601613e85565b925060408501359150606085013567ffffffffffffffff81111561467d57600080fd5b8501601f8101871361468e57600080fd5b61402587823560208401613f1d565b600080600080608085870312156146b357600080fd5b84359350602085013567ffffffffffffffff8111156146d157600080fd5b6146dd87828801613f93565b9350506146ec60408601613e85565b9396929550929360600135925050565b600060018060a01b03808816835260a0602084015261471e60a0840188613e46565b83810360408501526147308188613e46565b60608501969096525092909216608090910152509392505050565b6000806040838503121561475e57600080fd5b61476783613e85565b915061456960208401613e85565b60006101008083526147898184018c613e46565b9050828103602084015261479d818b613e46565b6001600160a01b038a16604085015260608401899052838103608085015290506147c78188613e46565b60a0840196909652505060c081019290925260e09091015295945050505050565b600080604083850312156147fb57600080fd5b82359150602083013567ffffffffffffffff81111561481957600080fd5b61482585828601613f93565b9150509250929050565b86815260c06020820152600061484860c0830188613e46565b6001600160a01b039687166040840152949095166060820152608081019290925260a0909101529392505050565b6080815260006148896080830187613e46565b6001600160a01b03959095166020830152506040810192909252606090910152919050565b634e487b7160e01b600052603260045260246000fd5b600181811c908216806148d857607f821691505b602082108114156148f957634e487b7160e01b600052602260045260246000fd5b50919050565b6020808252602d908201527f4552433732313a2063616c6c6572206973206e6f7420746f6b656e206f776e6560408201526c1c881bdc88185c1c1c9bdd9959609a1b606082015260800190565b634e487b7160e01b600052601160045260246000fd5b60006000198214156149765761497661494c565b5060010190565b60008282101561498f5761498f61494c565b500390565b60008160001904831182151516156149ae576149ae61494c565b500290565b6000826149d057634e487b7160e01b600052601260045260246000fd5b500490565b600082198211156149e8576149e861494c565b500190565b600083516149ff818460208801613e1a565b835190830190614a13818360208801613e1a565b01949350505050565b60208082526025908201527f4552433732313a207472616e736665722066726f6d20696e636f72726563742060408201526437bbb732b960d91b606082015260800190565b60208082526032908201527f4552433732313a207472616e7366657220746f206e6f6e20455243373231526560408201527131b2b4bb32b91034b6b83632b6b2b73a32b960711b606082015260800190565b6001600160a01b0385811682528416602082015260408101839052608060608201819052600090614ae690830184613e46565b9695505050505050565b600060208284031215614b0257600080fd5b8151612a2081613dce56fea2646970667358221220ecf982ec0169dc980492ff2362e13b0b0454fcc1a84eadcf8d4cc19e6c337dff64736f6c63430008090033","opcodes":"PUSH1 0x80 PUSH1 0x40 MSTORE CALLVALUE DUP1 ISZERO PUSH3 0x11 JUMPI PUSH1 0x0 DUP1 REVERT JUMPDEST POP PUSH1 0x40 DUP1 MLOAD DUP1 DUP3 ADD DUP3 MSTORE PUSH1 0x10 DUP2 MSTORE PUSH16 0x141C9BDC195C9D1E50DBDB9D1C9858DD PUSH1 0x82 SHL PUSH1 0x20 DUP1 DUP4 ADD SWAP2 DUP3 MSTORE DUP4 MLOAD DUP1 DUP6 ADD SWAP1 SWAP5 MSTORE PUSH1 0x2 DUP5 MSTORE PUSH2 0x5245 PUSH1 0xF0 SHL SWAP1 DUP5 ADD MSTORE DUP2 MLOAD SWAP2 SWAP3 SWAP2 PUSH3 0x64 SWAP2 PUSH1 0x0 SWAP2 PUSH3 0xF8 JUMP JUMPDEST POP DUP1 MLOAD PUSH3 0x7A SWAP1 PUSH1 0x1 SWAP1 PUSH1 0x20 DUP5 ADD SWAP1 PUSH3 0xF8 JUMP JUMPDEST POP POP POP PUSH3 0x97 PUSH3 0x91 PUSH3 0xA2 PUSH1 0x20 SHL PUSH1 0x20 SHR JUMP JUMPDEST PUSH3 0xA6 JUMP JUMPDEST PUSH1 0x1 PUSH1 0x7 SSTORE PUSH3 0x1DB JUMP JUMPDEST CALLER SWAP1 JUMP JUMPDEST PUSH1 0x6 DUP1 SLOAD PUSH1 0x1 PUSH1 0x1 PUSH1 0xA0 SHL SUB DUP4 DUP2 AND PUSH1 0x1 PUSH1 0x1 PUSH1 0xA0 SHL SUB NOT DUP4 AND DUP2 OR SWAP1 SWAP4 SSTORE PUSH1 0x40 MLOAD SWAP2 AND SWAP2 SWAP1 DUP3 SWAP1 PUSH32 0x8BE0079C531659141344CD1FD0A4F28419497F9722A3DAAFE3B4186F6B6457E0 SWAP1 PUSH1 0x0 SWAP1 LOG3 POP POP JUMP JUMPDEST DUP3 DUP1 SLOAD PUSH3 0x106 SWAP1 PUSH3 0x19E JUMP JUMPDEST SWAP1 PUSH1 0x0 MSTORE PUSH1 0x20 PUSH1 0x0 KECCAK256 SWAP1 PUSH1 0x1F ADD PUSH1 0x20 SWAP1 DIV DUP2 ADD SWAP3 DUP3 PUSH3 0x12A JUMPI PUSH1 0x0 DUP6 SSTORE PUSH3 0x175 JUMP JUMPDEST DUP3 PUSH1 0x1F LT PUSH3 0x145 JUMPI DUP1 MLOAD PUSH1 0xFF NOT AND DUP4 DUP1 ADD OR DUP6 SSTORE PUSH3 0x175 JUMP JUMPDEST DUP3 DUP1 ADD PUSH1 0x1 ADD DUP6 SSTORE DUP3 ISZERO PUSH3 0x175 JUMPI SWAP2 DUP3 ADD JUMPDEST DUP3 DUP2 GT ISZERO PUSH3 0x175 JUMPI DUP3 MLOAD DUP3 SSTORE SWAP2 PUSH1 0x20 ADD SWAP2 SWAP1 PUSH1 0x1 ADD SWAP1 PUSH3 0x158 JUMP JUMPDEST POP PUSH3 0x183 SWAP3 SWAP2 POP PUSH3 0x187 JUMP JUMPDEST POP SWAP1 JUMP JUMPDEST JUMPDEST DUP1 DUP3 GT ISZERO PUSH3 0x183 JUMPI PUSH1 0x0 DUP2 SSTORE PUSH1 0x1 ADD PUSH3 0x188 JUMP JUMPDEST PUSH1 0x1 DUP2 DUP2 SHR SWAP1 DUP3 AND DUP1 PUSH3 0x1B3 JUMPI PUSH1 0x7F DUP3 AND SWAP2 POP JUMPDEST PUSH1 0x20 DUP3 LT DUP2 EQ ISZERO PUSH3 0x1D5 JUMPI PUSH4 0x4E487B71 PUSH1 0xE0 SHL PUSH1 0x0 MSTORE PUSH1 0x22 PUSH1 0x4 MSTORE PUSH1 0x24 PUSH1 0x0 REVERT JUMPDEST POP SWAP2 SWAP1 POP JUMP JUMPDEST PUSH2 0x4B43 DUP1 PUSH3 0x1EB PUSH1 0x0 CODECOPY PUSH1 0x0 RETURN INVALID PUSH1 0x80 PUSH1 0x40 MSTORE PUSH1 0x4 CALLDATASIZE LT PUSH2 0x2E4 JUMPI PUSH1 0x0 CALLDATALOAD PUSH1 0xE0 SHR DUP1 PUSH4 0x715018A6 GT PUSH2 0x190 JUMPI DUP1 PUSH4 0xB88D4FDE GT PUSH2 0xDC JUMPI DUP1 PUSH4 0xE985E9C5 GT PUSH2 0x95 JUMPI DUP1 PUSH4 0xF8D35630 GT PUSH2 0x6F JUMPI DUP1 PUSH4 0xF8D35630 EQ PUSH2 0x9F2 JUMPI DUP1 PUSH4 0xF9689D58 EQ PUSH2 0xA12 JUMPI DUP1 PUSH4 0xF9B1FB48 EQ PUSH2 0xA61 JUMPI DUP1 PUSH4 0xFD040AC7 EQ PUSH2 0xA93 JUMPI PUSH1 0x0 DUP1 REVERT JUMPDEST DUP1 PUSH4 0xE985E9C5 EQ PUSH2 0x955 JUMPI DUP1 PUSH4 0xF2FDE38B EQ PUSH2 0x99E JUMPI DUP1 PUSH4 0xF7B10808 EQ PUSH2 0x9BE JUMPI PUSH1 0x0 DUP1 REVERT JUMPDEST DUP1 PUSH4 0xB88D4FDE EQ PUSH2 0x8B1 JUMPI DUP1 PUSH4 0xBC93E759 EQ PUSH2 0x8D1 JUMPI DUP1 PUSH4 0xC87B56DD EQ PUSH2 0x8F1 JUMPI DUP1 PUSH4 0xD70080CC EQ PUSH2 0x911 JUMPI DUP1 PUSH4 0xD87AA643 EQ PUSH2 0x942 JUMPI DUP1 PUSH4 0xE6BEDED8 EQ PUSH2 0x5D9 JUMPI PUSH1 0x0 DUP1 REVERT JUMPDEST DUP1 PUSH4 0x95D89B41 GT PUSH2 0x149 JUMPI DUP1 PUSH4 0xAF754848 GT PUSH2 0x123 JUMPI DUP1 PUSH4 0xAF754848 EQ PUSH2 0x824 JUMPI DUP1 PUSH4 0xB2DF9EF1 EQ PUSH2 0x851 JUMPI DUP1 PUSH4 0xB384ABEF EQ PUSH2 0x871 JUMPI DUP1 PUSH4 0xB5229ABE EQ PUSH2 0x891 JUMPI PUSH1 0x0 DUP1 REVERT JUMPDEST DUP1 PUSH4 0x95D89B41 EQ PUSH2 0x7DC JUMPI DUP1 PUSH4 0xA22CB465 EQ PUSH2 0x7F1 JUMPI DUP1 PUSH4 0xA9ED6E9A EQ PUSH2 0x811 JUMPI PUSH1 0x0 DUP1 REVERT JUMPDEST DUP1 PUSH4 0x715018A6 EQ PUSH2 0x731 JUMPI DUP1 PUSH4 0x7326B901 EQ PUSH2 0x746 JUMPI DUP1 PUSH4 0x73368DD2 EQ PUSH2 0x75B JUMPI DUP1 PUSH4 0x75794A3C EQ PUSH2 0x77B JUMPI DUP1 PUSH4 0x8DA5CB5B EQ PUSH2 0x791 JUMPI DUP1 PUSH4 0x91DCAC52 EQ PUSH2 0x7AF JUMPI PUSH1 0x0 DUP1 REVERT JUMPDEST DUP1 PUSH4 0x38F36F5B GT PUSH2 0x24F JUMPI DUP1 PUSH4 0x58335EF3 GT PUSH2 0x208 JUMPI DUP1 PUSH4 0x65186D5F GT PUSH2 0x1E2 JUMPI DUP1 PUSH4 0x65186D5F EQ PUSH2 0x678 JUMPI DUP1 PUSH4 0x6E9D0118 EQ PUSH2 0x6B3 JUMPI DUP1 PUSH4 0x6F7267B7 EQ PUSH2 0x6E4 JUMPI DUP1 PUSH4 0x70A08231 EQ PUSH2 0x711 JUMPI PUSH1 0x0 DUP1 REVERT JUMPDEST DUP1 PUSH4 0x58335EF3 EQ PUSH2 0x618 JUMPI DUP1 PUSH4 0x625E4E83 EQ PUSH2 0x638 JUMPI DUP1 PUSH4 0x6352211E EQ PUSH2 0x658 JUMPI PUSH1 0x0 DUP1 REVERT JUMPDEST DUP1 PUSH4 0x38F36F5B EQ PUSH2 0x4DE JUMPI DUP1 PUSH4 0x3BBC7B0B EQ PUSH2 0x50B JUMPI DUP1 PUSH4 0x418A6636 EQ PUSH2 0x582 JUMPI DUP1 PUSH4 0x42842E0E EQ PUSH2 0x5B9 JUMPI DUP1 PUSH4 0x494666B6 EQ PUSH2 0x5D9 JUMPI DUP1 PUSH4 0x53557D28 EQ PUSH2 0x5F8 JUMPI PUSH1 0x0 DUP1 REVERT JUMPDEST DUP1 PUSH4 0x95EA7B3 GT PUSH2 0x2A1 JUMPI DUP1 PUSH4 0x95EA7B3 EQ PUSH2 0x407 JUMPI DUP1 PUSH4 0x23B872DD EQ PUSH2 0x427 JUMPI DUP1 PUSH4 0x2A8092CB EQ PUSH2 0x447 JUMPI DUP1 PUSH4 0x2BABEB40 EQ PUSH2 0x45C JUMPI DUP1 PUSH4 0x30F703A3 EQ PUSH2 0x47C JUMPI DUP1 PUSH4 0x32665FFB EQ PUSH2 0x4A9 JUMPI PUSH1 0x0 DUP1 REVERT JUMPDEST DUP1 PUSH4 0x1BEE1D6 EQ PUSH2 0x2E9 JUMPI DUP1 PUSH4 0x1FFC9A7 EQ PUSH2 0x32D JUMPI DUP1 PUSH4 0x3747B80 EQ PUSH2 0x35D JUMPI DUP1 PUSH4 0x519E975 EQ PUSH2 0x38B JUMPI DUP1 PUSH4 0x6FDDE03 EQ PUSH2 0x3AD JUMPI DUP1 PUSH4 0x81812FC EQ PUSH2 0x3CF JUMPI JUMPDEST PUSH1 0x0 DUP1 REVERT JUMPDEST CALLVALUE DUP1 ISZERO PUSH2 0x2F5 JUMPI PUSH1 0x0 DUP1 REVERT JUMPDEST POP PUSH2 0x309 PUSH2 0x304 CALLDATASIZE PUSH1 0x4 PUSH2 0x3DAC JUMP JUMPDEST PUSH2 0xAC3 JUMP JUMPDEST PUSH1 0x40 DUP1 MLOAD PUSH1 0x1 PUSH1 0x1 PUSH1 0xA0 SHL SUB SWAP1 SWAP4 AND DUP4 MSTORE PUSH1 0x20 DUP4 ADD SWAP2 SWAP1 SWAP2 MSTORE ADD JUMPDEST PUSH1 0x40 MLOAD DUP1 SWAP2 SUB SWAP1 RETURN JUMPDEST CALLVALUE DUP1 ISZERO PUSH2 0x339 JUMPI PUSH1 0x0 DUP1 REVERT JUMPDEST POP PUSH2 0x34D PUSH2 0x348 CALLDATASIZE PUSH1 0x4 PUSH2 0x3DE4 JUMP JUMPDEST PUSH2 0xB09 JUMP JUMPDEST PUSH1 0x40 MLOAD SWAP1 ISZERO ISZERO DUP2 MSTORE PUSH1 0x20 ADD PUSH2 0x324 JUMP JUMPDEST CALLVALUE DUP1 ISZERO PUSH2 0x369 JUMPI PUSH1 0x0 DUP1 REVERT JUMPDEST POP PUSH2 0x37D PUSH2 0x378 CALLDATASIZE PUSH1 0x4 PUSH2 0x3E01 JUMP JUMPDEST PUSH2 0xB5B JUMP JUMPDEST PUSH1 0x40 MLOAD SWAP1 DUP2 MSTORE PUSH1 0x20 ADD PUSH2 0x324 JUMP JUMPDEST CALLVALUE DUP1 ISZERO PUSH2 0x397 JUMPI PUSH1 0x0 DUP1 REVERT JUMPDEST POP PUSH2 0x3AB PUSH2 0x3A6 CALLDATASIZE PUSH1 0x4 PUSH2 0x3DAC JUMP JUMPDEST PUSH2 0xB7C JUMP JUMPDEST STOP JUMPDEST CALLVALUE DUP1 ISZERO PUSH2 0x3B9 JUMPI PUSH1 0x0 DUP1 REVERT JUMPDEST POP PUSH2 0x3C2 PUSH2 0xD4A JUMP JUMPDEST PUSH1 0x40 MLOAD PUSH2 0x324 SWAP2 SWAP1 PUSH2 0x3E72 JUMP JUMPDEST CALLVALUE DUP1 ISZERO PUSH2 0x3DB JUMPI PUSH1 0x0 DUP1 REVERT JUMPDEST POP PUSH2 0x3EF PUSH2 0x3EA CALLDATASIZE PUSH1 0x4 PUSH2 0x3E01 JUMP JUMPDEST PUSH2 0xDDC JUMP JUMPDEST PUSH1 0x40 MLOAD PUSH1 0x1 PUSH1 0x1 PUSH1 0xA0 SHL SUB SWAP1 SWAP2 AND DUP2 MSTORE PUSH1 0x20 ADD PUSH2 0x324 JUMP JUMPDEST CALLVALUE DUP1 ISZERO PUSH2 0x413 JUMPI PUSH1 0x0 DUP1 REVERT JUMPDEST POP PUSH2 0x3AB PUSH2 0x422 CALLDATASIZE PUSH1 0x4 PUSH2 0x3EA1 JUMP JUMPDEST PUSH2 0xE03 JUMP JUMPDEST CALLVALUE DUP1 ISZERO PUSH2 0x433 JUMPI PUSH1 0x0 DUP1 REVERT JUMPDEST POP PUSH2 0x3AB PUSH2 0x442 CALLDATASIZE PUSH1 0x4 PUSH2 0x3ECB JUMP JUMPDEST PUSH2 0xF19 JUMP JUMPDEST CALLVALUE DUP1 ISZERO PUSH2 0x453 JUMPI PUSH1 0x0 DUP1 REVERT JUMPDEST POP PUSH1 0xB SLOAD PUSH2 0x37D JUMP JUMPDEST CALLVALUE DUP1 ISZERO PUSH2 0x468 JUMPI PUSH1 0x0 DUP1 REVERT JUMPDEST POP PUSH2 0x3AB PUSH2 0x477 CALLDATASIZE PUSH1 0x4 PUSH2 0x3FB3 JUMP JUMPDEST PUSH2 0xF4A JUMP JUMPDEST CALLVALUE DUP1 ISZERO PUSH2 0x488 JUMPI PUSH1 0x0 DUP1 REVERT JUMPDEST POP PUSH2 0x49C PUSH2 0x497 CALLDATASIZE PUSH1 0x4 PUSH2 0x3E01 JUMP JUMPDEST PUSH2 0x106F JUMP JUMPDEST PUSH1 0x40 MLOAD PUSH2 0x324 SWAP2 SWAP1 PUSH2 0x4031 JUMP JUMPDEST CALLVALUE DUP1 ISZERO PUSH2 0x4B5 JUMPI PUSH1 0x0 DUP1 REVERT JUMPDEST POP PUSH2 0x4C9 PUSH2 0x4C4 CALLDATASIZE PUSH1 0x4 PUSH2 0x3E01 JUMP JUMPDEST PUSH2 0x1235 JUMP JUMPDEST PUSH1 0x40 MLOAD PUSH2 0x324 SWAP10 SWAP9 SWAP8 SWAP7 SWAP6 SWAP5 SWAP4 SWAP3 SWAP2 SWAP1 PUSH2 0x40E8 JUMP JUMPDEST CALLVALUE DUP1 ISZERO PUSH2 0x4EA JUMPI PUSH1 0x0 DUP1 REVERT JUMPDEST POP PUSH2 0x4FE PUSH2 0x4F9 CALLDATASIZE PUSH1 0x4 PUSH2 0x3E01 JUMP JUMPDEST PUSH2 0x156D JUMP JUMPDEST PUSH1 0x40 MLOAD PUSH2 0x324 SWAP2 SWAP1 PUSH2 0x41A0 JUMP JUMPDEST CALLVALUE DUP1 ISZERO PUSH2 0x517 JUMPI PUSH1 0x0 DUP1 REVERT JUMPDEST POP PUSH2 0x3AB PUSH2 0x526 CALLDATASIZE PUSH1 0x4 PUSH2 0x3DAC JUMP JUMPDEST PUSH1 0x40 DUP1 MLOAD DUP1 DUP3 ADD DUP3 MSTORE CALLER DUP2 MSTORE PUSH1 0x20 DUP1 DUP3 ADD SWAP4 DUP5 MSTORE PUSH1 0x0 SWAP5 DUP6 MSTORE PUSH1 0xA DUP2 MSTORE SWAP2 DUP5 KECCAK256 DUP1 SLOAD PUSH1 0x1 DUP1 DUP3 ADD DUP4 SSTORE SWAP2 DUP7 MSTORE SWAP3 SWAP1 SWAP5 KECCAK256 SWAP1 MLOAD PUSH1 0x2 SWAP1 SWAP3 MUL ADD DUP1 SLOAD PUSH1 0x1 PUSH1 0x1 PUSH1 0xA0 SHL SUB NOT AND PUSH1 0x1 PUSH1 0x1 PUSH1 0xA0 SHL SUB SWAP1 SWAP3 AND SWAP2 SWAP1 SWAP2 OR DUP2 SSTORE SWAP1 MLOAD SWAP2 ADD SSTORE JUMP JUMPDEST CALLVALUE DUP1 ISZERO PUSH2 0x58E JUMPI PUSH1 0x0 DUP1 REVERT JUMPDEST POP PUSH2 0x5A2 PUSH2 0x59D CALLDATASIZE PUSH1 0x4 PUSH2 0x3E01 JUMP JUMPDEST PUSH2 0x16A2 JUMP JUMPDEST PUSH1 0x40 DUP1 MLOAD SWAP3 ISZERO ISZERO DUP4 MSTORE PUSH1 0x20 DUP4 ADD SWAP2 SWAP1 SWAP2 MSTORE ADD PUSH2 0x324 JUMP JUMPDEST CALLVALUE DUP1 ISZERO PUSH2 0x5C5 JUMPI PUSH1 0x0 DUP1 REVERT JUMPDEST POP PUSH2 0x3AB PUSH2 0x5D4 CALLDATASIZE PUSH1 0x4 PUSH2 0x3ECB JUMP JUMPDEST PUSH2 0x1729 JUMP JUMPDEST CALLVALUE DUP1 ISZERO PUSH2 0x5E5 JUMPI PUSH1 0x0 DUP1 REVERT JUMPDEST POP PUSH2 0x3AB PUSH2 0x5F4 CALLDATASIZE PUSH1 0x4 PUSH2 0x3EA1 JUMP JUMPDEST POP POP JUMP JUMPDEST CALLVALUE DUP1 ISZERO PUSH2 0x604 JUMPI PUSH1 0x0 DUP1 REVERT JUMPDEST POP PUSH2 0x3AB PUSH2 0x613 CALLDATASIZE PUSH1 0x4 PUSH2 0x423F JUMP JUMPDEST PUSH2 0x1744 JUMP JUMPDEST CALLVALUE DUP1 ISZERO PUSH2 0x624 JUMPI PUSH1 0x0 DUP1 REVERT JUMPDEST POP PUSH2 0x34D PUSH2 0x633 CALLDATASIZE PUSH1 0x4 PUSH2 0x3E01 JUMP JUMPDEST PUSH2 0x1812 JUMP JUMPDEST CALLVALUE DUP1 ISZERO PUSH2 0x644 JUMPI PUSH1 0x0 DUP1 REVERT JUMPDEST POP PUSH2 0x3AB PUSH2 0x653 CALLDATASIZE PUSH1 0x4 PUSH2 0x4322 JUMP JUMPDEST PUSH2 0x188E JUMP JUMPDEST CALLVALUE DUP1 ISZERO PUSH2 0x664 JUMPI PUSH1 0x0 DUP1 REVERT JUMPDEST POP PUSH2 0x3EF PUSH2 0x673 CALLDATASIZE PUSH1 0x4 PUSH2 0x3E01 JUMP JUMPDEST PUSH2 0x19C9 JUMP JUMPDEST CALLVALUE DUP1 ISZERO PUSH2 0x684 JUMPI PUSH1 0x0 DUP1 REVERT JUMPDEST POP PUSH2 0x34D PUSH2 0x693 CALLDATASIZE PUSH1 0x4 PUSH2 0x3E01 JUMP JUMPDEST PUSH1 0x0 SWAP1 DUP2 MSTORE PUSH1 0x8 PUSH1 0x20 MSTORE PUSH1 0x40 SWAP1 KECCAK256 PUSH1 0x2 ADD SLOAD PUSH1 0x1 PUSH1 0x1 PUSH1 0xA0 SHL SUB AND CALLER EQ SWAP1 JUMP JUMPDEST CALLVALUE DUP1 ISZERO PUSH2 0x6BF JUMPI PUSH1 0x0 DUP1 REVERT JUMPDEST POP PUSH2 0x6D3 PUSH2 0x6CE CALLDATASIZE PUSH1 0x4 PUSH2 0x3DAC JUMP JUMPDEST PUSH2 0x1A29 JUMP JUMPDEST PUSH1 0x40 MLOAD PUSH2 0x324 SWAP6 SWAP5 SWAP4 SWAP3 SWAP2 SWAP1 PUSH2 0x43EC JUMP JUMPDEST CALLVALUE DUP1 ISZERO PUSH2 0x6F0 JUMPI PUSH1 0x0 DUP1 REVERT JUMPDEST POP PUSH2 0x704 PUSH2 0x6FF CALLDATASIZE PUSH1 0x4 PUSH2 0x3E01 JUMP JUMPDEST PUSH2 0x1B0F JUMP JUMPDEST PUSH1 0x40 MLOAD PUSH2 0x324 SWAP2 SWAP1 PUSH2 0x442C JUMP JUMPDEST CALLVALUE DUP1 ISZERO PUSH2 0x71D JUMPI PUSH1 0x0 DUP1 REVERT JUMPDEST POP PUSH2 0x37D PUSH2 0x72C CALLDATASIZE PUSH1 0x4 PUSH2 0x4484 JUMP JUMPDEST PUSH2 0x1B97 JUMP JUMPDEST CALLVALUE DUP1 ISZERO PUSH2 0x73D JUMPI PUSH1 0x0 DUP1 REVERT JUMPDEST POP PUSH2 0x3AB PUSH2 0x1C1D JUMP JUMPDEST CALLVALUE DUP1 ISZERO PUSH2 0x752 JUMPI PUSH1 0x0 DUP1 REVERT JUMPDEST POP PUSH1 0x7 SLOAD PUSH2 0x37D JUMP JUMPDEST CALLVALUE DUP1 ISZERO PUSH2 0x767 JUMPI PUSH1 0x0 DUP1 REVERT JUMPDEST POP PUSH2 0x3AB PUSH2 0x776 CALLDATASIZE PUSH1 0x4 PUSH2 0x3DAC JUMP JUMPDEST PUSH2 0x1C31 JUMP JUMPDEST CALLVALUE DUP1 ISZERO PUSH2 0x787 JUMPI PUSH1 0x0 DUP1 REVERT JUMPDEST POP PUSH2 0x37D PUSH1 0x7 SLOAD DUP2 JUMP JUMPDEST CALLVALUE DUP1 ISZERO PUSH2 0x79D JUMPI PUSH1 0x0 DUP1 REVERT JUMPDEST POP PUSH1 0x6 SLOAD PUSH1 0x1 PUSH1 0x1 PUSH1 0xA0 SHL SUB AND PUSH2 0x3EF JUMP JUMPDEST CALLVALUE DUP1 ISZERO PUSH2 0x7BB JUMPI PUSH1 0x0 DUP1 REVERT JUMPDEST POP PUSH2 0x7CF PUSH2 0x7CA CALLDATASIZE PUSH1 0x4 PUSH2 0x3E01 JUMP JUMPDEST PUSH2 0x1EB2 JUMP JUMPDEST PUSH1 0x40 MLOAD PUSH2 0x324 SWAP2 SWAP1 PUSH2 0x449F JUMP JUMPDEST CALLVALUE DUP1 ISZERO PUSH2 0x7E8 JUMPI PUSH1 0x0 DUP1 REVERT JUMPDEST POP PUSH2 0x3C2 PUSH2 0x1FD8 JUMP JUMPDEST CALLVALUE DUP1 ISZERO PUSH2 0x7FD JUMPI PUSH1 0x0 DUP1 REVERT JUMPDEST POP PUSH2 0x3AB PUSH2 0x80C CALLDATASIZE PUSH1 0x4 PUSH2 0x453F JUMP JUMPDEST PUSH2 0x1FE7 JUMP JUMPDEST PUSH2 0x3AB PUSH2 0x81F CALLDATASIZE PUSH1 0x4 PUSH2 0x3E01 JUMP JUMPDEST PUSH2 0x1FF2 JUMP JUMPDEST CALLVALUE DUP1 ISZERO PUSH2 0x830 JUMPI PUSH1 0x0 DUP1 REVERT JUMPDEST POP PUSH2 0x844 PUSH2 0x83F CALLDATASIZE PUSH1 0x4 PUSH2 0x3E01 JUMP JUMPDEST PUSH2 0x2221 JUMP JUMPDEST PUSH1 0x40 MLOAD PUSH2 0x324 SWAP2 SWAP1 PUSH2 0x4572 JUMP JUMPDEST CALLVALUE DUP1 ISZERO PUSH2 0x85D JUMPI PUSH1 0x0 DUP1 REVERT JUMPDEST POP PUSH2 0x3AB PUSH2 0x86C CALLDATASIZE PUSH1 0x4 PUSH2 0x45F8 JUMP JUMPDEST PUSH2 0x233D JUMP JUMPDEST CALLVALUE DUP1 ISZERO PUSH2 0x87D JUMPI PUSH1 0x0 DUP1 REVERT JUMPDEST POP PUSH2 0x3AB PUSH2 0x88C CALLDATASIZE PUSH1 0x4 PUSH2 0x3DAC JUMP JUMPDEST PUSH2 0x25B4 JUMP JUMPDEST CALLVALUE DUP1 ISZERO PUSH2 0x89D JUMPI PUSH1 0x0 DUP1 REVERT JUMPDEST POP PUSH2 0x3AB PUSH2 0x8AC CALLDATASIZE PUSH1 0x4 PUSH2 0x45F8 JUMP JUMPDEST PUSH2 0x264D JUMP JUMPDEST CALLVALUE DUP1 ISZERO PUSH2 0x8BD JUMPI PUSH1 0x0 DUP1 REVERT JUMPDEST POP PUSH2 0x3AB PUSH2 0x8CC CALLDATASIZE PUSH1 0x4 PUSH2 0x462D JUMP JUMPDEST PUSH2 0x28C4 JUMP JUMPDEST CALLVALUE DUP1 ISZERO PUSH2 0x8DD JUMPI PUSH1 0x0 DUP1 REVERT JUMPDEST POP PUSH2 0x3AB PUSH2 0x8EC CALLDATASIZE PUSH1 0x4 PUSH2 0x469D JUMP JUMPDEST PUSH2 0x28F6 JUMP JUMPDEST CALLVALUE DUP1 ISZERO PUSH2 0x8FD JUMPI PUSH1 0x0 DUP1 REVERT JUMPDEST POP PUSH2 0x3C2 PUSH2 0x90C CALLDATASIZE PUSH1 0x4 PUSH2 0x3E01 JUMP JUMPDEST PUSH2 0x29B3 JUMP JUMPDEST CALLVALUE DUP1 ISZERO PUSH2 0x91D JUMPI PUSH1 0x0 DUP1 REVERT JUMPDEST POP PUSH2 0x931 PUSH2 0x92C CALLDATASIZE PUSH1 0x4 PUSH2 0x3DAC JUMP JUMPDEST PUSH2 0x2A27 JUMP JUMPDEST PUSH1 0x40 MLOAD PUSH2 0x324 SWAP6 SWAP5 SWAP4 SWAP3 SWAP2 SWAP1 PUSH2 0x46FC JUMP JUMPDEST PUSH2 0x3AB PUSH2 0x950 CALLDATASIZE PUSH1 0x4 PUSH2 0x3DAC JUMP JUMPDEST PUSH2 0x2B9B JUMP JUMPDEST CALLVALUE DUP1 ISZERO PUSH2 0x961 JUMPI PUSH1 0x0 DUP1 REVERT JUMPDEST POP PUSH2 0x34D PUSH2 0x970 CALLDATASIZE PUSH1 0x4 PUSH2 0x474B JUMP JUMPDEST PUSH1 0x1 PUSH1 0x1 PUSH1 0xA0 SHL SUB SWAP2 DUP3 AND PUSH1 0x0 SWAP1 DUP2 MSTORE PUSH1 0x5 PUSH1 0x20 SWAP1 DUP2 MSTORE PUSH1 0x40 DUP1 DUP4 KECCAK256 SWAP4 SWAP1 SWAP5 AND DUP3 MSTORE SWAP2 SWAP1 SWAP2 MSTORE KECCAK256 SLOAD PUSH1 0xFF AND SWAP1 JUMP JUMPDEST CALLVALUE DUP1 ISZERO PUSH2 0x9AA JUMPI PUSH1 0x0 DUP1 REVERT JUMPDEST POP PUSH2 0x3AB PUSH2 0x9B9 CALLDATASIZE PUSH1 0x4 PUSH2 0x4484 JUMP JUMPDEST PUSH2 0x2E05 JUMP JUMPDEST CALLVALUE DUP1 ISZERO PUSH2 0x9CA JUMPI PUSH1 0x0 DUP1 REVERT JUMPDEST POP PUSH2 0x9DE PUSH2 0x9D9 CALLDATASIZE PUSH1 0x4 PUSH2 0x3E01 JUMP JUMPDEST PUSH2 0x2E7B JUMP JUMPDEST PUSH1 0x40 MLOAD PUSH2 0x324 SWAP9 SWAP8 SWAP7 SWAP6 SWAP5 SWAP4 SWAP3 SWAP2 SWAP1 PUSH2 0x4775 JUMP JUMPDEST CALLVALUE DUP1 ISZERO PUSH2 0x9FE JUMPI PUSH1 0x0 DUP1 REVERT JUMPDEST POP PUSH2 0x3AB PUSH2 0xA0D CALLDATASIZE PUSH1 0x4 PUSH2 0x47E8 JUMP JUMPDEST PUSH2 0x3061 JUMP JUMPDEST CALLVALUE DUP1 ISZERO PUSH2 0xA1E JUMPI PUSH1 0x0 DUP1 REVERT JUMPDEST POP PUSH2 0xA32 PUSH2 0xA2D CALLDATASIZE PUSH1 0x4 PUSH2 0x3E01 JUMP JUMPDEST PUSH2 0x3102 JUMP JUMPDEST PUSH1 0x40 MLOAD PUSH2 0x324 SWAP5 SWAP4 SWAP3 SWAP2 SWAP1 SWAP4 DUP5 MSTORE PUSH1 0x20 DUP5 ADD SWAP3 SWAP1 SWAP3 MSTORE PUSH1 0x1 PUSH1 0x1 PUSH1 0xA0 SHL SUB AND PUSH1 0x40 DUP4 ADD MSTORE PUSH1 0x60 DUP3 ADD MSTORE PUSH1 0x80 ADD SWAP1 JUMP JUMPDEST CALLVALUE DUP1 ISZERO PUSH2 0xA6D JUMPI PUSH1 0x0 DUP1 REVERT JUMPDEST POP PUSH2 0xA81 PUSH2 0xA7C CALLDATASIZE PUSH1 0x4 PUSH2 0x3DAC JUMP JUMPDEST PUSH2 0x317B JUMP JUMPDEST PUSH1 0x40 MLOAD PUSH2 0x324 SWAP7 SWAP6 SWAP5 SWAP4 SWAP3 SWAP2 SWAP1 PUSH2 0x482F JUMP JUMPDEST CALLVALUE DUP1 ISZERO PUSH2 0xA9F JUMPI PUSH1 0x0 DUP1 REVERT JUMPDEST POP PUSH2 0xAB3 PUSH2 0xAAE CALLDATASIZE PUSH1 0x4 PUSH2 0x3DAC JUMP JUMPDEST PUSH2 0x326B JUMP JUMPDEST PUSH1 0x40 MLOAD PUSH2 0x324 SWAP5 SWAP4 SWAP3 SWAP2 SWAP1 PUSH2 0x4876 JUMP JUMPDEST PUSH1 0xA PUSH1 0x20 MSTORE DUP2 PUSH1 0x0 MSTORE PUSH1 0x40 PUSH1 0x0 KECCAK256 DUP2 DUP2 SLOAD DUP2 LT PUSH2 0xADF JUMPI PUSH1 0x0 DUP1 REVERT JUMPDEST PUSH1 0x0 SWAP2 DUP3 MSTORE PUSH1 0x20 SWAP1 SWAP2 KECCAK256 PUSH1 0x2 SWAP1 SWAP2 MUL ADD DUP1 SLOAD PUSH1 0x1 SWAP1 SWAP2 ADD SLOAD PUSH1 0x1 PUSH1 0x1 PUSH1 0xA0 SHL SUB SWAP1 SWAP2 AND SWAP3 POP SWAP1 POP DUP3 JUMP JUMPDEST PUSH1 0x0 PUSH1 0x1 PUSH1 0x1 PUSH1 0xE0 SHL SUB NOT DUP3 AND PUSH4 0x80AC58CD PUSH1 0xE0 SHL EQ DUP1 PUSH2 0xB3A JUMPI POP PUSH1 0x1 PUSH1 0x1 PUSH1 0xE0 SHL SUB NOT DUP3 AND PUSH4 0x5B5E139F PUSH1 0xE0 SHL EQ JUMPDEST DUP1 PUSH2 0xB55 JUMPI POP PUSH4 0x1FFC9A7 PUSH1 0xE0 SHL PUSH1 0x1 PUSH1 0x1 PUSH1 0xE0 SHL SUB NOT DUP4 AND EQ JUMPDEST SWAP3 SWAP2 POP POP JUMP JUMPDEST PUSH1 0x9 DUP2 DUP2 SLOAD DUP2 LT PUSH2 0xB6B JUMPI PUSH1 0x0 DUP1 REVERT JUMPDEST PUSH1 0x0 SWAP2 DUP3 MSTORE PUSH1 0x20 SWAP1 SWAP2 KECCAK256 ADD SLOAD SWAP1 POP DUP2 JUMP JUMPDEST PUSH1 0x0 DUP1 PUSH2 0xB88 DUP5 PUSH2 0x16A2 JUMP JUMPDEST SWAP2 POP SWAP2 POP DUP2 ISZERO PUSH2 0xD44 JUMPI PUSH1 0x0 DUP5 DUP2 MSTORE PUSH1 0xA PUSH1 0x20 MSTORE PUSH1 0x40 DUP2 KECCAK256 DUP1 SLOAD DUP4 SWAP1 DUP2 LT PUSH2 0xBB2 JUMPI PUSH2 0xBB2 PUSH2 0x48AE JUMP JUMPDEST SWAP1 PUSH1 0x0 MSTORE PUSH1 0x20 PUSH1 0x0 KECCAK256 SWAP1 PUSH1 0x2 MUL ADD PUSH1 0x1 ADD SLOAD SWAP1 POP PUSH1 0x0 PUSH1 0xA PUSH1 0x0 DUP8 DUP2 MSTORE PUSH1 0x20 ADD SWAP1 DUP2 MSTORE PUSH1 0x20 ADD PUSH1 0x0 KECCAK256 DUP4 DUP2 SLOAD DUP2 LT PUSH2 0xBEC JUMPI PUSH2 0xBEC PUSH2 0x48AE JUMP JUMPDEST PUSH1 0x0 SWAP2 DUP3 MSTORE PUSH1 0x20 SWAP1 SWAP2 KECCAK256 PUSH1 0x2 SWAP1 SWAP2 MUL ADD SLOAD PUSH1 0x1 PUSH1 0x1 PUSH1 0xA0 SHL SUB AND SWAP1 POP DUP2 DUP6 GT ISZERO PUSH2 0xC55 JUMPI PUSH1 0x40 MLOAD PUSH3 0x461BCD PUSH1 0xE5 SHL DUP2 MSTORE PUSH1 0x20 PUSH1 0x4 DUP3 ADD MSTORE PUSH1 0x15 PUSH1 0x24 DUP3 ADD MSTORE PUSH21 0x125B9D985B1A59081CDA185C99481D1BC81CD95B1B PUSH1 0x5A SHL PUSH1 0x44 DUP3 ADD MSTORE PUSH1 0x64 ADD JUMPDEST PUSH1 0x40 MLOAD DUP1 SWAP2 SUB SWAP1 REVERT JUMPDEST PUSH1 0x40 DUP1 MLOAD PUSH1 0x80 DUP2 ADD DUP3 MSTORE DUP8 DUP2 MSTORE PUSH1 0x20 DUP2 ADD DUP6 DUP2 MSTORE PUSH1 0x1 PUSH1 0x1 PUSH1 0xA0 SHL SUB SWAP4 DUP5 AND SWAP3 DUP3 ADD SWAP3 DUP4 MSTORE PUSH1 0x60 DUP3 ADD DUP9 DUP2 MSTORE PUSH1 0xB DUP1 SLOAD PUSH1 0x1 DUP2 ADD DUP3 SSTORE PUSH1 0x0 SWAP2 SWAP1 SWAP2 MSTORE SWAP3 MLOAD PUSH32 0x175B7A638427703F0DBE7BB9BBF987A2551717B34E79F33B5B1008D1FA01DB9 PUSH1 0x4 SWAP1 SWAP5 MUL SWAP4 DUP5 ADD SSTORE SWAP1 MLOAD PUSH32 0x175B7A638427703F0DBE7BB9BBF987A2551717B34E79F33B5B1008D1FA01DBA DUP4 ADD SSTORE SWAP2 MLOAD PUSH32 0x175B7A638427703F0DBE7BB9BBF987A2551717B34E79F33B5B1008D1FA01DBB DUP3 ADD DUP1 SLOAD PUSH1 0x1 PUSH1 0x1 PUSH1 0xA0 SHL SUB NOT AND SWAP2 SWAP1 SWAP5 AND OR SWAP1 SWAP3 SSTORE MLOAD PUSH32 0x175B7A638427703F0DBE7BB9BBF987A2551717B34E79F33B5B1008D1FA01DBC SWAP1 SWAP2 ADD SSTORE POP JUMPDEST POP POP POP POP JUMP JUMPDEST PUSH1 0x60 PUSH1 0x0 DUP1 SLOAD PUSH2 0xD59 SWAP1 PUSH2 0x48C4 JUMP JUMPDEST DUP1 PUSH1 0x1F ADD PUSH1 0x20 DUP1 SWAP2 DIV MUL PUSH1 0x20 ADD PUSH1 0x40 MLOAD SWAP1 DUP2 ADD PUSH1 0x40 MSTORE DUP1 SWAP3 SWAP2 SWAP1 DUP2 DUP2 MSTORE PUSH1 0x20 ADD DUP3 DUP1 SLOAD PUSH2 0xD85 SWAP1 PUSH2 0x48C4 JUMP JUMPDEST DUP1 ISZERO PUSH2 0xDD2 JUMPI DUP1 PUSH1 0x1F LT PUSH2 0xDA7 JUMPI PUSH2 0x100 DUP1 DUP4 SLOAD DIV MUL DUP4 MSTORE SWAP2 PUSH1 0x20 ADD SWAP2 PUSH2 0xDD2 JUMP JUMPDEST DUP3 ADD SWAP2 SWAP1 PUSH1 0x0 MSTORE PUSH1 0x20 PUSH1 0x0 KECCAK256 SWAP1 JUMPDEST DUP2 SLOAD DUP2 MSTORE SWAP1 PUSH1 0x1 ADD SWAP1 PUSH1 0x20 ADD DUP1 DUP4 GT PUSH2 0xDB5 JUMPI DUP3 SWAP1 SUB PUSH1 0x1F AND DUP3 ADD SWAP2 JUMPDEST POP POP POP POP POP SWAP1 POP SWAP1 JUMP JUMPDEST PUSH1 0x0 PUSH2 0xDE7 DUP3 PUSH2 0x334C JUMP JUMPDEST POP PUSH1 0x0 SWAP1 DUP2 MSTORE PUSH1 0x4 PUSH1 0x20 MSTORE PUSH1 0x40 SWAP1 KECCAK256 SLOAD PUSH1 0x1 PUSH1 0x1 PUSH1 0xA0 SHL SUB AND SWAP1 JUMP JUMPDEST PUSH1 0x0 PUSH2 0xE0E DUP3 PUSH2 0x19C9 JUMP JUMPDEST SWAP1 POP DUP1 PUSH1 0x1 PUSH1 0x1 PUSH1 0xA0 SHL SUB AND DUP4 PUSH1 0x1 PUSH1 0x1 PUSH1 0xA0 SHL SUB AND EQ ISZERO PUSH2 0xE7C JUMPI PUSH1 0x40 MLOAD PUSH3 0x461BCD PUSH1 0xE5 SHL DUP2 MSTORE PUSH1 0x20 PUSH1 0x4 DUP3 ADD MSTORE PUSH1 0x21 PUSH1 0x24 DUP3 ADD MSTORE PUSH32 0x4552433732313A20617070726F76616C20746F2063757272656E74206F776E65 PUSH1 0x44 DUP3 ADD MSTORE PUSH1 0x39 PUSH1 0xF9 SHL PUSH1 0x64 DUP3 ADD MSTORE PUSH1 0x84 ADD PUSH2 0xC4C JUMP JUMPDEST CALLER PUSH1 0x1 PUSH1 0x1 PUSH1 0xA0 SHL SUB DUP3 AND EQ DUP1 PUSH2 0xE98 JUMPI POP PUSH2 0xE98 DUP2 CALLER PUSH2 0x970 JUMP JUMPDEST PUSH2 0xF0A JUMPI PUSH1 0x40 MLOAD PUSH3 0x461BCD PUSH1 0xE5 SHL DUP2 MSTORE PUSH1 0x20 PUSH1 0x4 DUP3 ADD MSTORE PUSH1 0x3D PUSH1 0x24 DUP3 ADD MSTORE PUSH32 0x4552433732313A20617070726F76652063616C6C6572206973206E6F7420746F PUSH1 0x44 DUP3 ADD MSTORE PUSH32 0x6B656E206F776E6572206F7220617070726F76656420666F7220616C6C000000 PUSH1 0x64 DUP3 ADD MSTORE PUSH1 0x84 ADD PUSH2 0xC4C JUMP JUMPDEST PUSH2 0xF14 DUP4 DUP4 PUSH2 0x33AB JUMP JUMPDEST POP POP POP JUMP JUMPDEST PUSH2 0xF23 CALLER DUP3 PUSH2 0x3419 JUMP JUMPDEST PUSH2 0xF3F JUMPI PUSH1 0x40 MLOAD PUSH3 0x461BCD PUSH1 0xE5 SHL DUP2 MSTORE PUSH1 0x4 ADD PUSH2 0xC4C SWAP1 PUSH2 0x48FF JUMP JUMPDEST PUSH2 0xF14 DUP4 DUP4 DUP4 PUSH2 0x3498 JUMP JUMPDEST PUSH1 0x0 PUSH1 0x9 DUP6 DUP2 SLOAD DUP2 LT PUSH2 0xF5F JUMPI PUSH2 0xF5F PUSH2 0x48AE JUMP JUMPDEST PUSH1 0x0 SWAP2 DUP3 MSTORE PUSH1 0x20 DUP1 DUP4 KECCAK256 SWAP1 SWAP2 ADD SLOAD DUP1 DUP4 MSTORE PUSH1 0x8 SWAP1 SWAP2 MSTORE PUSH1 0x40 SWAP1 SWAP2 KECCAK256 PUSH1 0x2 ADD SLOAD SWAP1 SWAP2 POP PUSH1 0x1 PUSH1 0x1 PUSH1 0xA0 SHL SUB DUP6 DUP2 AND SWAP2 AND EQ PUSH2 0x1068 JUMPI PUSH1 0x40 DUP1 MLOAD PUSH1 0xA0 DUP2 ADD DUP3 MSTORE PUSH1 0x1 PUSH1 0x1 PUSH1 0xA0 SHL SUB DUP7 DUP2 AND DUP3 MSTORE PUSH1 0x20 DUP1 DUP4 ADD DUP8 DUP2 MSTORE DUP4 DUP6 ADD DUP8 SWAP1 MSTORE PUSH1 0x0 PUSH1 0x60 DUP6 ADD DUP2 SWAP1 MSTORE CALLER PUSH1 0x80 DUP7 ADD MSTORE DUP11 DUP2 MSTORE PUSH1 0xF DUP4 MSTORE SWAP5 DUP6 KECCAK256 DUP1 SLOAD PUSH1 0x1 DUP1 DUP3 ADD DUP4 SSTORE SWAP2 DUP8 MSTORE SWAP6 DUP4 SWAP1 KECCAK256 DUP6 MLOAD PUSH1 0x5 SWAP1 SWAP8 MUL ADD DUP1 SLOAD PUSH1 0x1 PUSH1 0x1 PUSH1 0xA0 SHL SUB NOT AND SWAP7 SWAP1 SWAP5 AND SWAP6 SWAP1 SWAP6 OR DUP4 SSTORE MLOAD DUP1 MLOAD SWAP4 SWAP5 DUP6 SWAP5 PUSH2 0x1017 SWAP4 SWAP2 DUP6 ADD SWAP3 SWAP1 SWAP2 ADD SWAP1 PUSH2 0x3C49 JUMP JUMPDEST POP PUSH1 0x40 DUP3 ADD MLOAD DUP1 MLOAD PUSH2 0x1033 SWAP2 PUSH1 0x2 DUP5 ADD SWAP2 PUSH1 0x20 SWAP1 SWAP2 ADD SWAP1 PUSH2 0x3C49 JUMP JUMPDEST POP PUSH1 0x60 DUP3 ADD MLOAD PUSH1 0x3 DUP3 ADD SSTORE PUSH1 0x80 SWAP1 SWAP2 ADD MLOAD PUSH1 0x4 SWAP1 SWAP2 ADD DUP1 SLOAD PUSH1 0x1 PUSH1 0x1 PUSH1 0xA0 SHL SUB NOT AND PUSH1 0x1 PUSH1 0x1 PUSH1 0xA0 SHL SUB SWAP1 SWAP3 AND SWAP2 SWAP1 SWAP2 OR SWAP1 SSTORE POP JUMPDEST POP POP POP POP POP JUMP JUMPDEST PUSH1 0x0 DUP2 DUP2 MSTORE PUSH1 0xF PUSH1 0x20 SWAP1 DUP2 MSTORE PUSH1 0x40 DUP1 DUP4 KECCAK256 DUP1 SLOAD DUP3 MLOAD DUP2 DUP6 MUL DUP2 ADD DUP6 ADD SWAP1 SWAP4 MSTORE DUP1 DUP4 MSTORE PUSH1 0x60 SWAP5 SWAP4 DUP5 SWAP1 DUP5 ADD JUMPDEST DUP3 DUP3 LT ISZERO PUSH2 0x1229 JUMPI PUSH1 0x0 DUP5 DUP2 MSTORE PUSH1 0x20 SWAP1 DUP2 SWAP1 KECCAK256 PUSH1 0x40 DUP1 MLOAD PUSH1 0xA0 DUP2 ADD SWAP1 SWAP2 MSTORE PUSH1 0x5 DUP6 MUL SWAP1 SWAP2 ADD DUP1 SLOAD PUSH1 0x1 PUSH1 0x1 PUSH1 0xA0 SHL SUB AND DUP3 MSTORE PUSH1 0x1 DUP2 ADD DUP1 SLOAD SWAP3 SWAP4 SWAP2 SWAP3 SWAP2 DUP5 ADD SWAP2 PUSH2 0x10E3 SWAP1 PUSH2 0x48C4 JUMP JUMPDEST DUP1 PUSH1 0x1F ADD PUSH1 0x20 DUP1 SWAP2 DIV MUL PUSH1 0x20 ADD PUSH1 0x40 MLOAD SWAP1 DUP2 ADD PUSH1 0x40 MSTORE DUP1 SWAP3 SWAP2 SWAP1 DUP2 DUP2 MSTORE PUSH1 0x20 ADD DUP3 DUP1 SLOAD PUSH2 0x110F SWAP1 PUSH2 0x48C4 JUMP JUMPDEST DUP1 ISZERO PUSH2 0x115C JUMPI DUP1 PUSH1 0x1F LT PUSH2 0x1131 JUMPI PUSH2 0x100 DUP1 DUP4 SLOAD DIV MUL DUP4 MSTORE SWAP2 PUSH1 0x20 ADD SWAP2 PUSH2 0x115C JUMP JUMPDEST DUP3 ADD SWAP2 SWAP1 PUSH1 0x0 MSTORE PUSH1 0x20 PUSH1 0x0 KECCAK256 SWAP1 JUMPDEST DUP2 SLOAD DUP2 MSTORE SWAP1 PUSH1 0x1 ADD SWAP1 PUSH1 0x20 ADD DUP1 DUP4 GT PUSH2 0x113F JUMPI DUP3 SWAP1 SUB PUSH1 0x1F AND DUP3 ADD SWAP2 JUMPDEST POP POP POP POP POP DUP2 MSTORE PUSH1 0x20 ADD PUSH1 0x2 DUP3 ADD DUP1 SLOAD PUSH2 0x1175 SWAP1 PUSH2 0x48C4 JUMP JUMPDEST DUP1 PUSH1 0x1F ADD PUSH1 0x20 DUP1 SWAP2 DIV MUL PUSH1 0x20 ADD PUSH1 0x40 MLOAD SWAP1 DUP2 ADD PUSH1 0x40 MSTORE DUP1 SWAP3 SWAP2 SWAP1 DUP2 DUP2 MSTORE PUSH1 0x20 ADD DUP3 DUP1 SLOAD PUSH2 0x11A1 SWAP1 PUSH2 0x48C4 JUMP JUMPDEST DUP1 ISZERO PUSH2 0x11EE JUMPI DUP1 PUSH1 0x1F LT PUSH2 0x11C3 JUMPI PUSH2 0x100 DUP1 DUP4 SLOAD DIV MUL DUP4 MSTORE SWAP2 PUSH1 0x20 ADD SWAP2 PUSH2 0x11EE JUMP JUMPDEST DUP3 ADD SWAP2 SWAP1 PUSH1 0x0 MSTORE PUSH1 0x20 PUSH1 0x0 KECCAK256 SWAP1 JUMPDEST DUP2 SLOAD DUP2 MSTORE SWAP1 PUSH1 0x1 ADD SWAP1 PUSH1 0x20 ADD DUP1 DUP4 GT PUSH2 0x11D1 JUMPI DUP3 SWAP1 SUB PUSH1 0x1F AND DUP3 ADD SWAP2 JUMPDEST POP POP POP SWAP2 DUP4 MSTORE POP POP PUSH1 0x3 DUP3 ADD SLOAD PUSH1 0x20 DUP1 DUP4 ADD SWAP2 SWAP1 SWAP2 MSTORE PUSH1 0x4 SWAP1 SWAP3 ADD SLOAD PUSH1 0x1 PUSH1 0x1 PUSH1 0xA0 SHL SUB AND PUSH1 0x40 SWAP1 SWAP2 ADD MSTORE SWAP1 DUP3 MSTORE PUSH1 0x1 SWAP3 SWAP1 SWAP3 ADD SWAP2 ADD PUSH2 0x109A JUMP JUMPDEST POP SWAP3 SWAP7 SWAP6 POP POP POP POP POP POP JUMP JUMPDEST PUSH1 0x60 DUP1 PUSH1 0x0 PUSH2 0x1242 PUSH2 0x3CCD JUMP JUMPDEST PUSH1 0x0 PUSH1 0x60 PUSH1 0x0 DUP1 PUSH1 0x0 DUP1 PUSH1 0x8 PUSH1 0x0 DUP13 DUP2 MSTORE PUSH1 0x20 ADD SWAP1 DUP2 MSTORE PUSH1 0x20 ADD PUSH1 0x0 KECCAK256 PUSH1 0x40 MLOAD DUP1 PUSH2 0x120 ADD PUSH1 0x40 MSTORE SWAP1 DUP2 PUSH1 0x0 DUP3 ADD DUP1 SLOAD PUSH2 0x127B SWAP1 PUSH2 0x48C4 JUMP JUMPDEST DUP1 PUSH1 0x1F ADD PUSH1 0x20 DUP1 SWAP2 DIV MUL PUSH1 0x20 ADD PUSH1 0x40 MLOAD SWAP1 DUP2 ADD PUSH1 0x40 MSTORE DUP1 SWAP3 SWAP2 SWAP1 DUP2 DUP2 MSTORE PUSH1 0x20 ADD DUP3 DUP1 SLOAD PUSH2 0x12A7 SWAP1 PUSH2 0x48C4 JUMP JUMPDEST DUP1 ISZERO PUSH2 0x12F4 JUMPI DUP1 PUSH1 0x1F LT PUSH2 0x12C9 JUMPI PUSH2 0x100 DUP1 DUP4 SLOAD DIV MUL DUP4 MSTORE SWAP2 PUSH1 0x20 ADD SWAP2 PUSH2 0x12F4 JUMP JUMPDEST DUP3 ADD SWAP2 SWAP1 PUSH1 0x0 MSTORE PUSH1 0x20 PUSH1 0x0 KECCAK256 SWAP1 JUMPDEST DUP2 SLOAD DUP2 MSTORE SWAP1 PUSH1 0x1 ADD SWAP1 PUSH1 0x20 ADD DUP1 DUP4 GT PUSH2 0x12D7 JUMPI DUP3 SWAP1 SUB PUSH1 0x1F AND DUP3 ADD SWAP2 JUMPDEST POP POP POP POP POP DUP2 MSTORE PUSH1 0x20 ADD PUSH1 0x1 DUP3 ADD DUP1 SLOAD PUSH2 0x130D SWAP1 PUSH2 0x48C4 JUMP JUMPDEST DUP1 PUSH1 0x1F ADD PUSH1 0x20 DUP1 SWAP2 DIV MUL PUSH1 0x20 ADD PUSH1 0x40 MLOAD SWAP1 DUP2 ADD PUSH1 0x40 MSTORE DUP1 SWAP3 SWAP2 SWAP1 DUP2 DUP2 MSTORE PUSH1 0x20 ADD DUP3 DUP1 SLOAD PUSH2 0x1339 SWAP1 PUSH2 0x48C4 JUMP JUMPDEST DUP1 ISZERO PUSH2 0x1386 JUMPI DUP1 PUSH1 0x1F LT PUSH2 0x135B JUMPI PUSH2 0x100 DUP1 DUP4 SLOAD DIV MUL DUP4 MSTORE SWAP2 PUSH1 0x20 ADD SWAP2 PUSH2 0x1386 JUMP JUMPDEST DUP3 ADD SWAP2 SWAP1 PUSH1 0x0 MSTORE PUSH1 0x20 PUSH1 0x0 KECCAK256 SWAP1 JUMPDEST DUP2 SLOAD DUP2 MSTORE SWAP1 PUSH1 0x1 ADD SWAP1 PUSH1 0x20 ADD DUP1 DUP4 GT PUSH2 0x1369 JUMPI DUP3 SWAP1 SUB PUSH1 0x1F AND DUP3 ADD SWAP2 JUMPDEST POP POP POP SWAP2 DUP4 MSTORE POP POP PUSH1 0x2 DUP3 ADD SLOAD PUSH1 0x1 PUSH1 0x1 PUSH1 0xA0 SHL SUB AND PUSH1 0x20 DUP3 ADD MSTORE PUSH1 0x40 DUP1 MLOAD PUSH1 0x60 DUP2 ADD DUP3 MSTORE SWAP2 ADD SWAP1 PUSH1 0x3 DUP1 DUP5 ADD SWAP1 PUSH1 0x0 DUP4 JUMPDEST DUP3 DUP3 LT ISZERO PUSH2 0x145B JUMPI DUP4 DUP3 ADD DUP1 SLOAD PUSH2 0x13CE SWAP1 PUSH2 0x48C4 JUMP JUMPDEST DUP1 PUSH1 0x1F ADD PUSH1 0x20 DUP1 SWAP2 DIV MUL PUSH1 0x20 ADD PUSH1 0x40 MLOAD SWAP1 DUP2 ADD PUSH1 0x40 MSTORE DUP1 SWAP3 SWAP2 SWAP1 DUP2 DUP2 MSTORE PUSH1 0x20 ADD DUP3 DUP1 SLOAD PUSH2 0x13FA SWAP1 PUSH2 0x48C4 JUMP JUMPDEST DUP1 ISZERO PUSH2 0x1447 JUMPI DUP1 PUSH1 0x1F LT PUSH2 0x141C JUMPI PUSH2 0x100 DUP1 DUP4 SLOAD DIV MUL DUP4 MSTORE SWAP2 PUSH1 0x20 ADD SWAP2 PUSH2 0x1447 JUMP JUMPDEST DUP3 ADD SWAP2 SWAP1 PUSH1 0x0 MSTORE PUSH1 0x20 PUSH1 0x0 KECCAK256 SWAP1 JUMPDEST DUP2 SLOAD DUP2 MSTORE SWAP1 PUSH1 0x1 ADD SWAP1 PUSH1 0x20 ADD DUP1 DUP4 GT PUSH2 0x142A JUMPI DUP3 SWAP1 SUB PUSH1 0x1F AND DUP3 ADD SWAP2 JUMPDEST POP POP POP POP POP DUP2 MSTORE PUSH1 0x20 ADD SWAP1 PUSH1 0x1 ADD SWAP1 PUSH2 0x13B8 JUMP JUMPDEST POP POP POP POP DUP2 MSTORE PUSH1 0x20 ADD PUSH1 0x6 DUP3 ADD SLOAD DUP2 MSTORE PUSH1 0x20 ADD PUSH1 0x7 DUP3 ADD DUP1 SLOAD PUSH2 0x147D SWAP1 PUSH2 0x48C4 JUMP JUMPDEST DUP1 PUSH1 0x1F ADD PUSH1 0x20 DUP1 SWAP2 DIV MUL PUSH1 0x20 ADD PUSH1 0x40 MLOAD SWAP1 DUP2 ADD PUSH1 0x40 MSTORE DUP1 SWAP3 SWAP2 SWAP1 DUP2 DUP2 MSTORE PUSH1 0x20 ADD DUP3 DUP1 SLOAD PUSH2 0x14A9 SWAP1 PUSH2 0x48C4 JUMP JUMPDEST DUP1 ISZERO PUSH2 0x14F6 JUMPI DUP1 PUSH1 0x1F LT PUSH2 0x14CB JUMPI PUSH2 0x100 DUP1 DUP4 SLOAD DIV MUL DUP4 MSTORE SWAP2 PUSH1 0x20 ADD SWAP2 PUSH2 0x14F6 JUMP JUMPDEST DUP3 ADD SWAP2 SWAP1 PUSH1 0x0 MSTORE PUSH1 0x20 PUSH1 0x0 KECCAK256 SWAP1 JUMPDEST DUP2 SLOAD DUP2 MSTORE SWAP1 PUSH1 0x1 ADD SWAP1 PUSH1 0x20 ADD DUP1 DUP4 GT PUSH2 0x14D9 JUMPI DUP3 SWAP1 SUB PUSH1 0x1F AND DUP3 ADD SWAP2 JUMPDEST POP POP POP POP POP DUP2 MSTORE PUSH1 0x20 ADD PUSH1 0x8 DUP3 ADD SLOAD DUP2 MSTORE PUSH1 0x20 ADD PUSH1 0x9 DUP3 ADD SLOAD DUP2 MSTORE PUSH1 0x20 ADD PUSH1 0xA DUP3 ADD SLOAD DUP2 MSTORE POP POP SWAP1 POP DUP1 PUSH1 0x0 ADD MLOAD DUP2 PUSH1 0x20 ADD MLOAD DUP3 PUSH1 0x40 ADD MLOAD DUP4 PUSH1 0x60 ADD MLOAD DUP5 PUSH1 0x80 ADD MLOAD DUP6 PUSH1 0xA0 ADD MLOAD DUP7 PUSH1 0xC0 ADD MLOAD DUP8 PUSH1 0xE0 ADD MLOAD DUP9 PUSH2 0x100 ADD MLOAD SWAP10 POP SWAP10 POP SWAP10 POP SWAP10 POP SWAP10 POP SWAP10 POP SWAP10 POP SWAP10 POP SWAP10 POP POP SWAP2 SWAP4 SWAP6 SWAP8 SWAP10 SWAP1 SWAP3 SWAP5 SWAP7 SWAP9 POP JUMP JUMPDEST PUSH1 0x0 DUP2 DUP2 MSTORE PUSH1 0xD PUSH1 0x20 SWAP1 DUP2 MSTORE PUSH1 0x40 DUP1 DUP4 KECCAK256 DUP1 SLOAD DUP3 MLOAD DUP2 DUP6 MUL DUP2 ADD DUP6 ADD SWAP1 SWAP4 MSTORE DUP1 DUP4 MSTORE PUSH1 0x60 SWAP5 SWAP4 DUP5 SWAP1 DUP5 ADD JUMPDEST DUP3 DUP3 LT ISZERO PUSH2 0x1229 JUMPI DUP4 DUP3 SWAP1 PUSH1 0x0 MSTORE PUSH1 0x20 PUSH1 0x0 KECCAK256 SWAP1 PUSH1 0x6 MUL ADD PUSH1 0x40 MLOAD DUP1 PUSH1 0xC0 ADD PUSH1 0x40 MSTORE SWAP1 DUP2 PUSH1 0x0 DUP3 ADD SLOAD DUP2 MSTORE PUSH1 0x20 ADD PUSH1 0x1 DUP3 ADD DUP1 SLOAD PUSH2 0x15D5 SWAP1 PUSH2 0x48C4 JUMP JUMPDEST DUP1 PUSH1 0x1F ADD PUSH1 0x20 DUP1 SWAP2 DIV MUL PUSH1 0x20 ADD PUSH1 0x40 MLOAD SWAP1 DUP2 ADD PUSH1 0x40 MSTORE DUP1 SWAP3 SWAP2 SWAP1 DUP2 DUP2 MSTORE PUSH1 0x20 ADD DUP3 DUP1 SLOAD PUSH2 0x1601 SWAP1 PUSH2 0x48C4 JUMP JUMPDEST DUP1 ISZERO PUSH2 0x164E JUMPI DUP1 PUSH1 0x1F LT PUSH2 0x1623 JUMPI PUSH2 0x100 DUP1 DUP4 SLOAD DIV MUL DUP4 MSTORE SWAP2 PUSH1 0x20 ADD SWAP2 PUSH2 0x164E JUMP JUMPDEST DUP3 ADD SWAP2 SWAP1 PUSH1 0x0 MSTORE PUSH1 0x20 PUSH1 0x0 KECCAK256 SWAP1 JUMPDEST DUP2 SLOAD DUP2 MSTORE SWAP1 PUSH1 0x1 ADD SWAP1 PUSH1 0x20 ADD DUP1 DUP4 GT PUSH2 0x1631 JUMPI DUP3 SWAP1 SUB PUSH1 0x1F AND DUP3 ADD SWAP2 JUMPDEST POP POP POP SWAP2 DUP4 MSTORE POP POP PUSH1 0x2 DUP3 ADD SLOAD PUSH1 0x1 PUSH1 0x1 PUSH1 0xA0 SHL SUB SWAP1 DUP2 AND PUSH1 0x20 DUP1 DUP5 ADD SWAP2 SWAP1 SWAP2 MSTORE PUSH1 0x3 DUP5 ADD SLOAD SWAP1 SWAP2 AND PUSH1 0x40 DUP4 ADD MSTORE PUSH1 0x4 DUP4 ADD SLOAD PUSH1 0x60 DUP4 ADD MSTORE PUSH1 0x5 SWAP1 SWAP3 ADD SLOAD PUSH1 0x80 SWAP1 SWAP2 ADD MSTORE SWAP1 DUP3 MSTORE PUSH1 0x1 SWAP3 SWAP1 SWAP3 ADD SWAP2 ADD PUSH2 0x1598 JUMP JUMPDEST PUSH1 0x0 DUP1 PUSH1 0x0 DUP1 PUSH1 0x0 JUMPDEST PUSH1 0x0 DUP7 DUP2 MSTORE PUSH1 0xA PUSH1 0x20 MSTORE PUSH1 0x40 SWAP1 KECCAK256 SLOAD DUP2 LT ISZERO PUSH2 0x171E JUMPI PUSH1 0x0 DUP7 DUP2 MSTORE PUSH1 0xA PUSH1 0x20 MSTORE PUSH1 0x40 SWAP1 KECCAK256 DUP1 SLOAD CALLER SWAP2 SWAP1 DUP4 SWAP1 DUP2 LT PUSH2 0x16E4 JUMPI PUSH2 0x16E4 PUSH2 0x48AE JUMP JUMPDEST PUSH1 0x0 SWAP2 DUP3 MSTORE PUSH1 0x20 SWAP1 SWAP2 KECCAK256 PUSH1 0x2 SWAP1 SWAP2 MUL ADD SLOAD PUSH1 0x1 PUSH1 0x1 PUSH1 0xA0 SHL SUB AND EQ ISZERO PUSH2 0x170C JUMPI PUSH1 0x1 SWAP3 POP DUP1 SWAP2 POP JUMPDEST DUP1 PUSH2 0x1716 DUP2 PUSH2 0x4962 JUMP JUMPDEST SWAP2 POP POP PUSH2 0x16AB JUMP JUMPDEST POP SWAP1 SWAP5 SWAP1 SWAP4 POP SWAP2 POP POP JUMP JUMPDEST PUSH2 0xF14 DUP4 DUP4 DUP4 PUSH1 0x40 MLOAD DUP1 PUSH1 0x20 ADD PUSH1 0x40 MSTORE DUP1 PUSH1 0x0 DUP2 MSTORE POP PUSH2 0x28C4 JUMP JUMPDEST PUSH1 0x40 DUP1 MLOAD PUSH1 0xC0 DUP2 ADD DUP3 MSTORE DUP5 DUP2 MSTORE PUSH1 0x20 DUP1 DUP3 ADD DUP6 DUP2 MSTORE PUSH1 0x1 PUSH1 0x1 PUSH1 0xA0 SHL SUB DUP6 AND DUP4 DUP6 ADD MSTORE CALLER PUSH1 0x60 DUP5 ADD MSTORE PUSH1 0x0 PUSH1 0x80 DUP5 ADD DUP2 SWAP1 MSTORE PUSH1 0xA0 DUP5 ADD DUP2 SWAP1 MSTORE DUP9 DUP2 MSTORE PUSH1 0xD DUP4 MSTORE SWAP4 DUP5 KECCAK256 DUP1 SLOAD PUSH1 0x1 DUP2 DUP2 ADD DUP4 SSTORE SWAP2 DUP7 MSTORE SWAP5 DUP4 SWAP1 KECCAK256 DUP5 MLOAD PUSH1 0x6 SWAP1 SWAP7 MUL ADD SWAP5 DUP6 SSTORE SWAP1 MLOAD DUP1 MLOAD SWAP4 SWAP5 DUP6 SWAP5 SWAP1 SWAP4 PUSH2 0x17BA SWAP4 DUP6 ADD SWAP3 ADD SWAP1 PUSH2 0x3C49 JUMP JUMPDEST POP PUSH1 0x40 DUP3 ADD MLOAD PUSH1 0x2 DUP3 ADD DUP1 SLOAD PUSH1 0x1 PUSH1 0x1 PUSH1 0xA0 SHL SUB SWAP3 DUP4 AND PUSH1 0x1 PUSH1 0x1 PUSH1 0xA0 SHL SUB NOT SWAP2 DUP3 AND OR SWAP1 SWAP2 SSTORE PUSH1 0x60 DUP5 ADD MLOAD PUSH1 0x3 DUP5 ADD DUP1 SLOAD SWAP2 SWAP1 SWAP4 AND SWAP2 AND OR SWAP1 SSTORE PUSH1 0x80 DUP3 ADD MLOAD PUSH1 0x4 DUP3 ADD SSTORE PUSH1 0xA0 SWAP1 SWAP2 ADD MLOAD PUSH1 0x5 SWAP1 SWAP2 ADD SSTORE POP POP POP POP POP JUMP JUMPDEST PUSH1 0x0 DUP1 DUP1 JUMPDEST PUSH1 0x0 DUP5 DUP2 MSTORE PUSH1 0xA PUSH1 0x20 MSTORE PUSH1 0x40 SWAP1 KECCAK256 SLOAD DUP2 LT ISZERO PUSH2 0x1887 JUMPI PUSH1 0x0 DUP5 DUP2 MSTORE PUSH1 0xA PUSH1 0x20 MSTORE PUSH1 0x40 SWAP1 KECCAK256 DUP1 SLOAD CALLER SWAP2 SWAP1 DUP4 SWAP1 DUP2 LT PUSH2 0x1850 JUMPI PUSH2 0x1850 PUSH2 0x48AE JUMP JUMPDEST PUSH1 0x0 SWAP2 DUP3 MSTORE PUSH1 0x20 SWAP1 SWAP2 KECCAK256 PUSH1 0x2 SWAP1 SWAP2 MUL ADD SLOAD PUSH1 0x1 PUSH1 0x1 PUSH1 0xA0 SHL SUB AND EQ ISZERO PUSH2 0x1875 JUMPI PUSH1 0x1 SWAP2 POP JUMPDEST DUP1 PUSH2 0x187F DUP2 PUSH2 0x4962 JUMP JUMPDEST SWAP2 POP POP PUSH2 0x1817 JUMP JUMPDEST POP SWAP3 SWAP2 POP POP JUMP JUMPDEST PUSH2 0x1896 PUSH2 0x35FC JUMP JUMPDEST PUSH1 0x40 DUP1 MLOAD PUSH2 0x120 DUP2 ADD DUP3 MSTORE DUP9 DUP2 MSTORE PUSH1 0x20 DUP1 DUP3 ADD DUP10 SWAP1 MSTORE CALLER DUP3 DUP5 ADD MSTORE PUSH1 0x60 DUP3 ADD DUP9 SWAP1 MSTORE PUSH1 0x80 DUP3 ADD DUP8 SWAP1 MSTORE PUSH1 0xA0 DUP3 ADD DUP7 SWAP1 MSTORE TIMESTAMP PUSH1 0xC0 DUP4 ADD MSTORE PUSH1 0xE0 DUP3 ADD DUP6 SWAP1 MSTORE PUSH2 0x100 DUP3 ADD DUP5 SWAP1 MSTORE PUSH1 0x7 SLOAD PUSH1 0x0 SWAP1 DUP2 MSTORE PUSH1 0x8 DUP3 MSTORE SWAP3 SWAP1 SWAP3 KECCAK256 DUP2 MLOAD DUP1 MLOAD SWAP3 SWAP4 DUP5 SWAP4 PUSH2 0x1900 SWAP3 DUP5 SWAP3 ADD SWAP1 PUSH2 0x3C49 JUMP JUMPDEST POP PUSH1 0x20 DUP3 DUP2 ADD MLOAD DUP1 MLOAD PUSH2 0x1919 SWAP3 PUSH1 0x1 DUP6 ADD SWAP3 ADD SWAP1 PUSH2 0x3C49 JUMP JUMPDEST POP PUSH1 0x40 DUP3 ADD MLOAD PUSH1 0x2 DUP3 ADD DUP1 SLOAD PUSH1 0x1 PUSH1 0x1 PUSH1 0xA0 SHL SUB NOT AND PUSH1 0x1 PUSH1 0x1 PUSH1 0xA0 SHL SUB SWAP1 SWAP3 AND SWAP2 SWAP1 SWAP2 OR SWAP1 SSTORE PUSH1 0x60 DUP3 ADD MLOAD PUSH2 0x1955 SWAP1 PUSH1 0x3 DUP1 DUP5 ADD SWAP2 SWAP1 PUSH2 0x3CF4 JUMP JUMPDEST POP PUSH1 0x80 DUP3 ADD MLOAD PUSH1 0x6 DUP3 ADD SSTORE PUSH1 0xA0 DUP3 ADD MLOAD DUP1 MLOAD PUSH2 0x197B SWAP2 PUSH1 0x7 DUP5 ADD SWAP2 PUSH1 0x20 SWAP1 SWAP2 ADD SWAP1 PUSH2 0x3C49 JUMP JUMPDEST POP PUSH1 0xC0 DUP3 ADD MLOAD DUP2 PUSH1 0x8 ADD SSTORE PUSH1 0xE0 DUP3 ADD MLOAD DUP2 PUSH1 0x9 ADD SSTORE PUSH2 0x100 DUP3 ADD MLOAD DUP2 PUSH1 0xA ADD SSTORE SWAP1 POP POP PUSH2 0x19AA CALLER PUSH1 0x7 SLOAD PUSH2 0x3656 JUMP JUMPDEST PUSH1 0x7 DUP1 SLOAD SWAP1 PUSH1 0x0 PUSH2 0x19BA DUP4 PUSH2 0x4962 JUMP JUMPDEST SWAP2 SWAP1 POP SSTORE POP POP POP POP POP POP POP POP POP JUMP JUMPDEST PUSH1 0x0 DUP2 DUP2 MSTORE PUSH1 0x2 PUSH1 0x20 MSTORE PUSH1 0x40 DUP2 KECCAK256 SLOAD PUSH1 0x1 PUSH1 0x1 PUSH1 0xA0 SHL SUB AND DUP1 PUSH2 0xB55 JUMPI PUSH1 0x40 MLOAD PUSH3 0x461BCD PUSH1 0xE5 SHL DUP2 MSTORE PUSH1 0x20 PUSH1 0x4 DUP3 ADD MSTORE PUSH1 0x18 PUSH1 0x24 DUP3 ADD MSTORE PUSH24 0x115490CDCC8C4E881A5B9D985B1A59081D1BDAD95B881251 PUSH1 0x42 SHL PUSH1 0x44 DUP3 ADD MSTORE PUSH1 0x64 ADD PUSH2 0xC4C JUMP JUMPDEST PUSH1 0xE PUSH1 0x20 MSTORE DUP2 PUSH1 0x0 MSTORE PUSH1 0x40 PUSH1 0x0 KECCAK256 DUP2 DUP2 SLOAD DUP2 LT PUSH2 0x1A45 JUMPI PUSH1 0x0 DUP1 REVERT JUMPDEST SWAP1 PUSH1 0x0 MSTORE PUSH1 0x20 PUSH1 0x0 KECCAK256 SWAP1 PUSH1 0x5 MUL ADD PUSH1 0x0 SWAP2 POP SWAP2 POP POP DUP1 PUSH1 0x0 ADD DUP1 SLOAD PUSH2 0x1A69 SWAP1 PUSH2 0x48C4 JUMP JUMPDEST DUP1 PUSH1 0x1F ADD PUSH1 0x20 DUP1 SWAP2 DIV MUL PUSH1 0x20 ADD PUSH1 0x40 MLOAD SWAP1 DUP2 ADD PUSH1 0x40 MSTORE DUP1 SWAP3 SWAP2 SWAP1 DUP2 DUP2 MSTORE PUSH1 0x20 ADD DUP3 DUP1 SLOAD PUSH2 0x1A95 SWAP1 PUSH2 0x48C4 JUMP JUMPDEST DUP1 ISZERO PUSH2 0x1AE2 JUMPI DUP1 PUSH1 0x1F LT PUSH2 0x1AB7 JUMPI PUSH2 0x100 DUP1 DUP4 SLOAD DIV MUL DUP4 MSTORE SWAP2 PUSH1 0x20 ADD SWAP2 PUSH2 0x1AE2 JUMP JUMPDEST DUP3 ADD SWAP2 SWAP1 PUSH1 0x0 MSTORE PUSH1 0x20 PUSH1 0x0 KECCAK256 SWAP1 JUMPDEST DUP2 SLOAD DUP2 MSTORE SWAP1 PUSH1 0x1 ADD SWAP1 PUSH1 0x20 ADD DUP1 DUP4 GT PUSH2 0x1AC5 JUMPI DUP3 SWAP1 SUB PUSH1 0x1F AND DUP3 ADD SWAP2 JUMPDEST POP POP POP POP PUSH1 0x1 DUP4 ADD SLOAD PUSH1 0x2 DUP5 ADD SLOAD PUSH1 0x3 DUP6 ADD SLOAD PUSH1 0x4 SWAP1 SWAP6 ADD SLOAD SWAP4 SWAP5 PUSH1 0x1 PUSH1 0x1 PUSH1 0xA0 SHL SUB SWAP1 SWAP3 AND SWAP4 SWAP1 SWAP3 POP DUP6 JUMP JUMPDEST PUSH1 0x60 PUSH1 0xA PUSH1 0x0 DUP4 DUP2 MSTORE PUSH1 0x20 ADD SWAP1 DUP2 MSTORE PUSH1 0x20 ADD PUSH1 0x0 KECCAK256 DUP1 SLOAD DUP1 PUSH1 0x20 MUL PUSH1 0x20 ADD PUSH1 0x40 MLOAD SWAP1 DUP2 ADD PUSH1 0x40 MSTORE DUP1 SWAP3 SWAP2 SWAP1 DUP2 DUP2 MSTORE PUSH1 0x20 ADD PUSH1 0x0 SWAP1 JUMPDEST DUP3 DUP3 LT ISZERO PUSH2 0x1B8C JUMPI PUSH1 0x0 DUP5 DUP2 MSTORE PUSH1 0x20 SWAP1 DUP2 SWAP1 KECCAK256 PUSH1 0x40 DUP1 MLOAD DUP1 DUP3 ADD SWAP1 SWAP2 MSTORE PUSH1 0x2 DUP6 MUL SWAP1 SWAP2 ADD DUP1 SLOAD PUSH1 0x1 PUSH1 0x1 PUSH1 0xA0 SHL SUB AND DUP3 MSTORE PUSH1 0x1 SWAP1 DUP2 ADD SLOAD DUP3 DUP5 ADD MSTORE SWAP1 DUP4 MSTORE SWAP1 SWAP3 ADD SWAP2 ADD PUSH2 0x1B44 JUMP JUMPDEST POP POP POP POP SWAP1 POP SWAP2 SWAP1 POP JUMP JUMPDEST PUSH1 0x0 PUSH1 0x1 PUSH1 0x1 PUSH1 0xA0 SHL SUB DUP3 AND PUSH2 0x1C01 JUMPI PUSH1 0x40 MLOAD PUSH3 0x461BCD PUSH1 0xE5 SHL DUP2 MSTORE PUSH1 0x20 PUSH1 0x4 DUP3 ADD MSTORE PUSH1 0x29 PUSH1 0x24 DUP3 ADD MSTORE PUSH32 0x4552433732313A2061646472657373207A65726F206973206E6F742061207661 PUSH1 0x44 DUP3 ADD MSTORE PUSH9 0x3634B21037BBB732B9 PUSH1 0xB9 SHL PUSH1 0x64 DUP3 ADD MSTORE PUSH1 0x84 ADD PUSH2 0xC4C JUMP JUMPDEST POP PUSH1 0x1 PUSH1 0x1 PUSH1 0xA0 SHL SUB AND PUSH1 0x0 SWAP1 DUP2 MSTORE PUSH1 0x3 PUSH1 0x20 MSTORE PUSH1 0x40 SWAP1 KECCAK256 SLOAD SWAP1 JUMP JUMPDEST PUSH2 0x1C25 PUSH2 0x35FC JUMP JUMPDEST PUSH2 0x1C2F PUSH1 0x0 PUSH2 0x3670 JUMP JUMPDEST JUMP JUMPDEST PUSH1 0x0 DUP3 DUP2 MSTORE PUSH1 0xF PUSH1 0x20 MSTORE PUSH1 0x40 DUP2 KECCAK256 DUP1 SLOAD DUP4 SWAP1 DUP2 LT PUSH2 0x1C51 JUMPI PUSH2 0x1C51 PUSH2 0x48AE JUMP JUMPDEST SWAP1 PUSH1 0x0 MSTORE PUSH1 0x20 PUSH1 0x0 KECCAK256 SWAP1 PUSH1 0x5 MUL ADD PUSH1 0x3 ADD SLOAD SWAP1 POP PUSH1 0x0 PUSH1 0xF PUSH1 0x0 DUP6 DUP2 MSTORE PUSH1 0x20 ADD SWAP1 DUP2 MSTORE PUSH1 0x20 ADD PUSH1 0x0 KECCAK256 DUP4 DUP2 SLOAD DUP2 LT PUSH2 0x1C8B JUMPI PUSH2 0x1C8B PUSH2 0x48AE JUMP JUMPDEST PUSH1 0x0 SWAP2 DUP3 MSTORE PUSH1 0x20 SWAP1 SWAP2 KECCAK256 PUSH1 0x5 SWAP1 SWAP2 MUL ADD SLOAD PUSH1 0x1 PUSH1 0x1 PUSH1 0xA0 SHL SUB AND SWAP1 POP CALLER DUP2 EQ PUSH2 0xD44 JUMPI PUSH1 0x0 JUMPDEST PUSH1 0x0 DUP6 DUP2 MSTORE PUSH1 0xA PUSH1 0x20 MSTORE PUSH1 0x40 SWAP1 KECCAK256 SLOAD DUP2 LT ISZERO PUSH2 0x1068 JUMPI PUSH1 0x0 DUP6 DUP2 MSTORE PUSH1 0xA PUSH1 0x20 MSTORE PUSH1 0x40 SWAP1 KECCAK256 DUP1 SLOAD DUP3 SWAP1 DUP2 LT PUSH2 0x1CE7 JUMPI PUSH2 0x1CE7 PUSH2 0x48AE JUMP JUMPDEST PUSH1 0x0 SWAP2 DUP3 MSTORE PUSH1 0x20 SWAP1 SWAP2 KECCAK256 PUSH1 0x2 SWAP1 SWAP2 MUL ADD SLOAD PUSH1 0x1 PUSH1 0x1 PUSH1 0xA0 SHL SUB DUP4 DUP2 AND SWAP2 AND EQ ISZERO PUSH2 0x1EA0 JUMPI PUSH1 0x0 DUP6 DUP2 MSTORE PUSH1 0xA PUSH1 0x20 MSTORE PUSH1 0x40 DUP2 KECCAK256 DUP1 SLOAD DUP4 SWAP1 DUP2 LT PUSH2 0x1D2B JUMPI PUSH2 0x1D2B PUSH2 0x48AE JUMP JUMPDEST PUSH1 0x0 SWAP2 DUP3 MSTORE PUSH1 0x20 DUP3 KECCAK256 PUSH1 0x1 PUSH1 0x2 SWAP1 SWAP3 MUL ADD ADD SLOAD SWAP2 POP PUSH2 0x1D4A DUP3 DUP7 PUSH2 0x497D JUMP JUMPDEST SWAP1 POP PUSH1 0x0 PUSH2 0x1D59 DUP4 PUSH1 0x64 PUSH2 0x497D JUMP JUMPDEST SWAP1 POP PUSH1 0xA PUSH2 0x1D68 DUP3 PUSH1 0x8 PUSH2 0x4994 JUMP JUMPDEST PUSH2 0x1D72 SWAP2 SWAP1 PUSH2 0x49B3 JUMP JUMPDEST DUP3 GT ISZERO PUSH2 0x1D88 JUMPI PUSH2 0x1D83 DUP9 DUP6 PUSH2 0x36C2 JUMP JUMPDEST PUSH2 0x1E9C JUMP JUMPDEST PUSH1 0x0 JUMPDEST PUSH1 0x0 DUP10 DUP2 MSTORE PUSH1 0xA PUSH1 0x20 MSTORE PUSH1 0x40 SWAP1 KECCAK256 SLOAD DUP2 LT ISZERO PUSH2 0x1E9A JUMPI PUSH1 0x0 DUP10 DUP2 MSTORE PUSH1 0xA PUSH1 0x20 MSTORE PUSH1 0x40 SWAP1 KECCAK256 DUP1 SLOAD CALLER SWAP2 SWAP1 DUP4 SWAP1 DUP2 LT PUSH2 0x1DC4 JUMPI PUSH2 0x1DC4 PUSH2 0x48AE JUMP JUMPDEST PUSH1 0x0 SWAP2 DUP3 MSTORE PUSH1 0x20 SWAP1 SWAP2 KECCAK256 PUSH1 0x2 SWAP1 SWAP2 MUL ADD SLOAD PUSH1 0x1 PUSH1 0x1 PUSH1 0xA0 SHL SUB AND EQ ISZERO PUSH2 0x1E88 JUMPI PUSH1 0x0 DUP10 DUP2 MSTORE PUSH1 0xA PUSH1 0x20 MSTORE PUSH1 0x40 SWAP1 KECCAK256 DUP1 SLOAD DUP3 SWAP1 DUP2 LT PUSH2 0x1E04 JUMPI PUSH2 0x1E04 PUSH2 0x48AE JUMP JUMPDEST SWAP1 PUSH1 0x0 MSTORE PUSH1 0x20 PUSH1 0x0 KECCAK256 SWAP1 PUSH1 0x2 MUL ADD PUSH1 0x1 ADD SLOAD PUSH1 0xF PUSH1 0x0 DUP12 DUP2 MSTORE PUSH1 0x20 ADD SWAP1 DUP2 MSTORE PUSH1 0x20 ADD PUSH1 0x0 KECCAK256 DUP10 DUP2 SLOAD DUP2 LT PUSH2 0x1E3A JUMPI PUSH2 0x1E3A PUSH2 0x48AE JUMP JUMPDEST SWAP1 PUSH1 0x0 MSTORE PUSH1 0x20 PUSH1 0x0 KECCAK256 SWAP1 PUSH1 0x5 MUL ADD PUSH1 0x3 ADD PUSH1 0x0 DUP3 DUP3 SLOAD PUSH2 0x1E5A SWAP2 SWAP1 PUSH2 0x49D5 JUMP JUMPDEST SWAP1 SWAP2 SSTORE POP PUSH1 0xA SWAP1 POP PUSH2 0x1E6D DUP4 PUSH1 0x8 PUSH2 0x4994 JUMP JUMPDEST PUSH2 0x1E77 SWAP2 SWAP1 PUSH2 0x49B3 JUMP JUMPDEST DUP4 GT ISZERO PUSH2 0x1E88 JUMPI PUSH2 0x1E88 DUP10 DUP7 PUSH2 0x36C2 JUMP JUMPDEST DUP1 PUSH2 0x1E92 DUP2 PUSH2 0x4962 JUMP JUMPDEST SWAP2 POP POP PUSH2 0x1D8B JUMP JUMPDEST POP JUMPDEST POP POP POP JUMPDEST DUP1 PUSH2 0x1EAA DUP2 PUSH2 0x4962 JUMP JUMPDEST SWAP2 POP POP PUSH2 0x1CB1 JUMP JUMPDEST PUSH1 0x0 DUP2 DUP2 MSTORE PUSH1 0xE PUSH1 0x20 SWAP1 DUP2 MSTORE PUSH1 0x40 DUP1 DUP4 KECCAK256 DUP1 SLOAD DUP3 MLOAD DUP2 DUP6 MUL DUP2 ADD DUP6 ADD SWAP1 SWAP4 MSTORE DUP1 DUP4 MSTORE PUSH1 0x60 SWAP5 SWAP4 DUP5 SWAP1 DUP5 ADD JUMPDEST DUP3 DUP3 LT ISZERO PUSH2 0x1229 JUMPI DUP4 DUP3 SWAP1 PUSH1 0x0 MSTORE PUSH1 0x20 PUSH1 0x0 KECCAK256 SWAP1 PUSH1 0x5 MUL ADD PUSH1 0x40 MLOAD DUP1 PUSH1 0xA0 ADD PUSH1 0x40 MSTORE SWAP1 DUP2 PUSH1 0x0 DUP3 ADD DUP1 SLOAD PUSH2 0x1F10 SWAP1 PUSH2 0x48C4 JUMP JUMPDEST DUP1 PUSH1 0x1F ADD PUSH1 0x20 DUP1 SWAP2 DIV MUL PUSH1 0x20 ADD PUSH1 0x40 MLOAD SWAP1 DUP2 ADD PUSH1 0x40 MSTORE DUP1 SWAP3 SWAP2 SWAP1 DUP2 DUP2 MSTORE PUSH1 0x20 ADD DUP3 DUP1 SLOAD PUSH2 0x1F3C SWAP1 PUSH2 0x48C4 JUMP JUMPDEST DUP1 ISZERO PUSH2 0x1F89 JUMPI DUP1 PUSH1 0x1F LT PUSH2 0x1F5E JUMPI PUSH2 0x100 DUP1 DUP4 SLOAD DIV MUL DUP4 MSTORE SWAP2 PUSH1 0x20 ADD SWAP2 PUSH2 0x1F89 JUMP JUMPDEST DUP3 ADD SWAP2 SWAP1 PUSH1 0x0 MSTORE PUSH1 0x20 PUSH1 0x0 KECCAK256 SWAP1 JUMPDEST DUP2 SLOAD DUP2 MSTORE SWAP1 PUSH1 0x1 ADD SWAP1 PUSH1 0x20 ADD DUP1 DUP4 GT PUSH2 0x1F6C JUMPI DUP3 SWAP1 SUB PUSH1 0x1F AND DUP3 ADD SWAP2 JUMPDEST POP POP POP SWAP2 DUP4 MSTORE POP POP PUSH1 0x1 DUP3 DUP2 ADD SLOAD PUSH1 0x1 PUSH1 0x1 PUSH1 0xA0 SHL SUB AND PUSH1 0x20 DUP1 DUP5 ADD SWAP2 SWAP1 SWAP2 MSTORE PUSH1 0x2 DUP5 ADD SLOAD PUSH1 0x40 DUP5 ADD MSTORE PUSH1 0x3 DUP5 ADD SLOAD PUSH1 0x60 DUP5 ADD MSTORE PUSH1 0x4 SWAP1 SWAP4 ADD SLOAD PUSH1 0x80 SWAP1 SWAP3 ADD SWAP2 SWAP1 SWAP2 MSTORE SWAP2 DUP4 MSTORE SWAP3 ADD SWAP2 ADD PUSH2 0x1EDD JUMP JUMPDEST PUSH1 0x60 PUSH1 0x1 DUP1 SLOAD PUSH2 0xD59 SWAP1 PUSH2 0x48C4 JUMP JUMPDEST PUSH2 0x5F4 CALLER DUP4 DUP4 PUSH2 0x3707 JUMP JUMPDEST PUSH1 0x0 PUSH1 0xB DUP3 DUP2 SLOAD DUP2 LT PUSH2 0x2007 JUMPI PUSH2 0x2007 PUSH2 0x48AE JUMP JUMPDEST SWAP1 PUSH1 0x0 MSTORE PUSH1 0x20 PUSH1 0x0 KECCAK256 SWAP1 PUSH1 0x4 MUL ADD PUSH1 0x0 ADD SLOAD SWAP1 POP PUSH1 0x0 PUSH1 0xB DUP4 DUP2 SLOAD DUP2 LT PUSH2 0x2030 JUMPI PUSH2 0x2030 PUSH2 0x48AE JUMP JUMPDEST SWAP1 PUSH1 0x0 MSTORE PUSH1 0x20 PUSH1 0x0 KECCAK256 SWAP1 PUSH1 0x4 MUL ADD PUSH1 0x1 ADD SLOAD SWAP1 POP PUSH1 0x0 PUSH1 0xB DUP5 DUP2 SLOAD DUP2 LT PUSH2 0x2059 JUMPI PUSH2 0x2059 PUSH2 0x48AE JUMP JUMPDEST PUSH1 0x0 SWAP2 DUP3 MSTORE PUSH1 0x20 SWAP1 SWAP2 KECCAK256 PUSH1 0x3 PUSH1 0x4 SWAP1 SWAP3 MUL ADD ADD SLOAD SWAP1 POP CALLER PUSH2 0x207B PUSH1 0x64 DUP4 PUSH2 0x49B3 JUMP JUMPDEST PUSH1 0x0 DUP6 DUP2 MSTORE PUSH1 0x8 PUSH1 0x20 MSTORE PUSH1 0x40 SWAP1 KECCAK256 PUSH1 0x6 ADD SLOAD PUSH2 0x2097 SWAP2 SWAP1 PUSH2 0x4994 JUMP JUMPDEST CALLVALUE EQ PUSH2 0x20A2 JUMPI PUSH1 0x0 DUP1 REVERT JUMPDEST PUSH1 0x0 DUP5 DUP2 MSTORE PUSH1 0xA PUSH1 0x20 MSTORE PUSH1 0x40 SWAP1 KECCAK256 DUP1 SLOAD DUP4 SWAP2 SWAP1 DUP6 SWAP1 DUP2 LT PUSH2 0x20C5 JUMPI PUSH2 0x20C5 PUSH2 0x48AE JUMP JUMPDEST SWAP1 PUSH1 0x0 MSTORE PUSH1 0x20 PUSH1 0x0 KECCAK256 SWAP1 PUSH1 0x2 MUL ADD PUSH1 0x1 ADD PUSH1 0x0 DUP3 DUP3 SLOAD PUSH2 0x20E5 SWAP2 SWAP1 PUSH2 0x497D JUMP JUMPDEST SWAP1 SWAP2 SSTORE POP POP PUSH1 0x0 DUP5 DUP2 MSTORE PUSH1 0xA PUSH1 0x20 MSTORE PUSH1 0x40 SWAP1 KECCAK256 DUP1 SLOAD DUP5 SWAP1 DUP2 LT PUSH2 0x210A JUMPI PUSH2 0x210A PUSH2 0x48AE JUMP JUMPDEST SWAP1 PUSH1 0x0 MSTORE PUSH1 0x20 PUSH1 0x0 KECCAK256 SWAP1 PUSH1 0x2 MUL ADD PUSH1 0x1 ADD SLOAD PUSH1 0x0 EQ ISZERO PUSH2 0x217A JUMPI PUSH1 0x0 DUP5 DUP2 MSTORE PUSH1 0xA PUSH1 0x20 MSTORE PUSH1 0x40 SWAP1 KECCAK256 DUP1 SLOAD CALLER SWAP2 SWAP1 DUP6 SWAP1 DUP2 LT PUSH2 0x2147 JUMPI PUSH2 0x2147 PUSH2 0x48AE JUMP JUMPDEST PUSH1 0x0 SWAP2 DUP3 MSTORE PUSH1 0x20 SWAP1 SWAP2 KECCAK256 PUSH1 0x2 SWAP1 SWAP2 MUL ADD DUP1 SLOAD PUSH1 0x1 PUSH1 0x1 PUSH1 0xA0 SHL SUB NOT AND PUSH1 0x1 PUSH1 0x1 PUSH1 0xA0 SHL SUB SWAP3 SWAP1 SWAP3 AND SWAP2 SWAP1 SWAP2 OR SWAP1 SSTORE PUSH2 0x21D7 JUMP JUMPDEST PUSH1 0x40 DUP1 MLOAD DUP1 DUP3 ADD DUP3 MSTORE PUSH1 0x1 PUSH1 0x1 PUSH1 0xA0 SHL SUB DUP4 DUP2 AND DUP3 MSTORE PUSH1 0x20 DUP1 DUP4 ADD DUP7 DUP2 MSTORE PUSH1 0x0 DUP10 DUP2 MSTORE PUSH1 0xA DUP4 MSTORE SWAP5 DUP6 KECCAK256 DUP1 SLOAD PUSH1 0x1 DUP1 DUP3 ADD DUP4 SSTORE SWAP2 DUP8 MSTORE SWAP3 SWAP1 SWAP6 KECCAK256 SWAP4 MLOAD PUSH1 0x2 SWAP1 SWAP3 MUL SWAP1 SWAP4 ADD DUP1 SLOAD PUSH1 0x1 PUSH1 0x1 PUSH1 0xA0 SHL SUB NOT AND SWAP2 SWAP1 SWAP3 AND OR DUP2 SSTORE SWAP1 MLOAD SWAP2 ADD SSTORE JUMPDEST PUSH1 0xB DUP6 DUP2 SLOAD DUP2 LT PUSH2 0x21EA JUMPI PUSH2 0x21EA PUSH2 0x48AE JUMP JUMPDEST PUSH1 0x0 SWAP2 DUP3 MSTORE PUSH1 0x20 DUP3 KECCAK256 PUSH1 0x4 SWAP1 SWAP2 MUL ADD DUP2 DUP2 SSTORE PUSH1 0x1 DUP2 ADD DUP3 SWAP1 SSTORE PUSH1 0x2 DUP2 ADD DUP1 SLOAD PUSH1 0x1 PUSH1 0x1 PUSH1 0xA0 SHL SUB NOT AND SWAP1 SSTORE PUSH1 0x3 ADD SSTORE POP POP POP POP JUMPDEST POP JUMP JUMPDEST PUSH1 0x0 DUP2 DUP2 MSTORE PUSH1 0xC PUSH1 0x20 SWAP1 DUP2 MSTORE PUSH1 0x40 DUP1 DUP4 KECCAK256 DUP1 SLOAD DUP3 MLOAD DUP2 DUP6 MUL DUP2 ADD DUP6 ADD SWAP1 SWAP4 MSTORE DUP1 DUP4 MSTORE PUSH1 0x60 SWAP5 SWAP4 DUP5 SWAP1 DUP5 ADD JUMPDEST DUP3 DUP3 LT ISZERO PUSH2 0x1229 JUMPI DUP4 DUP3 SWAP1 PUSH1 0x0 MSTORE PUSH1 0x20 PUSH1 0x0 KECCAK256 SWAP1 PUSH1 0x4 MUL ADD PUSH1 0x40 MLOAD DUP1 PUSH1 0x80 ADD PUSH1 0x40 MSTORE SWAP1 DUP2 PUSH1 0x0 DUP3 ADD DUP1 SLOAD PUSH2 0x227F SWAP1 PUSH2 0x48C4 JUMP JUMPDEST DUP1 PUSH1 0x1F ADD PUSH1 0x20 DUP1 SWAP2 DIV MUL PUSH1 0x20 ADD PUSH1 0x40 MLOAD SWAP1 DUP2 ADD PUSH1 0x40 MSTORE DUP1 SWAP3 SWAP2 SWAP1 DUP2 DUP2 MSTORE PUSH1 0x20 ADD DUP3 DUP1 SLOAD PUSH2 0x22AB SWAP1 PUSH2 0x48C4 JUMP JUMPDEST DUP1 ISZERO PUSH2 0x22F8 JUMPI DUP1 PUSH1 0x1F LT PUSH2 0x22CD JUMPI PUSH2 0x100 DUP1 DUP4 SLOAD DIV MUL DUP4 MSTORE SWAP2 PUSH1 0x20 ADD SWAP2 PUSH2 0x22F8 JUMP JUMPDEST DUP3 ADD SWAP2 SWAP1 PUSH1 0x0 MSTORE PUSH1 0x20 PUSH1 0x0 KECCAK256 SWAP1 JUMPDEST DUP2 SLOAD DUP2 MSTORE SWAP1 PUSH1 0x1 ADD SWAP1 PUSH1 0x20 ADD DUP1 DUP4 GT PUSH2 0x22DB JUMPI DUP3 SWAP1 SUB PUSH1 0x1F AND DUP3 ADD SWAP2 JUMPDEST POP POP POP SWAP2 DUP4 MSTORE POP POP PUSH1 0x1 DUP3 DUP2 ADD SLOAD PUSH1 0x1 PUSH1 0x1 PUSH1 0xA0 SHL SUB AND PUSH1 0x20 DUP1 DUP5 ADD SWAP2 SWAP1 SWAP2 MSTORE PUSH1 0x2 DUP5 ADD SLOAD PUSH1 0x40 DUP5 ADD MSTORE PUSH1 0x3 SWAP1 SWAP4 ADD SLOAD PUSH1 0x60 SWAP1 SWAP3 ADD SWAP2 SWAP1 SWAP2 MSTORE SWAP2 DUP4 MSTORE SWAP3 ADD SWAP2 ADD PUSH2 0x224C JUMP JUMPDEST PUSH1 0x0 JUMPDEST PUSH1 0x0 DUP5 DUP2 MSTORE PUSH1 0xA PUSH1 0x20 MSTORE PUSH1 0x40 SWAP1 KECCAK256 SLOAD DUP2 LT ISZERO PUSH2 0xD44 JUMPI PUSH1 0x0 DUP5 DUP2 MSTORE PUSH1 0xA PUSH1 0x20 MSTORE PUSH1 0x40 SWAP1 KECCAK256 DUP1 SLOAD CALLER SWAP2 SWAP1 DUP4 SWAP1 DUP2 LT PUSH2 0x2379 JUMPI PUSH2 0x2379 PUSH2 0x48AE JUMP JUMPDEST PUSH1 0x0 SWAP2 DUP3 MSTORE PUSH1 0x20 SWAP1 SWAP2 KECCAK256 PUSH1 0x2 SWAP1 SWAP2 MUL ADD SLOAD PUSH1 0x1 PUSH1 0x1 PUSH1 0xA0 SHL SUB AND EQ ISZERO PUSH2 0x25A2 JUMPI PUSH1 0x0 DUP5 DUP2 MSTORE PUSH1 0xA PUSH1 0x20 MSTORE PUSH1 0x40 DUP2 KECCAK256 DUP1 SLOAD DUP4 SWAP1 DUP2 LT PUSH2 0x23B9 JUMPI PUSH2 0x23B9 PUSH2 0x48AE JUMP JUMPDEST SWAP1 PUSH1 0x0 MSTORE PUSH1 0x20 PUSH1 0x0 KECCAK256 SWAP1 PUSH1 0x2 MUL ADD PUSH1 0x1 ADD SLOAD SWAP1 POP PUSH1 0x0 PUSH1 0xE PUSH1 0x0 DUP8 DUP2 MSTORE PUSH1 0x20 ADD SWAP1 DUP2 MSTORE PUSH1 0x20 ADD PUSH1 0x0 KECCAK256 DUP6 DUP2 SLOAD DUP2 LT PUSH2 0x23F3 JUMPI PUSH2 0x23F3 PUSH2 0x48AE JUMP JUMPDEST SWAP1 PUSH1 0x0 MSTORE PUSH1 0x20 PUSH1 0x0 KECCAK256 SWAP1 PUSH1 0x5 MUL ADD PUSH1 0x3 ADD SLOAD SWAP1 POP PUSH1 0x0 PUSH1 0xE PUSH1 0x0 DUP9 DUP2 MSTORE PUSH1 0x20 ADD SWAP1 DUP2 MSTORE PUSH1 0x20 ADD PUSH1 0x0 KECCAK256 DUP7 DUP2 SLOAD DUP2 LT PUSH2 0x242D JUMPI PUSH2 0x242D PUSH2 0x48AE JUMP JUMPDEST SWAP1 PUSH1 0x0 MSTORE PUSH1 0x20 PUSH1 0x0 KECCAK256 SWAP1 PUSH1 0x5 MUL ADD PUSH1 0x4 ADD SLOAD SWAP1 POP PUSH1 0x0 PUSH1 0xE PUSH1 0x0 DUP10 DUP2 MSTORE PUSH1 0x20 ADD SWAP1 DUP2 MSTORE PUSH1 0x20 ADD PUSH1 0x0 KECCAK256 DUP8 DUP2 SLOAD DUP2 LT PUSH2 0x2467 JUMPI PUSH2 0x2467 PUSH2 0x48AE JUMP JUMPDEST PUSH1 0x0 SWAP2 DUP3 MSTORE PUSH1 0x20 DUP1 DUP4 KECCAK256 PUSH1 0x1 PUSH1 0x5 SWAP1 SWAP4 MUL ADD SWAP2 SWAP1 SWAP2 ADD SLOAD DUP11 DUP4 MSTORE PUSH1 0xE SWAP1 SWAP2 MSTORE PUSH1 0x40 DUP3 KECCAK256 DUP1 SLOAD PUSH1 0x1 PUSH1 0x1 PUSH1 0xA0 SHL SUB SWAP1 SWAP3 AND SWAP4 POP SWAP1 DUP10 SWAP1 DUP2 LT PUSH2 0x24AA JUMPI PUSH2 0x24AA PUSH2 0x48AE JUMP JUMPDEST SWAP1 PUSH1 0x0 MSTORE PUSH1 0x20 PUSH1 0x0 KECCAK256 SWAP1 PUSH1 0x5 MUL ADD PUSH1 0x2 ADD SLOAD SWAP1 POP PUSH1 0x32 DUP5 LT DUP1 ISZERO PUSH2 0x24CE JUMPI POP PUSH1 0x32 DUP4 LT JUMPDEST ISZERO PUSH2 0x256A JUMPI DUP7 ISZERO PUSH2 0x2527 JUMPI PUSH1 0x0 DUP10 DUP2 MSTORE PUSH1 0xE PUSH1 0x20 MSTORE PUSH1 0x40 SWAP1 KECCAK256 DUP1 SLOAD DUP7 SWAP2 SWAP1 DUP11 SWAP1 DUP2 LT PUSH2 0x24FC JUMPI PUSH2 0x24FC PUSH2 0x48AE JUMP JUMPDEST SWAP1 PUSH1 0x0 MSTORE PUSH1 0x20 PUSH1 0x0 KECCAK256 SWAP1 PUSH1 0x5 MUL ADD PUSH1 0x3 ADD PUSH1 0x0 DUP3 DUP3 SLOAD PUSH2 0x251C SWAP2 SWAP1 PUSH2 0x49D5 JUMP JUMPDEST SWAP1 SWAP2 SSTORE POP PUSH2 0x259C SWAP1 POP JUMP JUMPDEST PUSH1 0x0 DUP10 DUP2 MSTORE PUSH1 0xE PUSH1 0x20 MSTORE PUSH1 0x40 SWAP1 KECCAK256 DUP1 SLOAD DUP7 SWAP2 SWAP1 DUP11 SWAP1 DUP2 LT PUSH2 0x254A JUMPI PUSH2 0x254A PUSH2 0x48AE JUMP JUMPDEST SWAP1 PUSH1 0x0 MSTORE PUSH1 0x20 PUSH1 0x0 KECCAK256 SWAP1 PUSH1 0x5 MUL ADD PUSH1 0x4 ADD PUSH1 0x0 DUP3 DUP3 SLOAD PUSH2 0x251C SWAP2 SWAP1 PUSH2 0x49D5 JUMP JUMPDEST DUP4 PUSH1 0x32 EQ DUP1 ISZERO PUSH2 0x257A JUMPI POP DUP3 PUSH1 0x32 EQ JUMPDEST ISZERO PUSH2 0x2584 JUMPI PUSH2 0x259C JUMP JUMPDEST PUSH1 0x32 DUP5 GT DUP1 PUSH2 0x2593 JUMPI POP PUSH1 0x32 DUP4 GT JUMPDEST PUSH2 0x259C JUMPI PUSH1 0x0 DUP1 REVERT JUMPDEST POP POP POP POP POP JUMPDEST DUP1 PUSH2 0x25AC DUP2 PUSH2 0x4962 JUMP JUMPDEST SWAP2 POP POP PUSH2 0x2340 JUMP JUMPDEST PUSH1 0x0 DUP3 DUP2 MSTORE PUSH1 0xC PUSH1 0x20 MSTORE PUSH1 0x40 DUP2 KECCAK256 DUP1 SLOAD DUP4 SWAP1 DUP2 LT PUSH2 0x25D4 JUMPI PUSH2 0x25D4 PUSH2 0x48AE JUMP JUMPDEST SWAP1 PUSH1 0x0 MSTORE PUSH1 0x20 PUSH1 0x0 KECCAK256 SWAP1 PUSH1 0x4 MUL ADD PUSH1 0x2 ADD SLOAD SWAP1 POP PUSH1 0x0 PUSH1 0xC PUSH1 0x0 DUP6 DUP2 MSTORE PUSH1 0x20 ADD SWAP1 DUP2 MSTORE PUSH1 0x20 ADD PUSH1 0x0 KECCAK256 DUP4 DUP2 SLOAD DUP2 LT PUSH2 0x260E JUMPI PUSH2 0x260E PUSH2 0x48AE JUMP JUMPDEST SWAP1 PUSH1 0x0 MSTORE PUSH1 0x20 PUSH1 0x0 KECCAK256 SWAP1 PUSH1 0x4 MUL ADD PUSH1 0x3 ADD SLOAD SWAP1 POP PUSH1 0x32 DUP3 LT DUP1 ISZERO PUSH2 0x2632 JUMPI POP PUSH1 0x32 DUP2 LT JUMPDEST ISZERO PUSH2 0x263C JUMPI PUSH2 0xD44 JUMP JUMPDEST DUP2 PUSH1 0x32 EQ DUP1 ISZERO PUSH2 0x1068 JUMPI POP POP POP POP POP JUMP JUMPDEST PUSH1 0x0 JUMPDEST PUSH1 0x0 DUP5 DUP2 MSTORE PUSH1 0xA PUSH1 0x20 MSTORE PUSH1 0x40 SWAP1 KECCAK256 SLOAD DUP2 LT ISZERO PUSH2 0xD44 JUMPI PUSH1 0x0 DUP5 DUP2 MSTORE PUSH1 0xA PUSH1 0x20 MSTORE PUSH1 0x40 SWAP1 KECCAK256 DUP1 SLOAD CALLER SWAP2 SWAP1 DUP4 SWAP1 DUP2 LT PUSH2 0x2689 JUMPI PUSH2 0x2689 PUSH2 0x48AE JUMP JUMPDEST PUSH1 0x0 SWAP2 DUP3 MSTORE PUSH1 0x20 SWAP1 SWAP2 KECCAK256 PUSH1 0x2 SWAP1 SWAP2 MUL ADD SLOAD PUSH1 0x1 PUSH1 0x1 PUSH1 0xA0 SHL SUB AND EQ ISZERO PUSH2 0x28B2 JUMPI PUSH1 0x0 DUP5 DUP2 MSTORE PUSH1 0xA PUSH1 0x20 MSTORE PUSH1 0x40 DUP2 KECCAK256 DUP1 SLOAD DUP4 SWAP1 DUP2 LT PUSH2 0x26C9 JUMPI PUSH2 0x26C9 PUSH2 0x48AE JUMP JUMPDEST SWAP1 PUSH1 0x0 MSTORE PUSH1 0x20 PUSH1 0x0 KECCAK256 SWAP1 PUSH1 0x2 MUL ADD PUSH1 0x1 ADD SLOAD SWAP1 POP PUSH1 0x0 PUSH1 0xD PUSH1 0x0 DUP8 DUP2 MSTORE PUSH1 0x20 ADD SWAP1 DUP2 MSTORE PUSH1 0x20 ADD PUSH1 0x0 KECCAK256 DUP6 DUP2 SLOAD DUP2 LT PUSH2 0x2703 JUMPI PUSH2 0x2703 PUSH2 0x48AE JUMP JUMPDEST SWAP1 PUSH1 0x0 MSTORE PUSH1 0x20 PUSH1 0x0 KECCAK256 SWAP1 PUSH1 0x6 MUL ADD PUSH1 0x4 ADD SLOAD SWAP1 POP PUSH1 0x0 PUSH1 0xD PUSH1 0x0 DUP9 DUP2 MSTORE PUSH1 0x20 ADD SWAP1 DUP2 MSTORE PUSH1 0x20 ADD PUSH1 0x0 KECCAK256 DUP7 DUP2 SLOAD DUP2 LT PUSH2 0x273D JUMPI PUSH2 0x273D PUSH2 0x48AE JUMP JUMPDEST SWAP1 PUSH1 0x0 MSTORE PUSH1 0x20 PUSH1 0x0 KECCAK256 SWAP1 PUSH1 0x6 MUL ADD PUSH1 0x5 ADD SLOAD SWAP1 POP PUSH1 0x0 PUSH1 0xD PUSH1 0x0 DUP10 DUP2 MSTORE PUSH1 0x20 ADD SWAP1 DUP2 MSTORE PUSH1 0x20 ADD PUSH1 0x0 KECCAK256 DUP8 DUP2 SLOAD DUP2 LT PUSH2 0x2777 JUMPI PUSH2 0x2777 PUSH2 0x48AE JUMP JUMPDEST PUSH1 0x0 SWAP2 DUP3 MSTORE PUSH1 0x20 DUP1 DUP4 KECCAK256 PUSH1 0x2 PUSH1 0x6 SWAP1 SWAP4 MUL ADD SWAP2 SWAP1 SWAP2 ADD SLOAD DUP11 DUP4 MSTORE PUSH1 0xD SWAP1 SWAP2 MSTORE PUSH1 0x40 DUP3 KECCAK256 DUP1 SLOAD PUSH1 0x1 PUSH1 0x1 PUSH1 0xA0 SHL SUB SWAP1 SWAP3 AND SWAP4 POP SWAP1 DUP10 SWAP1 DUP2 LT PUSH2 0x27BA JUMPI PUSH2 0x27BA PUSH2 0x48AE JUMP JUMPDEST SWAP1 PUSH1 0x0 MSTORE PUSH1 0x20 PUSH1 0x0 KECCAK256 SWAP1 PUSH1 0x6 MUL ADD PUSH1 0x0 ADD SLOAD SWAP1 POP PUSH1 0x32 DUP5 LT DUP1 ISZERO PUSH2 0x27DE JUMPI POP PUSH1 0x32 DUP4 LT JUMPDEST ISZERO PUSH2 0x287A JUMPI DUP7 ISZERO PUSH2 0x2837 JUMPI PUSH1 0x0 DUP10 DUP2 MSTORE PUSH1 0xD PUSH1 0x20 MSTORE PUSH1 0x40 SWAP1 KECCAK256 DUP1 SLOAD DUP7 SWAP2 SWAP1 DUP11 SWAP1 DUP2 LT PUSH2 0x280C JUMPI PUSH2 0x280C PUSH2 0x48AE JUMP JUMPDEST SWAP1 PUSH1 0x0 MSTORE PUSH1 0x20 PUSH1 0x0 KECCAK256 SWAP1 PUSH1 0x6 MUL ADD PUSH1 0x4 ADD PUSH1 0x0 DUP3 DUP3 SLOAD PUSH2 0x282C SWAP2 SWAP1 PUSH2 0x49D5 JUMP JUMPDEST SWAP1 SWAP2 SSTORE POP PUSH2 0x28AC SWAP1 POP JUMP JUMPDEST PUSH1 0x0 DUP10 DUP2 MSTORE PUSH1 0xD PUSH1 0x20 MSTORE PUSH1 0x40 SWAP1 KECCAK256 DUP1 SLOAD DUP7 SWAP2 SWAP1 DUP11 SWAP1 DUP2 LT PUSH2 0x285A JUMPI PUSH2 0x285A PUSH2 0x48AE JUMP JUMPDEST SWAP1 PUSH1 0x0 MSTORE PUSH1 0x20 PUSH1 0x0 KECCAK256 SWAP1 PUSH1 0x6 MUL ADD PUSH1 0x5 ADD PUSH1 0x0 DUP3 DUP3 SLOAD PUSH2 0x282C SWAP2 SWAP1 PUSH2 0x49D5 JUMP JUMPDEST DUP4 PUSH1 0x32 EQ DUP1 ISZERO PUSH2 0x288A JUMPI POP DUP3 PUSH1 0x32 EQ JUMPDEST ISZERO PUSH2 0x2894 JUMPI PUSH2 0x28AC JUMP JUMPDEST PUSH1 0x32 DUP5 GT DUP1 PUSH2 0x28A3 JUMPI POP PUSH1 0x32 DUP4 GT JUMPDEST PUSH2 0x28AC JUMPI PUSH1 0x0 DUP1 REVERT JUMPDEST POP POP POP POP POP JUMPDEST DUP1 PUSH2 0x28BC DUP2 PUSH2 0x4962 JUMP JUMPDEST SWAP2 POP POP PUSH2 0x2650 JUMP JUMPDEST PUSH2 0x28CE CALLER DUP4 PUSH2 0x3419 JUMP JUMPDEST PUSH2 0x28EA JUMPI PUSH1 0x40 MLOAD PUSH3 0x461BCD PUSH1 0xE5 SHL DUP2 MSTORE PUSH1 0x4 ADD PUSH2 0xC4C SWAP1 PUSH2 0x48FF JUMP JUMPDEST PUSH2 0xD44 DUP5 DUP5 DUP5 DUP5 PUSH2 0x37D6 JUMP JUMPDEST PUSH1 0x40 DUP1 MLOAD PUSH1 0xA0 DUP2 ADD DUP3 MSTORE DUP5 DUP2 MSTORE PUSH1 0x1 PUSH1 0x1 PUSH1 0xA0 SHL SUB DUP5 AND PUSH1 0x20 DUP1 DUP4 ADD SWAP2 SWAP1 SWAP2 MSTORE DUP2 DUP4 ADD DUP5 SWAP1 MSTORE PUSH1 0x0 PUSH1 0x60 DUP4 ADD DUP2 SWAP1 MSTORE PUSH1 0x80 DUP4 ADD DUP2 SWAP1 MSTORE DUP8 DUP2 MSTORE PUSH1 0xE DUP3 MSTORE SWAP3 DUP4 KECCAK256 DUP1 SLOAD PUSH1 0x1 DUP2 ADD DUP3 SSTORE SWAP1 DUP5 MSTORE SWAP3 DUP2 SWAP1 KECCAK256 DUP3 MLOAD DUP1 MLOAD SWAP4 SWAP5 DUP6 SWAP5 PUSH1 0x5 SWAP1 SWAP2 MUL SWAP1 SWAP3 ADD SWAP3 PUSH2 0x2965 SWAP3 DUP5 SWAP3 SWAP1 SWAP2 ADD SWAP1 PUSH2 0x3C49 JUMP JUMPDEST POP PUSH1 0x20 DUP3 ADD MLOAD PUSH1 0x1 DUP3 ADD DUP1 SLOAD PUSH1 0x1 PUSH1 0x1 PUSH1 0xA0 SHL SUB NOT AND PUSH1 0x1 PUSH1 0x1 PUSH1 0xA0 SHL SUB SWAP1 SWAP3 AND SWAP2 SWAP1 SWAP2 OR SWAP1 SSTORE PUSH1 0x40 DUP3 ADD MLOAD PUSH1 0x2 DUP3 ADD SSTORE PUSH1 0x60 DUP3 ADD MLOAD PUSH1 0x3 DUP3 ADD SSTORE PUSH1 0x80 SWAP1 SWAP2 ADD MLOAD PUSH1 0x4 SWAP1 SWAP2 ADD SSTORE POP POP POP POP POP JUMP JUMPDEST PUSH1 0x60 PUSH2 0x29BE DUP3 PUSH2 0x334C JUMP JUMPDEST PUSH1 0x0 PUSH2 0x29D5 PUSH1 0x40 DUP1 MLOAD PUSH1 0x20 DUP2 ADD SWAP1 SWAP2 MSTORE PUSH1 0x0 DUP2 MSTORE SWAP1 JUMP JUMPDEST SWAP1 POP PUSH1 0x0 DUP2 MLOAD GT PUSH2 0x29F5 JUMPI PUSH1 0x40 MLOAD DUP1 PUSH1 0x20 ADD PUSH1 0x40 MSTORE DUP1 PUSH1 0x0 DUP2 MSTORE POP PUSH2 0x2A20 JUMP JUMPDEST DUP1 PUSH2 0x29FF DUP5 PUSH2 0x3809 JUMP JUMPDEST PUSH1 0x40 MLOAD PUSH1 0x20 ADD PUSH2 0x2A10 SWAP3 SWAP2 SWAP1 PUSH2 0x49ED JUMP JUMPDEST PUSH1 0x40 MLOAD PUSH1 0x20 DUP2 DUP4 SUB SUB DUP2 MSTORE SWAP1 PUSH1 0x40 MSTORE JUMPDEST SWAP4 SWAP3 POP POP POP JUMP JUMPDEST PUSH1 0xF PUSH1 0x20 MSTORE DUP2 PUSH1 0x0 MSTORE PUSH1 0x40 PUSH1 0x0 KECCAK256 DUP2 DUP2 SLOAD DUP2 LT PUSH2 0x2A43 JUMPI PUSH1 0x0 DUP1 REVERT JUMPDEST PUSH1 0x0 SWAP2 DUP3 MSTORE PUSH1 0x20 SWAP1 SWAP2 KECCAK256 PUSH1 0x5 SWAP1 SWAP2 MUL ADD DUP1 SLOAD PUSH1 0x1 DUP3 ADD DUP1 SLOAD PUSH1 0x1 PUSH1 0x1 PUSH1 0xA0 SHL SUB SWAP1 SWAP3 AND SWAP5 POP SWAP2 SWAP3 POP PUSH2 0x2A74 SWAP1 PUSH2 0x48C4 JUMP JUMPDEST DUP1 PUSH1 0x1F ADD PUSH1 0x20 DUP1 SWAP2 DIV MUL PUSH1 0x20 ADD PUSH1 0x40 MLOAD SWAP1 DUP2 ADD PUSH1 0x40 MSTORE DUP1 SWAP3 SWAP2 SWAP1 DUP2 DUP2 MSTORE PUSH1 0x20 ADD DUP3 DUP1 SLOAD PUSH2 0x2AA0 SWAP1 PUSH2 0x48C4 JUMP JUMPDEST DUP1 ISZERO PUSH2 0x2AED JUMPI DUP1 PUSH1 0x1F LT PUSH2 0x2AC2 JUMPI PUSH2 0x100 DUP1 DUP4 SLOAD DIV MUL DUP4 MSTORE SWAP2 PUSH1 0x20 ADD SWAP2 PUSH2 0x2AED JUMP JUMPDEST DUP3 ADD SWAP2 SWAP1 PUSH1 0x0 MSTORE PUSH1 0x20 PUSH1 0x0 KECCAK256 SWAP1 JUMPDEST DUP2 SLOAD DUP2 MSTORE SWAP1 PUSH1 0x1 ADD SWAP1 PUSH1 0x20 ADD DUP1 DUP4 GT PUSH2 0x2AD0 JUMPI DUP3 SWAP1 SUB PUSH1 0x1F AND DUP3 ADD SWAP2 JUMPDEST POP POP POP POP POP SWAP1 DUP1 PUSH1 0x2 ADD DUP1 SLOAD PUSH2 0x2B02 SWAP1 PUSH2 0x48C4 JUMP JUMPDEST DUP1 PUSH1 0x1F ADD PUSH1 0x20 DUP1 SWAP2 DIV MUL PUSH1 0x20 ADD PUSH1 0x40 MLOAD SWAP1 DUP2 ADD PUSH1 0x40 MSTORE DUP1 SWAP3 SWAP2 SWAP1 DUP2 DUP2 MSTORE PUSH1 0x20 ADD DUP3 DUP1 SLOAD PUSH2 0x2B2E SWAP1 PUSH2 0x48C4 JUMP JUMPDEST DUP1 ISZERO PUSH2 0x2B7B JUMPI DUP1 PUSH1 0x1F LT PUSH2 0x2B50 JUMPI PUSH2 0x100 DUP1 DUP4 SLOAD DIV MUL DUP4 MSTORE SWAP2 PUSH1 0x20 ADD SWAP2 PUSH2 0x2B7B JUMP JUMPDEST DUP3 ADD SWAP2 SWAP1 PUSH1 0x0 MSTORE PUSH1 0x20 PUSH1 0x0 KECCAK256 SWAP1 JUMPDEST DUP2 SLOAD DUP2 MSTORE SWAP1 PUSH1 0x1 ADD SWAP1 PUSH1 0x20 ADD DUP1 DUP4 GT PUSH2 0x2B5E JUMPI DUP3 SWAP1 SUB PUSH1 0x1F AND DUP3 ADD SWAP2 JUMPDEST POP POP POP POP PUSH1 0x3 DUP4 ADD SLOAD PUSH1 0x4 SWAP1 SWAP4 ADD SLOAD SWAP2 SWAP3 SWAP2 PUSH1 0x1 PUSH1 0x1 PUSH1 0xA0 SHL SUB AND SWAP1 POP DUP6 JUMP JUMPDEST PUSH1 0x0 DUP3 DUP2 MSTORE PUSH1 0x2 PUSH1 0x20 MSTORE PUSH1 0x40 SWAP1 KECCAK256 SLOAD PUSH1 0x1 PUSH1 0x1 PUSH1 0xA0 SHL SUB AND PUSH2 0x2BF2 JUMPI PUSH1 0x40 MLOAD PUSH3 0x461BCD PUSH1 0xE5 SHL DUP2 MSTORE PUSH1 0x20 PUSH1 0x4 DUP3 ADD MSTORE PUSH1 0x10 PUSH1 0x24 DUP3 ADD MSTORE PUSH16 0x125B9D985B1A5908151BDAD95B881259 PUSH1 0x82 SHL PUSH1 0x44 DUP3 ADD MSTORE PUSH1 0x64 ADD PUSH2 0xC4C JUMP JUMPDEST PUSH1 0x0 DUP3 DUP2 MSTORE PUSH1 0x8 PUSH1 0x20 MSTORE PUSH1 0x40 SWAP1 KECCAK256 PUSH1 0xA ADD SLOAD DUP2 LT PUSH2 0x2C47 JUMPI PUSH1 0x40 MLOAD PUSH3 0x461BCD PUSH1 0xE5 SHL DUP2 MSTORE PUSH1 0x20 PUSH1 0x4 DUP3 ADD MSTORE PUSH1 0x12 PUSH1 0x24 DUP3 ADD MSTORE PUSH18 0x496E737566666963656E7420736861726573 PUSH1 0x70 SHL PUSH1 0x44 DUP3 ADD MSTORE PUSH1 0x64 ADD PUSH2 0xC4C JUMP JUMPDEST PUSH2 0x2C52 PUSH1 0x64 DUP3 PUSH2 0x49B3 JUMP JUMPDEST PUSH1 0x0 DUP4 DUP2 MSTORE PUSH1 0x8 PUSH1 0x20 MSTORE PUSH1 0x40 SWAP1 KECCAK256 PUSH1 0x6 ADD SLOAD PUSH2 0x2C6E SWAP2 SWAP1 PUSH2 0x4994 JUMP JUMPDEST CALLVALUE EQ PUSH2 0x2CB2 JUMPI PUSH1 0x40 MLOAD PUSH3 0x461BCD PUSH1 0xE5 SHL DUP2 MSTORE PUSH1 0x20 PUSH1 0x4 DUP3 ADD MSTORE PUSH1 0x13 PUSH1 0x24 DUP3 ADD MSTORE PUSH19 0x496E737566666963656E742042616C616E6365 PUSH1 0x68 SHL PUSH1 0x44 DUP3 ADD MSTORE PUSH1 0x64 ADD PUSH2 0xC4C JUMP JUMPDEST PUSH1 0x1 PUSH1 0x0 JUMPDEST PUSH1 0x0 DUP5 DUP2 MSTORE PUSH1 0xA PUSH1 0x20 MSTORE PUSH1 0x40 SWAP1 KECCAK256 SLOAD DUP2 LT ISZERO PUSH2 0x2D77 JUMPI PUSH1 0x0 DUP5 DUP2 MSTORE PUSH1 0xA PUSH1 0x20 MSTORE PUSH1 0x40 SWAP1 KECCAK256 DUP1 SLOAD CALLER SWAP2 SWAP1 DUP4 SWAP1 DUP2 LT PUSH2 0x2CF0 JUMPI PUSH2 0x2CF0 PUSH2 0x48AE JUMP JUMPDEST PUSH1 0x0 SWAP2 DUP3 MSTORE PUSH1 0x20 SWAP1 SWAP2 KECCAK256 PUSH1 0x2 SWAP1 SWAP2 MUL ADD SLOAD PUSH1 0x1 PUSH1 0x1 PUSH1 0xA0 SHL SUB AND EQ ISZERO PUSH2 0x2D60 JUMPI PUSH1 0x0 DUP5 DUP2 MSTORE PUSH1 0xA PUSH1 0x20 MSTORE PUSH1 0x40 DUP2 KECCAK256 DUP1 SLOAD SWAP2 SWAP4 POP DUP5 SWAP2 DUP4 SWAP1 DUP2 LT PUSH2 0x2D35 JUMPI PUSH2 0x2D35 PUSH2 0x48AE JUMP JUMPDEST SWAP1 PUSH1 0x0 MSTORE PUSH1 0x20 PUSH1 0x0 KECCAK256 SWAP1 PUSH1 0x2 MUL ADD PUSH1 0x1 ADD PUSH1 0x0 DUP3 DUP3 SLOAD PUSH2 0x2D55 SWAP2 SWAP1 PUSH2 0x49D5 JUMP JUMPDEST SWAP1 SWAP2 SSTORE POP PUSH2 0x2D65 SWAP1 POP JUMP JUMPDEST PUSH1 0x1 SWAP2 POP JUMPDEST DUP1 PUSH2 0x2D6F DUP2 PUSH2 0x4962 JUMP JUMPDEST SWAP2 POP POP PUSH2 0x2CB7 JUMP JUMPDEST POP DUP1 ISZERO PUSH2 0xF14 JUMPI PUSH1 0x40 DUP1 MLOAD DUP1 DUP3 ADD DUP3 MSTORE CALLER DUP2 MSTORE PUSH1 0x20 DUP1 DUP3 ADD DUP6 DUP2 MSTORE PUSH1 0x0 DUP8 DUP2 MSTORE PUSH1 0xA DUP1 DUP5 MSTORE DUP6 DUP3 KECCAK256 DUP1 SLOAD PUSH1 0x1 DUP1 DUP3 ADD DUP4 SSTORE SWAP2 DUP5 MSTORE DUP6 DUP5 KECCAK256 DUP8 MLOAD PUSH1 0x2 SWAP1 SWAP3 MUL ADD DUP1 SLOAD PUSH1 0x1 PUSH1 0x1 PUSH1 0xA0 SHL SUB NOT AND PUSH1 0x1 PUSH1 0x1 PUSH1 0xA0 SHL SUB SWAP1 SWAP3 AND SWAP2 SWAP1 SWAP2 OR DUP2 SSTORE SWAP4 MLOAD SWAP4 ADD SWAP3 SWAP1 SWAP3 SSTORE DUP8 DUP2 MSTORE PUSH1 0x8 SWAP1 SWAP3 MSTORE SWAP3 DUP2 KECCAK256 SWAP1 SWAP3 ADD DUP1 SLOAD SWAP2 SWAP3 DUP6 SWAP3 PUSH2 0x2DFA SWAP1 DUP5 SWAP1 PUSH2 0x497D JUMP JUMPDEST SWAP1 SWAP2 SSTORE POP POP POP POP POP POP JUMP JUMPDEST PUSH2 0x2E0D PUSH2 0x35FC JUMP JUMPDEST PUSH1 0x1 PUSH1 0x1 PUSH1 0xA0 SHL SUB DUP2 AND PUSH2 0x2E72 JUMPI PUSH1 0x40 MLOAD PUSH3 0x461BCD PUSH1 0xE5 SHL DUP2 MSTORE PUSH1 0x20 PUSH1 0x4 DUP3 ADD MSTORE PUSH1 0x26 PUSH1 0x24 DUP3 ADD MSTORE PUSH32 0x4F776E61626C653A206E6577206F776E657220697320746865207A65726F2061 PUSH1 0x44 DUP3 ADD MSTORE PUSH6 0x646472657373 PUSH1 0xD0 SHL PUSH1 0x64 DUP3 ADD MSTORE PUSH1 0x84 ADD PUSH2 0xC4C JUMP JUMPDEST PUSH2 0x221E DUP2 PUSH2 0x3670 JUMP JUMPDEST PUSH1 0x8 PUSH1 0x20 MSTORE PUSH1 0x0 SWAP1 DUP2 MSTORE PUSH1 0x40 SWAP1 KECCAK256 DUP1 SLOAD DUP2 SWAP1 PUSH2 0x2E96 SWAP1 PUSH2 0x48C4 JUMP JUMPDEST DUP1 PUSH1 0x1F ADD PUSH1 0x20 DUP1 SWAP2 DIV MUL PUSH1 0x20 ADD PUSH1 0x40 MLOAD SWAP1 DUP2 ADD PUSH1 0x40 MSTORE DUP1 SWAP3 SWAP2 SWAP1 DUP2 DUP2 MSTORE PUSH1 0x20 ADD DUP3 DUP1 SLOAD PUSH2 0x2EC2 SWAP1 PUSH2 0x48C4 JUMP JUMPDEST DUP1 ISZERO PUSH2 0x2F0F JUMPI DUP1 PUSH1 0x1F LT PUSH2 0x2EE4 JUMPI PUSH2 0x100 DUP1 DUP4 SLOAD DIV MUL DUP4 MSTORE SWAP2 PUSH1 0x20 ADD SWAP2 PUSH2 0x2F0F JUMP JUMPDEST DUP3 ADD SWAP2 SWAP1 PUSH1 0x0 MSTORE PUSH1 0x20 PUSH1 0x0 KECCAK256 SWAP1 JUMPDEST DUP2 SLOAD DUP2 MSTORE SWAP1 PUSH1 0x1 ADD SWAP1 PUSH1 0x20 ADD DUP1 DUP4 GT PUSH2 0x2EF2 JUMPI DUP3 SWAP1 SUB PUSH1 0x1F AND DUP3 ADD SWAP2 JUMPDEST POP POP POP POP POP SWAP1 DUP1 PUSH1 0x1 ADD DUP1 SLOAD PUSH2 0x2F24 SWAP1 PUSH2 0x48C4 JUMP JUMPDEST DUP1 PUSH1 0x1F ADD PUSH1 0x20 DUP1 SWAP2 DIV MUL PUSH1 0x20 ADD PUSH1 0x40 MLOAD SWAP1 DUP2 ADD PUSH1 0x40 MSTORE DUP1 SWAP3 SWAP2 SWAP1 DUP2 DUP2 MSTORE PUSH1 0x20 ADD DUP3 DUP1 SLOAD PUSH2 0x2F50 SWAP1 PUSH2 0x48C4 JUMP JUMPDEST DUP1 ISZERO PUSH2 0x2F9D JUMPI DUP1 PUSH1 0x1F LT PUSH2 0x2F72 JUMPI PUSH2 0x100 DUP1 DUP4 SLOAD DIV MUL DUP4 MSTORE SWAP2 PUSH1 0x20 ADD SWAP2 PUSH2 0x2F9D JUMP JUMPDEST DUP3 ADD SWAP2 SWAP1 PUSH1 0x0 MSTORE PUSH1 0x20 PUSH1 0x0 KECCAK256 SWAP1 JUMPDEST DUP2 SLOAD DUP2 MSTORE SWAP1 PUSH1 0x1 ADD SWAP1 PUSH1 0x20 ADD DUP1 DUP4 GT PUSH2 0x2F80 JUMPI DUP3 SWAP1 SUB PUSH1 0x1F AND DUP3 ADD SWAP2 JUMPDEST POP POP POP POP PUSH1 0x2 DUP4 ADD SLOAD PUSH1 0x6 DUP5 ADD SLOAD PUSH1 0x7 DUP6 ADD DUP1 SLOAD SWAP5 SWAP6 PUSH1 0x1 PUSH1 0x1 PUSH1 0xA0 SHL SUB SWAP1 SWAP4 AND SWAP5 SWAP2 SWAP4 POP SWAP1 PUSH2 0x2FCC SWAP1 PUSH2 0x48C4 JUMP JUMPDEST DUP1 PUSH1 0x1F ADD PUSH1 0x20 DUP1 SWAP2 DIV MUL PUSH1 0x20 ADD PUSH1 0x40 MLOAD SWAP1 DUP2 ADD PUSH1 0x40 MSTORE DUP1 SWAP3 SWAP2 SWAP1 DUP2 DUP2 MSTORE PUSH1 0x20 ADD DUP3 DUP1 SLOAD PUSH2 0x2FF8 SWAP1 PUSH2 0x48C4 JUMP JUMPDEST DUP1 ISZERO PUSH2 0x3045 JUMPI DUP1 PUSH1 0x1F LT PUSH2 0x301A JUMPI PUSH2 0x100 DUP1 DUP4 SLOAD DIV MUL DUP4 MSTORE SWAP2 PUSH1 0x20 ADD SWAP2 PUSH2 0x3045 JUMP JUMPDEST DUP3 ADD SWAP2 SWAP1 PUSH1 0x0 MSTORE PUSH1 0x20 PUSH1 0x0 KECCAK256 SWAP1 JUMPDEST DUP2 SLOAD DUP2 MSTORE SWAP1 PUSH1 0x1 ADD SWAP1 PUSH1 0x20 ADD DUP1 DUP4 GT PUSH2 0x3028 JUMPI DUP3 SWAP1 SUB PUSH1 0x1F AND DUP3 ADD SWAP2 JUMPDEST POP POP POP POP POP SWAP1 DUP1 PUSH1 0x8 ADD SLOAD SWAP1 DUP1 PUSH1 0x9 ADD SLOAD SWAP1 DUP1 PUSH1 0xA ADD SLOAD SWAP1 POP DUP9 JUMP JUMPDEST PUSH1 0x40 DUP1 MLOAD PUSH1 0x80 DUP2 ADD DUP3 MSTORE DUP3 DUP2 MSTORE CALLER PUSH1 0x20 DUP1 DUP4 ADD SWAP2 SWAP1 SWAP2 MSTORE PUSH1 0x0 DUP3 DUP5 ADD DUP2 SWAP1 MSTORE PUSH1 0x60 DUP4 ADD DUP2 SWAP1 MSTORE DUP6 DUP2 MSTORE PUSH1 0xC DUP3 MSTORE SWAP3 DUP4 KECCAK256 DUP1 SLOAD PUSH1 0x1 DUP2 ADD DUP3 SSTORE SWAP1 DUP5 MSTORE SWAP3 DUP2 SWAP1 KECCAK256 DUP3 MLOAD DUP1 MLOAD SWAP4 SWAP5 DUP6 SWAP5 PUSH1 0x4 SWAP1 SWAP2 MUL SWAP1 SWAP3 ADD SWAP3 PUSH2 0x30C0 SWAP3 DUP5 SWAP3 SWAP1 SWAP2 ADD SWAP1 PUSH2 0x3C49 JUMP JUMPDEST POP PUSH1 0x20 DUP3 ADD MLOAD PUSH1 0x1 DUP3 ADD DUP1 SLOAD PUSH1 0x1 PUSH1 0x1 PUSH1 0xA0 SHL SUB NOT AND PUSH1 0x1 PUSH1 0x1 PUSH1 0xA0 SHL SUB SWAP1 SWAP3 AND SWAP2 SWAP1 SWAP2 OR SWAP1 SSTORE PUSH1 0x40 DUP3 ADD MLOAD PUSH1 0x2 DUP3 ADD SSTORE PUSH1 0x60 SWAP1 SWAP2 ADD MLOAD PUSH1 0x3 SWAP1 SWAP2 ADD SSTORE POP POP POP JUMP JUMPDEST PUSH1 0x0 DUP1 PUSH1 0x0 DUP1 PUSH1 0x0 PUSH1 0xB DUP7 DUP2 SLOAD DUP2 LT PUSH2 0x311D JUMPI PUSH2 0x311D PUSH2 0x48AE JUMP JUMPDEST PUSH1 0x0 SWAP2 DUP3 MSTORE PUSH1 0x20 SWAP2 DUP3 SWAP1 KECCAK256 PUSH1 0x40 DUP1 MLOAD PUSH1 0x80 DUP2 ADD DUP3 MSTORE PUSH1 0x4 SWAP4 SWAP1 SWAP4 MUL SWAP1 SWAP2 ADD DUP1 SLOAD DUP1 DUP5 MSTORE PUSH1 0x1 DUP3 ADD SLOAD SWAP5 DUP5 ADD DUP6 SWAP1 MSTORE PUSH1 0x2 DUP3 ADD SLOAD PUSH1 0x1 PUSH1 0x1 PUSH1 0xA0 SHL SUB AND SWAP3 DUP5 ADD DUP4 SWAP1 MSTORE PUSH1 0x3 SWAP1 SWAP2 ADD SLOAD PUSH1 0x60 SWAP1 SWAP4 ADD DUP4 SWAP1 MSTORE SWAP10 SWAP3 SWAP9 POP SWAP7 POP SWAP5 POP SWAP3 POP POP POP JUMP JUMPDEST PUSH1 0xD PUSH1 0x20 MSTORE DUP2 PUSH1 0x0 MSTORE PUSH1 0x40 PUSH1 0x0 KECCAK256 DUP2 DUP2 SLOAD DUP2 LT PUSH2 0x3197 JUMPI PUSH1 0x0 DUP1 REVERT JUMPDEST SWAP1 PUSH1 0x0 MSTORE PUSH1 0x20 PUSH1 0x0 KECCAK256 SWAP1 PUSH1 0x6 MUL ADD PUSH1 0x0 SWAP2 POP SWAP2 POP POP DUP1 PUSH1 0x0 ADD SLOAD SWAP1 DUP1 PUSH1 0x1 ADD DUP1 SLOAD PUSH2 0x31C1 SWAP1 PUSH2 0x48C4 JUMP JUMPDEST DUP1 PUSH1 0x1F ADD PUSH1 0x20 DUP1 SWAP2 DIV MUL PUSH1 0x20 ADD PUSH1 0x40 MLOAD SWAP1 DUP2 ADD PUSH1 0x40 MSTORE DUP1 SWAP3 SWAP2 SWAP1 DUP2 DUP2 MSTORE PUSH1 0x20 ADD DUP3 DUP1 SLOAD PUSH2 0x31ED SWAP1 PUSH2 0x48C4 JUMP JUMPDEST DUP1 ISZERO PUSH2 0x323A JUMPI DUP1 PUSH1 0x1F LT PUSH2 0x320F JUMPI PUSH2 0x100 DUP1 DUP4 SLOAD DIV MUL DUP4 MSTORE SWAP2 PUSH1 0x20 ADD SWAP2 PUSH2 0x323A JUMP JUMPDEST DUP3 ADD SWAP2 SWAP1 PUSH1 0x0 MSTORE PUSH1 0x20 PUSH1 0x0 KECCAK256 SWAP1 JUMPDEST DUP2 SLOAD DUP2 MSTORE SWAP1 PUSH1 0x1 ADD SWAP1 PUSH1 0x20 ADD DUP1 DUP4 GT PUSH2 0x321D JUMPI DUP3 SWAP1 SUB PUSH1 0x1F AND DUP3 ADD SWAP2 JUMPDEST POP POP POP POP PUSH1 0x2 DUP4 ADD SLOAD PUSH1 0x3 DUP5 ADD SLOAD PUSH1 0x4 DUP6 ADD SLOAD PUSH1 0x5 SWAP1 SWAP6 ADD SLOAD SWAP4 SWAP5 PUSH1 0x1 PUSH1 0x1 PUSH1 0xA0 SHL SUB SWAP3 DUP4 AND SWAP5 SWAP3 SWAP1 SWAP2 AND SWAP3 POP SWAP1 DUP7 JUMP JUMPDEST PUSH1 0xC PUSH1 0x20 MSTORE DUP2 PUSH1 0x0 MSTORE PUSH1 0x40 PUSH1 0x0 KECCAK256 DUP2 DUP2 SLOAD DUP2 LT PUSH2 0x3287 JUMPI PUSH1 0x0 DUP1 REVERT JUMPDEST SWAP1 PUSH1 0x0 MSTORE PUSH1 0x20 PUSH1 0x0 KECCAK256 SWAP1 PUSH1 0x4 MUL ADD PUSH1 0x0 SWAP2 POP SWAP2 POP POP DUP1 PUSH1 0x0 ADD DUP1 SLOAD PUSH2 0x32AB SWAP1 PUSH2 0x48C4 JUMP JUMPDEST DUP1 PUSH1 0x1F ADD PUSH1 0x20 DUP1 SWAP2 DIV MUL PUSH1 0x20 ADD PUSH1 0x40 MLOAD SWAP1 DUP2 ADD PUSH1 0x40 MSTORE DUP1 SWAP3 SWAP2 SWAP1 DUP2 DUP2 MSTORE PUSH1 0x20 ADD DUP3 DUP1 SLOAD PUSH2 0x32D7 SWAP1 PUSH2 0x48C4 JUMP JUMPDEST DUP1 ISZERO PUSH2 0x3324 JUMPI DUP1 PUSH1 0x1F LT PUSH2 0x32F9 JUMPI PUSH2 0x100 DUP1 DUP4 SLOAD DIV MUL DUP4 MSTORE SWAP2 PUSH1 0x20 ADD SWAP2 PUSH2 0x3324 JUMP JUMPDEST DUP3 ADD SWAP2 SWAP1 PUSH1 0x0 MSTORE PUSH1 0x20 PUSH1 0x0 KECCAK256 SWAP1 JUMPDEST DUP2 SLOAD DUP2 MSTORE SWAP1 PUSH1 0x1 ADD SWAP1 PUSH1 0x20 ADD DUP1 DUP4 GT PUSH2 0x3307 JUMPI DUP3 SWAP1 SUB PUSH1 0x1F AND DUP3 ADD SWAP2 JUMPDEST POP POP POP POP PUSH1 0x1 DUP4 ADD SLOAD PUSH1 0x2 DUP5 ADD SLOAD PUSH1 0x3 SWAP1 SWAP5 ADD SLOAD SWAP3 SWAP4 PUSH1 0x1 PUSH1 0x1 PUSH1 0xA0 SHL SUB SWAP1 SWAP2 AND SWAP3 SWAP1 SWAP2 POP DUP5 JUMP JUMPDEST PUSH1 0x0 DUP2 DUP2 MSTORE PUSH1 0x2 PUSH1 0x20 MSTORE PUSH1 0x40 SWAP1 KECCAK256 SLOAD PUSH1 0x1 PUSH1 0x1 PUSH1 0xA0 SHL SUB AND PUSH2 0x221E JUMPI PUSH1 0x40 MLOAD PUSH3 0x461BCD PUSH1 0xE5 SHL DUP2 MSTORE PUSH1 0x20 PUSH1 0x4 DUP3 ADD MSTORE PUSH1 0x18 PUSH1 0x24 DUP3 ADD MSTORE PUSH24 0x115490CDCC8C4E881A5B9D985B1A59081D1BDAD95B881251 PUSH1 0x42 SHL PUSH1 0x44 DUP3 ADD MSTORE PUSH1 0x64 ADD PUSH2 0xC4C JUMP JUMPDEST PUSH1 0x0 DUP2 DUP2 MSTORE PUSH1 0x4 PUSH1 0x20 MSTORE PUSH1 0x40 SWAP1 KECCAK256 DUP1 SLOAD PUSH1 0x1 PUSH1 0x1 PUSH1 0xA0 SHL SUB NOT AND PUSH1 0x1 PUSH1 0x1 PUSH1 0xA0 SHL SUB DUP5 AND SWAP1 DUP2 OR SWAP1 SWAP2 SSTORE DUP2 SWAP1 PUSH2 0x33E0 DUP3 PUSH2 0x19C9 JUMP JUMPDEST PUSH1 0x1 PUSH1 0x1 PUSH1 0xA0 SHL SUB AND PUSH32 0x8C5BE1E5EBEC7D5BD14F71427D1E84F3DD0314C0F7B2291E5B200AC8C7C3B925 PUSH1 0x40 MLOAD PUSH1 0x40 MLOAD DUP1 SWAP2 SUB SWAP1 LOG4 POP POP JUMP JUMPDEST PUSH1 0x0 DUP1 PUSH2 0x3425 DUP4 PUSH2 0x19C9 JUMP JUMPDEST SWAP1 POP DUP1 PUSH1 0x1 PUSH1 0x1 PUSH1 0xA0 SHL SUB AND DUP5 PUSH1 0x1 PUSH1 0x1 PUSH1 0xA0 SHL SUB AND EQ DUP1 PUSH2 0x346C JUMPI POP PUSH1 0x1 PUSH1 0x1 PUSH1 0xA0 SHL SUB DUP1 DUP3 AND PUSH1 0x0 SWAP1 DUP2 MSTORE PUSH1 0x5 PUSH1 0x20 SWAP1 DUP2 MSTORE PUSH1 0x40 DUP1 DUP4 KECCAK256 SWAP4 DUP9 AND DUP4 MSTORE SWAP3 SWAP1 MSTORE KECCAK256 SLOAD PUSH1 0xFF AND JUMPDEST DUP1 PUSH2 0x3490 JUMPI POP DUP4 PUSH1 0x1 PUSH1 0x1 PUSH1 0xA0 SHL SUB AND PUSH2 0x3485 DUP5 PUSH2 0xDDC JUMP JUMPDEST PUSH1 0x1 PUSH1 0x1 PUSH1 0xA0 SHL SUB AND EQ JUMPDEST SWAP5 SWAP4 POP POP POP POP JUMP JUMPDEST DUP3 PUSH1 0x1 PUSH1 0x1 PUSH1 0xA0 SHL SUB AND PUSH2 0x34AB DUP3 PUSH2 0x19C9 JUMP JUMPDEST PUSH1 0x1 PUSH1 0x1 PUSH1 0xA0 SHL SUB AND EQ PUSH2 0x34D1 JUMPI PUSH1 0x40 MLOAD PUSH3 0x461BCD PUSH1 0xE5 SHL DUP2 MSTORE PUSH1 0x4 ADD PUSH2 0xC4C SWAP1 PUSH2 0x4A1C JUMP JUMPDEST PUSH1 0x1 PUSH1 0x1 PUSH1 0xA0 SHL SUB DUP3 AND PUSH2 0x3533 JUMPI PUSH1 0x40 MLOAD PUSH3 0x461BCD PUSH1 0xE5 SHL DUP2 MSTORE PUSH1 0x20 PUSH1 0x4 DUP3 ADD MSTORE PUSH1 0x24 DUP1 DUP3 ADD MSTORE PUSH32 0x4552433732313A207472616E7366657220746F20746865207A65726F20616464 PUSH1 0x44 DUP3 ADD MSTORE PUSH4 0x72657373 PUSH1 0xE0 SHL PUSH1 0x64 DUP3 ADD MSTORE PUSH1 0x84 ADD PUSH2 0xC4C JUMP JUMPDEST DUP3 PUSH1 0x1 PUSH1 0x1 PUSH1 0xA0 SHL SUB AND PUSH2 0x3546 DUP3 PUSH2 0x19C9 JUMP JUMPDEST PUSH1 0x1 PUSH1 0x1 PUSH1 0xA0 SHL SUB AND EQ PUSH2 0x356C JUMPI PUSH1 0x40 MLOAD PUSH3 0x461BCD PUSH1 0xE5 SHL DUP2 MSTORE PUSH1 0x4 ADD PUSH2 0xC4C SWAP1 PUSH2 0x4A1C JUMP JUMPDEST PUSH1 0x0 DUP2 DUP2 MSTORE PUSH1 0x4 PUSH1 0x20 SWAP1 DUP2 MSTORE PUSH1 0x40 DUP1 DUP4 KECCAK256 DUP1 SLOAD PUSH1 0x1 PUSH1 0x1 PUSH1 0xA0 SHL SUB NOT SWAP1 DUP2 AND SWAP1 SWAP2 SSTORE PUSH1 0x1 PUSH1 0x1 PUSH1 0xA0 SHL SUB DUP8 DUP2 AND DUP1 DUP7 MSTORE PUSH1 0x3 DUP6 MSTORE DUP4 DUP7 KECCAK256 DUP1 SLOAD PUSH1 0x0 NOT ADD SWAP1 SSTORE SWAP1 DUP8 AND DUP1 DUP7 MSTORE DUP4 DUP7 KECCAK256 DUP1 SLOAD PUSH1 0x1 ADD SWAP1 SSTORE DUP7 DUP7 MSTORE PUSH1 0x2 SWAP1 SWAP5 MSTORE DUP3 DUP6 KECCAK256 DUP1 SLOAD SWAP1 SWAP3 AND DUP5 OR SWAP1 SWAP2 SSTORE SWAP1 MLOAD DUP5 SWAP4 PUSH32 0xDDF252AD1BE2C89B69C2B068FC378DAA952BA7F163C4A11628F55A4DF523B3EF SWAP2 LOG4 POP POP POP JUMP JUMPDEST PUSH1 0x6 SLOAD PUSH1 0x1 PUSH1 0x1 PUSH1 0xA0 SHL SUB AND CALLER EQ PUSH2 0x1C2F JUMPI PUSH1 0x40 MLOAD PUSH3 0x461BCD PUSH1 0xE5 SHL DUP2 MSTORE PUSH1 0x20 PUSH1 0x4 DUP3 ADD DUP2 SWAP1 MSTORE PUSH1 0x24 DUP3 ADD MSTORE PUSH32 0x4F776E61626C653A2063616C6C6572206973206E6F7420746865206F776E6572 PUSH1 0x44 DUP3 ADD MSTORE PUSH1 0x64 ADD PUSH2 0xC4C JUMP JUMPDEST PUSH2 0x5F4 DUP3 DUP3 PUSH1 0x40 MLOAD DUP1 PUSH1 0x20 ADD PUSH1 0x40 MSTORE DUP1 PUSH1 0x0 DUP2 MSTORE POP PUSH2 0x38A6 JUMP JUMPDEST PUSH1 0x6 DUP1 SLOAD PUSH1 0x1 PUSH1 0x1 PUSH1 0xA0 SHL SUB DUP4 DUP2 AND PUSH1 0x1 PUSH1 0x1 PUSH1 0xA0 SHL SUB NOT DUP4 AND DUP2 OR SWAP1 SWAP4 SSTORE PUSH1 0x40 MLOAD SWAP2 AND SWAP2 SWAP1 DUP3 SWAP1 PUSH32 0x8BE0079C531659141344CD1FD0A4F28419497F9722A3DAAFE3B4186F6B6457E0 SWAP1 PUSH1 0x0 SWAP1 LOG3 POP POP JUMP JUMPDEST PUSH1 0x0 DUP3 DUP2 MSTORE PUSH1 0xA PUSH1 0x20 MSTORE PUSH1 0x40 SWAP1 KECCAK256 DUP1 SLOAD DUP3 SWAP1 DUP2 LT PUSH2 0x36E2 JUMPI PUSH2 0x36E2 PUSH2 0x48AE JUMP JUMPDEST PUSH1 0x0 SWAP2 DUP3 MSTORE PUSH1 0x20 DUP3 KECCAK256 PUSH1 0x2 SWAP1 SWAP2 MUL ADD DUP1 SLOAD PUSH1 0x1 PUSH1 0x1 PUSH1 0xA0 SHL SUB NOT AND DUP2 SSTORE PUSH1 0x1 ADD SSTORE POP POP JUMP JUMPDEST DUP2 PUSH1 0x1 PUSH1 0x1 PUSH1 0xA0 SHL SUB AND DUP4 PUSH1 0x1 PUSH1 0x1 PUSH1 0xA0 SHL SUB AND EQ ISZERO PUSH2 0x3769 JUMPI PUSH1 0x40 MLOAD PUSH3 0x461BCD PUSH1 0xE5 SHL DUP2 MSTORE PUSH1 0x20 PUSH1 0x4 DUP3 ADD MSTORE PUSH1 0x19 PUSH1 0x24 DUP3 ADD MSTORE PUSH32 0x4552433732313A20617070726F766520746F2063616C6C657200000000000000 PUSH1 0x44 DUP3 ADD MSTORE PUSH1 0x64 ADD PUSH2 0xC4C JUMP JUMPDEST PUSH1 0x1 PUSH1 0x1 PUSH1 0xA0 SHL SUB DUP4 DUP2 AND PUSH1 0x0 DUP2 DUP2 MSTORE PUSH1 0x5 PUSH1 0x20 SWAP1 DUP2 MSTORE PUSH1 0x40 DUP1 DUP4 KECCAK256 SWAP5 DUP8 AND DUP1 DUP5 MSTORE SWAP5 DUP3 MSTORE SWAP2 DUP3 SWAP1 KECCAK256 DUP1 SLOAD PUSH1 0xFF NOT AND DUP7 ISZERO ISZERO SWAP1 DUP2 OR SWAP1 SWAP2 SSTORE SWAP2 MLOAD SWAP2 DUP3 MSTORE PUSH32 0x17307EAB39AB6107E8899845AD3D59BD9653F200F220920489CA2B5937696C31 SWAP2 ADD PUSH1 0x40 MLOAD DUP1 SWAP2 SUB SWAP1 LOG3 POP POP POP JUMP JUMPDEST PUSH2 0x37E1 DUP5 DUP5 DUP5 PUSH2 0x3498 JUMP JUMPDEST PUSH2 0x37ED DUP5 DUP5 DUP5 DUP5 PUSH2 0x38D9 JUMP JUMPDEST PUSH2 0xD44 JUMPI PUSH1 0x40 MLOAD PUSH3 0x461BCD PUSH1 0xE5 SHL DUP2 MSTORE PUSH1 0x4 ADD PUSH2 0xC4C SWAP1 PUSH2 0x4A61 JUMP JUMPDEST PUSH1 0x60 PUSH1 0x0 PUSH2 0x3816 DUP4 PUSH2 0x39E6 JUMP JUMPDEST PUSH1 0x1 ADD SWAP1 POP PUSH1 0x0 DUP2 PUSH8 0xFFFFFFFFFFFFFFFF DUP2 GT ISZERO PUSH2 0x3836 JUMPI PUSH2 0x3836 PUSH2 0x3F07 JUMP JUMPDEST PUSH1 0x40 MLOAD SWAP1 DUP1 DUP3 MSTORE DUP1 PUSH1 0x1F ADD PUSH1 0x1F NOT AND PUSH1 0x20 ADD DUP3 ADD PUSH1 0x40 MSTORE DUP1 ISZERO PUSH2 0x3860 JUMPI PUSH1 0x20 DUP3 ADD DUP2 DUP1 CALLDATASIZE DUP4 CALLDATACOPY ADD SWAP1 POP JUMPDEST POP SWAP1 POP DUP2 DUP2 ADD PUSH1 0x20 ADD JUMPDEST PUSH1 0x0 NOT ADD PUSH16 0x181899199A1A9B1B9C1CB0B131B232B3 PUSH1 0x81 SHL PUSH1 0xA DUP7 MOD BYTE DUP2 MSTORE8 PUSH1 0xA DUP6 DIV SWAP5 POP DUP5 PUSH2 0x3899 JUMPI PUSH2 0x389E JUMP JUMPDEST PUSH2 0x386A JUMP JUMPDEST POP SWAP4 SWAP3 POP POP POP JUMP JUMPDEST PUSH2 0x38B0 DUP4 DUP4 PUSH2 0x3ABE JUMP JUMPDEST PUSH2 0x38BD PUSH1 0x0 DUP5 DUP5 DUP5 PUSH2 0x38D9 JUMP JUMPDEST PUSH2 0xF14 JUMPI PUSH1 0x40 MLOAD PUSH3 0x461BCD PUSH1 0xE5 SHL DUP2 MSTORE PUSH1 0x4 ADD PUSH2 0xC4C SWAP1 PUSH2 0x4A61 JUMP JUMPDEST PUSH1 0x0 PUSH1 0x1 PUSH1 0x1 PUSH1 0xA0 SHL SUB DUP5 AND EXTCODESIZE ISZERO PUSH2 0x39DB JUMPI PUSH1 0x40 MLOAD PUSH4 0xA85BD01 PUSH1 0xE1 SHL DUP2 MSTORE PUSH1 0x1 PUSH1 0x1 PUSH1 0xA0 SHL SUB DUP6 AND SWAP1 PUSH4 0x150B7A02 SWAP1 PUSH2 0x391D SWAP1 CALLER SWAP1 DUP10 SWAP1 DUP9 SWAP1 DUP9 SWAP1 PUSH1 0x4 ADD PUSH2 0x4AB3 JUMP JUMPDEST PUSH1 0x20 PUSH1 0x40 MLOAD DUP1 DUP4 SUB DUP2 PUSH1 0x0 DUP8 DUP1 EXTCODESIZE ISZERO DUP1 ISZERO PUSH2 0x3937 JUMPI PUSH1 0x0 DUP1 REVERT JUMPDEST POP GAS CALL SWAP3 POP POP POP DUP1 ISZERO PUSH2 0x3967 JUMPI POP PUSH1 0x40 DUP1 MLOAD PUSH1 0x1F RETURNDATASIZE SWAP1 DUP2 ADD PUSH1 0x1F NOT AND DUP3 ADD SWAP1 SWAP3 MSTORE PUSH2 0x3964 SWAP2 DUP2 ADD SWAP1 PUSH2 0x4AF0 JUMP JUMPDEST PUSH1 0x1 JUMPDEST PUSH2 0x39C1 JUMPI RETURNDATASIZE DUP1 DUP1 ISZERO PUSH2 0x3995 JUMPI PUSH1 0x40 MLOAD SWAP2 POP PUSH1 0x1F NOT PUSH1 0x3F RETURNDATASIZE ADD AND DUP3 ADD PUSH1 0x40 MSTORE RETURNDATASIZE DUP3 MSTORE RETURNDATASIZE PUSH1 0x0 PUSH1 0x20 DUP5 ADD RETURNDATACOPY PUSH2 0x399A JUMP JUMPDEST PUSH1 0x60 SWAP2 POP JUMPDEST POP DUP1 MLOAD PUSH2 0x39B9 JUMPI PUSH1 0x40 MLOAD PUSH3 0x461BCD PUSH1 0xE5 SHL DUP2 MSTORE PUSH1 0x4 ADD PUSH2 0xC4C SWAP1 PUSH2 0x4A61 JUMP JUMPDEST DUP1 MLOAD DUP2 PUSH1 0x20 ADD REVERT JUMPDEST PUSH1 0x1 PUSH1 0x1 PUSH1 0xE0 SHL SUB NOT AND PUSH4 0xA85BD01 PUSH1 0xE1 SHL EQ SWAP1 POP PUSH2 0x3490 JUMP JUMPDEST POP PUSH1 0x1 SWAP5 SWAP4 POP POP POP POP JUMP JUMPDEST PUSH1 0x0 DUP1 PUSH19 0x184F03E93FF9F4DAA797ED6E38ED64BF6A1F01 PUSH1 0x40 SHL DUP4 LT PUSH2 0x3A25 JUMPI PUSH19 0x184F03E93FF9F4DAA797ED6E38ED64BF6A1F01 PUSH1 0x40 SHL DUP4 DIV SWAP3 POP PUSH1 0x40 ADD JUMPDEST PUSH14 0x4EE2D6D415B85ACEF8100000000 DUP4 LT PUSH2 0x3A51 JUMPI PUSH14 0x4EE2D6D415B85ACEF8100000000 DUP4 DIV SWAP3 POP PUSH1 0x20 ADD JUMPDEST PUSH7 0x2386F26FC10000 DUP4 LT PUSH2 0x3A6F JUMPI PUSH7 0x2386F26FC10000 DUP4 DIV SWAP3 POP PUSH1 0x10 ADD JUMPDEST PUSH4 0x5F5E100 DUP4 LT PUSH2 0x3A87 JUMPI PUSH4 0x5F5E100 DUP4 DIV SWAP3 POP PUSH1 0x8 ADD JUMPDEST PUSH2 0x2710 DUP4 LT PUSH2 0x3A9B JUMPI PUSH2 0x2710 DUP4 DIV SWAP3 POP PUSH1 0x4 ADD JUMPDEST PUSH1 0x64 DUP4 LT PUSH2 0x3AAD JUMPI PUSH1 0x64 DUP4 DIV SWAP3 POP PUSH1 0x2 ADD JUMPDEST PUSH1 0xA DUP4 LT PUSH2 0xB55 JUMPI PUSH1 0x1 ADD SWAP3 SWAP2 POP POP JUMP JUMPDEST PUSH1 0x1 PUSH1 0x1 PUSH1 0xA0 SHL SUB DUP3 AND PUSH2 0x3B14 JUMPI PUSH1 0x40 MLOAD PUSH3 0x461BCD PUSH1 0xE5 SHL DUP2 MSTORE PUSH1 0x20 PUSH1 0x4 DUP3 ADD DUP2 SWAP1 MSTORE PUSH1 0x24 DUP3 ADD MSTORE PUSH32 0x4552433732313A206D696E7420746F20746865207A65726F2061646472657373 PUSH1 0x44 DUP3 ADD MSTORE PUSH1 0x64 ADD PUSH2 0xC4C JUMP JUMPDEST PUSH1 0x0 DUP2 DUP2 MSTORE PUSH1 0x2 PUSH1 0x20 MSTORE PUSH1 0x40 SWAP1 KECCAK256 SLOAD PUSH1 0x1 PUSH1 0x1 PUSH1 0xA0 SHL SUB AND ISZERO PUSH2 0x3B79 JUMPI PUSH1 0x40 MLOAD PUSH3 0x461BCD PUSH1 0xE5 SHL DUP2 MSTORE PUSH1 0x20 PUSH1 0x4 DUP3 ADD MSTORE PUSH1 0x1C PUSH1 0x24 DUP3 ADD MSTORE PUSH32 0x4552433732313A20746F6B656E20616C7265616479206D696E74656400000000 PUSH1 0x44 DUP3 ADD MSTORE PUSH1 0x64 ADD PUSH2 0xC4C JUMP JUMPDEST PUSH1 0x0 DUP2 DUP2 MSTORE PUSH1 0x2 PUSH1 0x20 MSTORE PUSH1 0x40 SWAP1 KECCAK256 SLOAD PUSH1 0x1 PUSH1 0x1 PUSH1 0xA0 SHL SUB AND ISZERO PUSH2 0x3BDE JUMPI PUSH1 0x40 MLOAD PUSH3 0x461BCD PUSH1 0xE5 SHL DUP2 MSTORE PUSH1 0x20 PUSH1 0x4 DUP3 ADD MSTORE PUSH1 0x1C PUSH1 0x24 DUP3 ADD MSTORE PUSH32 0x4552433732313A20746F6B656E20616C7265616479206D696E74656400000000 PUSH1 0x44 DUP3 ADD MSTORE PUSH1 0x64 ADD PUSH2 0xC4C JUMP JUMPDEST PUSH1 0x1 PUSH1 0x1 PUSH1 0xA0 SHL SUB DUP3 AND PUSH1 0x0 DUP2 DUP2 MSTORE PUSH1 0x3 PUSH1 0x20 SWAP1 DUP2 MSTORE PUSH1 0x40 DUP1 DUP4 KECCAK256 DUP1 SLOAD PUSH1 0x1 ADD SWAP1 SSTORE DUP5 DUP4 MSTORE PUSH1 0x2 SWAP1 SWAP2 MSTORE DUP1 DUP3 KECCAK256 DUP1 SLOAD PUSH1 0x1 PUSH1 0x1 PUSH1 0xA0 SHL SUB NOT AND DUP5 OR SWAP1 SSTORE MLOAD DUP4 SWAP3 SWAP2 SWAP1 PUSH32 0xDDF252AD1BE2C89B69C2B068FC378DAA952BA7F163C4A11628F55A4DF523B3EF SWAP1 DUP3 SWAP1 LOG4 POP POP JUMP JUMPDEST DUP3 DUP1 SLOAD PUSH2 0x3C55 SWAP1 PUSH2 0x48C4 JUMP JUMPDEST SWAP1 PUSH1 0x0 MSTORE PUSH1 0x20 PUSH1 0x0 KECCAK256 SWAP1 PUSH1 0x1F ADD PUSH1 0x20 SWAP1 DIV DUP2 ADD SWAP3 DUP3 PUSH2 0x3C77 JUMPI PUSH1 0x0 DUP6 SSTORE PUSH2 0x3CBD JUMP JUMPDEST DUP3 PUSH1 0x1F LT PUSH2 0x3C90 JUMPI DUP1 MLOAD PUSH1 0xFF NOT AND DUP4 DUP1 ADD OR DUP6 SSTORE PUSH2 0x3CBD JUMP JUMPDEST DUP3 DUP1 ADD PUSH1 0x1 ADD DUP6 SSTORE DUP3 ISZERO PUSH2 0x3CBD JUMPI SWAP2 DUP3 ADD JUMPDEST DUP3 DUP2 GT ISZERO PUSH2 0x3CBD JUMPI DUP3 MLOAD DUP3 SSTORE SWAP2 PUSH1 0x20 ADD SWAP2 SWAP1 PUSH1 0x1 ADD SWAP1 PUSH2 0x3CA2 JUMP JUMPDEST POP PUSH2 0x3CC9 SWAP3 SWAP2 POP PUSH2 0x3D40 JUMP JUMPDEST POP SWAP1 JUMP JUMPDEST PUSH1 0x40 MLOAD DUP1 PUSH1 0x60 ADD PUSH1 0x40 MSTORE DUP1 PUSH1 0x3 SWAP1 JUMPDEST PUSH1 0x60 DUP2 MSTORE PUSH1 0x20 ADD SWAP1 PUSH1 0x1 SWAP1 SUB SWAP1 DUP2 PUSH2 0x3CDC JUMPI SWAP1 POP POP SWAP1 JUMP JUMPDEST DUP3 PUSH1 0x3 DUP2 ADD SWAP3 DUP3 ISZERO PUSH2 0x3D34 JUMPI SWAP2 PUSH1 0x20 MUL DUP3 ADD JUMPDEST DUP3 DUP2 GT ISZERO PUSH2 0x3D34 JUMPI DUP3 MLOAD DUP1 MLOAD PUSH2 0x3D24 SWAP2 DUP5 SWAP2 PUSH1 0x20 SWAP1 SWAP2 ADD SWAP1 PUSH2 0x3C49 JUMP JUMPDEST POP SWAP2 PUSH1 0x20 ADD SWAP2 SWAP1 PUSH1 0x1 ADD SWAP1 PUSH2 0x3D07 JUMP JUMPDEST POP PUSH2 0x3CC9 SWAP3 SWAP2 POP PUSH2 0x3D55 JUMP JUMPDEST JUMPDEST DUP1 DUP3 GT ISZERO PUSH2 0x3CC9 JUMPI PUSH1 0x0 DUP2 SSTORE PUSH1 0x1 ADD PUSH2 0x3D41 JUMP JUMPDEST DUP1 DUP3 GT ISZERO PUSH2 0x3CC9 JUMPI PUSH1 0x0 PUSH2 0x3D69 DUP3 DUP3 PUSH2 0x3D72 JUMP JUMPDEST POP PUSH1 0x1 ADD PUSH2 0x3D55 JUMP JUMPDEST POP DUP1 SLOAD PUSH2 0x3D7E SWAP1 PUSH2 0x48C4 JUMP JUMPDEST PUSH1 0x0 DUP3 SSTORE DUP1 PUSH1 0x1F LT PUSH2 0x3D8E JUMPI POP POP JUMP JUMPDEST PUSH1 0x1F ADD PUSH1 0x20 SWAP1 DIV SWAP1 PUSH1 0x0 MSTORE PUSH1 0x20 PUSH1 0x0 KECCAK256 SWAP1 DUP2 ADD SWAP1 PUSH2 0x221E SWAP2 SWAP1 PUSH2 0x3D40 JUMP JUMPDEST PUSH1 0x0 DUP1 PUSH1 0x40 DUP4 DUP6 SUB SLT ISZERO PUSH2 0x3DBF JUMPI PUSH1 0x0 DUP1 REVERT JUMPDEST POP POP DUP1 CALLDATALOAD SWAP3 PUSH1 0x20 SWAP1 SWAP2 ADD CALLDATALOAD SWAP2 POP JUMP JUMPDEST PUSH1 0x1 PUSH1 0x1 PUSH1 0xE0 SHL SUB NOT DUP2 AND DUP2 EQ PUSH2 0x221E JUMPI PUSH1 0x0 DUP1 REVERT JUMPDEST PUSH1 0x0 PUSH1 0x20 DUP3 DUP5 SUB SLT ISZERO PUSH2 0x3DF6 JUMPI PUSH1 0x0 DUP1 REVERT JUMPDEST DUP2 CALLDATALOAD PUSH2 0x2A20 DUP2 PUSH2 0x3DCE JUMP JUMPDEST PUSH1 0x0 PUSH1 0x20 DUP3 DUP5 SUB SLT ISZERO PUSH2 0x3E13 JUMPI PUSH1 0x0 DUP1 REVERT JUMPDEST POP CALLDATALOAD SWAP2 SWAP1 POP JUMP JUMPDEST PUSH1 0x0 JUMPDEST DUP4 DUP2 LT ISZERO PUSH2 0x3E35 JUMPI DUP2 DUP2 ADD MLOAD DUP4 DUP3 ADD MSTORE PUSH1 0x20 ADD PUSH2 0x3E1D JUMP JUMPDEST DUP4 DUP2 GT ISZERO PUSH2 0xD44 JUMPI POP POP PUSH1 0x0 SWAP2 ADD MSTORE JUMP JUMPDEST PUSH1 0x0 DUP2 MLOAD DUP1 DUP5 MSTORE PUSH2 0x3E5E DUP2 PUSH1 0x20 DUP7 ADD PUSH1 0x20 DUP7 ADD PUSH2 0x3E1A JUMP JUMPDEST PUSH1 0x1F ADD PUSH1 0x1F NOT AND SWAP3 SWAP1 SWAP3 ADD PUSH1 0x20 ADD SWAP3 SWAP2 POP POP JUMP JUMPDEST PUSH1 0x20 DUP2 MSTORE PUSH1 0x0 PUSH2 0x2A20 PUSH1 0x20 DUP4 ADD DUP5 PUSH2 0x3E46 JUMP JUMPDEST DUP1 CALLDATALOAD PUSH1 0x1 PUSH1 0x1 PUSH1 0xA0 SHL SUB DUP2 AND DUP2 EQ PUSH2 0x3E9C JUMPI PUSH1 0x0 DUP1 REVERT JUMPDEST SWAP2 SWAP1 POP JUMP JUMPDEST PUSH1 0x0 DUP1 PUSH1 0x40 DUP4 DUP6 SUB SLT ISZERO PUSH2 0x3EB4 JUMPI PUSH1 0x0 DUP1 REVERT JUMPDEST PUSH2 0x3EBD DUP4 PUSH2 0x3E85 JUMP JUMPDEST SWAP5 PUSH1 0x20 SWAP4 SWAP1 SWAP4 ADD CALLDATALOAD SWAP4 POP POP POP JUMP JUMPDEST PUSH1 0x0 DUP1 PUSH1 0x0 PUSH1 0x60 DUP5 DUP7 SUB SLT ISZERO PUSH2 0x3EE0 JUMPI PUSH1 0x0 DUP1 REVERT JUMPDEST PUSH2 0x3EE9 DUP5 PUSH2 0x3E85 JUMP JUMPDEST SWAP3 POP PUSH2 0x3EF7 PUSH1 0x20 DUP6 ADD PUSH2 0x3E85 JUMP JUMPDEST SWAP2 POP PUSH1 0x40 DUP5 ADD CALLDATALOAD SWAP1 POP SWAP3 POP SWAP3 POP SWAP3 JUMP JUMPDEST PUSH4 0x4E487B71 PUSH1 0xE0 SHL PUSH1 0x0 MSTORE PUSH1 0x41 PUSH1 0x4 MSTORE PUSH1 0x24 PUSH1 0x0 REVERT JUMPDEST PUSH1 0x0 PUSH8 0xFFFFFFFFFFFFFFFF DUP1 DUP5 GT ISZERO PUSH2 0x3F38 JUMPI PUSH2 0x3F38 PUSH2 0x3F07 JUMP JUMPDEST PUSH1 0x40 MLOAD PUSH1 0x1F DUP6 ADD PUSH1 0x1F NOT SWAP1 DUP2 AND PUSH1 0x3F ADD AND DUP2 ADD SWAP1 DUP3 DUP3 GT DUP2 DUP4 LT OR ISZERO PUSH2 0x3F60 JUMPI PUSH2 0x3F60 PUSH2 0x3F07 JUMP JUMPDEST DUP2 PUSH1 0x40 MSTORE DUP1 SWAP4 POP DUP6 DUP2 MSTORE DUP7 DUP7 DUP7 ADD GT ISZERO PUSH2 0x3F79 JUMPI PUSH1 0x0 DUP1 REVERT JUMPDEST DUP6 DUP6 PUSH1 0x20 DUP4 ADD CALLDATACOPY PUSH1 0x0 PUSH1 0x20 DUP8 DUP4 ADD ADD MSTORE POP POP POP SWAP4 SWAP3 POP POP POP JUMP JUMPDEST PUSH1 0x0 DUP3 PUSH1 0x1F DUP4 ADD SLT PUSH2 0x3FA4 JUMPI PUSH1 0x0 DUP1 REVERT JUMPDEST PUSH2 0x2A20 DUP4 DUP4 CALLDATALOAD PUSH1 0x20 DUP6 ADD PUSH2 0x3F1D JUMP JUMPDEST PUSH1 0x0 DUP1 PUSH1 0x0 DUP1 PUSH1 0x80 DUP6 DUP8 SUB SLT ISZERO PUSH2 0x3FC9 JUMPI PUSH1 0x0 DUP1 REVERT JUMPDEST DUP5 CALLDATALOAD SWAP4 POP PUSH2 0x3FD9 PUSH1 0x20 DUP7 ADD PUSH2 0x3E85 JUMP JUMPDEST SWAP3 POP PUSH1 0x40 DUP6 ADD CALLDATALOAD PUSH8 0xFFFFFFFFFFFFFFFF DUP1 DUP3 GT ISZERO PUSH2 0x3FF6 JUMPI PUSH1 0x0 DUP1 REVERT JUMPDEST PUSH2 0x4002 DUP9 DUP4 DUP10 ADD PUSH2 0x3F93 JUMP JUMPDEST SWAP4 POP PUSH1 0x60 DUP8 ADD CALLDATALOAD SWAP2 POP DUP1 DUP3 GT ISZERO PUSH2 0x4018 JUMPI PUSH1 0x0 DUP1 REVERT JUMPDEST POP PUSH2 0x4025 DUP8 DUP3 DUP9 ADD PUSH2 0x3F93 JUMP JUMPDEST SWAP2 POP POP SWAP3 SWAP6 SWAP2 SWAP5 POP SWAP3 POP JUMP JUMPDEST PUSH1 0x0 PUSH1 0x20 DUP1 DUP4 ADD DUP2 DUP5 MSTORE DUP1 DUP6 MLOAD DUP1 DUP4 MSTORE PUSH1 0x40 SWAP3 POP DUP3 DUP7 ADD SWAP2 POP DUP3 DUP2 PUSH1 0x5 SHL DUP8 ADD ADD DUP5 DUP9 ADD PUSH1 0x0 JUMPDEST DUP4 DUP2 LT ISZERO PUSH2 0x40DA JUMPI DUP9 DUP4 SUB PUSH1 0x3F NOT ADD DUP6 MSTORE DUP2 MLOAD DUP1 MLOAD PUSH1 0x1 PUSH1 0x1 PUSH1 0xA0 SHL SUB SWAP1 DUP2 AND DUP6 MSTORE DUP9 DUP3 ADD MLOAD PUSH1 0xA0 DUP11 DUP8 ADD DUP2 SWAP1 MSTORE SWAP2 SWAP1 PUSH2 0x4094 DUP4 DUP9 ADD DUP3 PUSH2 0x3E46 JUMP JUMPDEST SWAP3 POP POP DUP9 DUP4 ADD MLOAD DUP7 DUP4 SUB DUP11 DUP9 ADD MSTORE PUSH2 0x40AC DUP4 DUP3 PUSH2 0x3E46 JUMP JUMPDEST PUSH1 0x60 DUP6 DUP2 ADD MLOAD SWAP1 DUP10 ADD MSTORE PUSH1 0x80 SWAP5 DUP6 ADD MLOAD SWAP1 SWAP3 AND SWAP4 SWAP1 SWAP7 ADD SWAP3 SWAP1 SWAP3 MSTORE POP SWAP5 DUP8 ADD SWAP5 SWAP3 POP SWAP1 DUP7 ADD SWAP1 PUSH1 0x1 ADD PUSH2 0x4058 JUMP JUMPDEST POP SWAP1 SWAP9 SWAP8 POP POP POP POP POP POP POP POP JUMP JUMPDEST PUSH1 0x0 PUSH2 0x120 DUP1 DUP4 MSTORE PUSH2 0x40FC DUP2 DUP5 ADD DUP14 PUSH2 0x3E46 JUMP JUMPDEST SWAP1 POP PUSH1 0x20 DUP4 DUP3 SUB DUP2 DUP6 ADD MSTORE PUSH2 0x4111 DUP3 DUP14 PUSH2 0x3E46 JUMP JUMPDEST PUSH1 0x1 PUSH1 0x1 PUSH1 0xA0 SHL SUB DUP13 AND PUSH1 0x40 DUP7 ADD MSTORE DUP5 DUP2 SUB PUSH1 0x60 DUP1 DUP8 ADD SWAP2 SWAP1 SWAP2 MSTORE SWAP1 SWAP3 POP DUP3 SWAP1 DUP2 ADD DUP12 PUSH1 0x0 JUMPDEST PUSH1 0x3 DUP2 LT ISZERO PUSH2 0x4162 JUMPI DUP6 DUP4 SUB DUP5 MSTORE PUSH2 0x4150 DUP4 DUP4 MLOAD PUSH2 0x3E46 JUMP JUMPDEST SWAP4 DUP6 ADD SWAP4 SWAP3 POP SWAP1 DUP5 ADD SWAP1 PUSH1 0x1 ADD PUSH2 0x4137 JUMP JUMPDEST POP POP DUP11 PUSH1 0x80 DUP8 ADD MSTORE DUP6 DUP2 SUB PUSH1 0xA0 DUP8 ADD MSTORE PUSH2 0x417C DUP2 DUP12 PUSH2 0x3E46 JUMP JUMPDEST PUSH1 0xC0 DUP8 ADD SWAP10 SWAP1 SWAP10 MSTORE POP POP POP POP PUSH1 0xE0 DUP3 ADD SWAP4 SWAP1 SWAP4 MSTORE PUSH2 0x100 ADD MSTORE POP SWAP7 SWAP6 POP POP POP POP POP POP JUMP JUMPDEST PUSH1 0x0 PUSH1 0x20 DUP1 DUP4 ADD DUP2 DUP5 MSTORE DUP1 DUP6 MLOAD DUP1 DUP4 MSTORE PUSH1 0x40 SWAP3 POP DUP3 DUP7 ADD SWAP2 POP DUP3 DUP2 PUSH1 0x5 SHL DUP8 ADD ADD DUP5 DUP9 ADD PUSH1 0x0 JUMPDEST DUP4 DUP2 LT ISZERO PUSH2 0x40DA JUMPI PUSH1 0x3F NOT DUP10 DUP5 SUB ADD DUP6 MSTORE DUP2 MLOAD PUSH1 0xC0 DUP2 MLOAD DUP6 MSTORE DUP9 DUP3 ADD MLOAD DUP2 DUP11 DUP8 ADD MSTORE PUSH2 0x41F5 DUP3 DUP8 ADD DUP3 PUSH2 0x3E46 JUMP JUMPDEST DUP10 DUP5 ADD MLOAD PUSH1 0x1 PUSH1 0x1 PUSH1 0xA0 SHL SUB SWAP1 DUP2 AND DUP9 DUP13 ADD MSTORE PUSH1 0x60 DUP1 DUP7 ADD MLOAD SWAP1 SWAP2 AND SWAP1 DUP9 ADD MSTORE PUSH1 0x80 DUP1 DUP6 ADD MLOAD SWAP1 DUP9 ADD MSTORE PUSH1 0xA0 SWAP4 DUP5 ADD MLOAD SWAP4 SWAP1 SWAP7 ADD SWAP3 SWAP1 SWAP3 MSTORE POP POP SWAP4 DUP7 ADD SWAP4 SWAP1 DUP7 ADD SWAP1 PUSH1 0x1 ADD PUSH2 0x41C7 JUMP JUMPDEST PUSH1 0x0 DUP1 PUSH1 0x0 DUP1 PUSH1 0x80 DUP6 DUP8 SUB SLT ISZERO PUSH2 0x4255 JUMPI PUSH1 0x0 DUP1 REVERT JUMPDEST DUP5 CALLDATALOAD SWAP4 POP PUSH1 0x20 DUP6 ADD CALLDATALOAD SWAP3 POP PUSH1 0x40 DUP6 ADD CALLDATALOAD PUSH8 0xFFFFFFFFFFFFFFFF DUP2 GT ISZERO PUSH2 0x427A JUMPI PUSH1 0x0 DUP1 REVERT JUMPDEST PUSH2 0x4286 DUP8 DUP3 DUP9 ADD PUSH2 0x3F93 JUMP JUMPDEST SWAP3 POP POP PUSH2 0x4295 PUSH1 0x60 DUP7 ADD PUSH2 0x3E85 JUMP JUMPDEST SWAP1 POP SWAP3 SWAP6 SWAP2 SWAP5 POP SWAP3 POP JUMP JUMPDEST PUSH1 0x0 DUP3 PUSH1 0x1F DUP4 ADD SLT PUSH2 0x42B1 JUMPI PUSH1 0x0 DUP1 REVERT JUMPDEST PUSH1 0x40 MLOAD PUSH1 0x60 DUP2 ADD PUSH8 0xFFFFFFFFFFFFFFFF DUP3 DUP3 LT DUP2 DUP4 GT OR ISZERO PUSH2 0x42D5 JUMPI PUSH2 0x42D5 PUSH2 0x3F07 JUMP JUMPDEST DUP2 PUSH1 0x40 MSTORE DUP3 SWAP2 POP PUSH1 0x60 DUP6 ADD DUP7 DUP2 GT ISZERO PUSH2 0x42ED JUMPI PUSH1 0x0 DUP1 REVERT JUMPDEST DUP6 JUMPDEST DUP2 DUP2 LT ISZERO PUSH2 0x1229 JUMPI DUP1 CALLDATALOAD DUP4 DUP2 GT ISZERO PUSH2 0x4307 JUMPI PUSH1 0x0 DUP1 DUP2 REVERT JUMPDEST PUSH2 0x4313 DUP10 DUP3 DUP11 ADD PUSH2 0x3F93 JUMP JUMPDEST DUP6 MSTORE POP PUSH1 0x20 SWAP4 DUP5 ADD SWAP4 ADD PUSH2 0x42EF JUMP JUMPDEST PUSH1 0x0 DUP1 PUSH1 0x0 DUP1 PUSH1 0x0 DUP1 PUSH1 0x0 PUSH1 0xE0 DUP9 DUP11 SUB SLT ISZERO PUSH2 0x433D JUMPI PUSH1 0x0 DUP1 REVERT JUMPDEST DUP8 CALLDATALOAD PUSH8 0xFFFFFFFFFFFFFFFF DUP1 DUP3 GT ISZERO PUSH2 0x4355 JUMPI PUSH1 0x0 DUP1 REVERT JUMPDEST PUSH2 0x4361 DUP12 DUP4 DUP13 ADD PUSH2 0x3F93 JUMP JUMPDEST SWAP9 POP PUSH1 0x20 DUP11 ADD CALLDATALOAD SWAP2 POP DUP1 DUP3 GT ISZERO PUSH2 0x4377 JUMPI PUSH1 0x0 DUP1 REVERT JUMPDEST PUSH2 0x4383 DUP12 DUP4 DUP13 ADD PUSH2 0x3F93 JUMP JUMPDEST SWAP8 POP PUSH1 0x40 DUP11 ADD CALLDATALOAD SWAP2 POP DUP1 DUP3 GT ISZERO PUSH2 0x4399 JUMPI PUSH1 0x0 DUP1 REVERT JUMPDEST PUSH2 0x43A5 DUP12 DUP4 DUP13 ADD PUSH2 0x42A0 JUMP JUMPDEST SWAP7 POP PUSH1 0x60 DUP11 ADD CALLDATALOAD SWAP6 POP PUSH1 0x80 DUP11 ADD CALLDATALOAD SWAP2 POP DUP1 DUP3 GT ISZERO PUSH2 0x43C2 JUMPI PUSH1 0x0 DUP1 REVERT JUMPDEST POP PUSH2 0x43CF DUP11 DUP3 DUP12 ADD PUSH2 0x3F93 JUMP JUMPDEST SWAP4 POP POP PUSH1 0xA0 DUP9 ADD CALLDATALOAD SWAP2 POP PUSH1 0xC0 DUP9 ADD CALLDATALOAD SWAP1 POP SWAP3 SWAP6 SWAP9 SWAP2 SWAP5 SWAP8 POP SWAP3 SWAP6 POP JUMP JUMPDEST PUSH1 0xA0 DUP2 MSTORE PUSH1 0x0 PUSH2 0x43FF PUSH1 0xA0 DUP4 ADD DUP9 PUSH2 0x3E46 JUMP JUMPDEST PUSH1 0x1 PUSH1 0x1 PUSH1 0xA0 SHL SUB SWAP7 SWAP1 SWAP7 AND PUSH1 0x20 DUP4 ADD MSTORE POP PUSH1 0x40 DUP2 ADD SWAP4 SWAP1 SWAP4 MSTORE PUSH1 0x60 DUP4 ADD SWAP2 SWAP1 SWAP2 MSTORE PUSH1 0x80 SWAP1 SWAP2 ADD MSTORE SWAP2 SWAP1 POP JUMP JUMPDEST PUSH1 0x20 DUP1 DUP3 MSTORE DUP3 MLOAD DUP3 DUP3 ADD DUP2 SWAP1 MSTORE PUSH1 0x0 SWAP2 SWAP1 PUSH1 0x40 SWAP1 DUP2 DUP6 ADD SWAP1 DUP7 DUP5 ADD DUP6 JUMPDEST DUP3 DUP2 LT ISZERO PUSH2 0x4477 JUMPI DUP2 MLOAD DUP1 MLOAD PUSH1 0x1 PUSH1 0x1 PUSH1 0xA0 SHL SUB AND DUP6 MSTORE DUP7 ADD MLOAD DUP7 DUP6 ADD MSTORE SWAP3 DUP5 ADD SWAP3 SWAP1 DUP6 ADD SWAP1 PUSH1 0x1 ADD PUSH2 0x4449 JUMP JUMPDEST POP SWAP2 SWAP8 SWAP7 POP POP POP POP POP POP POP JUMP JUMPDEST PUSH1 0x0 PUSH1 0x20 DUP3 DUP5 SUB SLT ISZERO PUSH2 0x4496 JUMPI PUSH1 0x0 DUP1 REVERT JUMPDEST PUSH2 0x2A20 DUP3 PUSH2 0x3E85 JUMP JUMPDEST PUSH1 0x0 PUSH1 0x20 DUP1 DUP4 ADD DUP2 DUP5 MSTORE DUP1 DUP6 MLOAD DUP1 DUP4 MSTORE PUSH1 0x40 SWAP3 POP DUP3 DUP7 ADD SWAP2 POP DUP3 DUP2 PUSH1 0x5 SHL DUP8 ADD ADD DUP5 DUP9 ADD PUSH1 0x0 JUMPDEST DUP4 DUP2 LT ISZERO PUSH2 0x40DA JUMPI PUSH1 0x3F NOT DUP10 DUP5 SUB ADD DUP6 MSTORE DUP2 MLOAD PUSH1 0xA0 DUP2 MLOAD DUP2 DUP7 MSTORE PUSH2 0x44EC DUP3 DUP8 ADD DUP3 PUSH2 0x3E46 JUMP JUMPDEST DUP4 DUP12 ADD MLOAD PUSH1 0x1 PUSH1 0x1 PUSH1 0xA0 SHL SUB AND DUP8 DUP13 ADD MSTORE DUP10 DUP5 ADD MLOAD DUP11 DUP9 ADD MSTORE PUSH1 0x60 DUP1 DUP6 ADD MLOAD SWAP1 DUP9 ADD MSTORE PUSH1 0x80 SWAP4 DUP5 ADD MLOAD SWAP4 SWAP1 SWAP7 ADD SWAP3 SWAP1 SWAP3 MSTORE POP POP SWAP4 DUP7 ADD SWAP4 SWAP1 DUP7 ADD SWAP1 PUSH1 0x1 ADD PUSH2 0x44C6 JUMP JUMPDEST DUP1 CALLDATALOAD DUP1 ISZERO ISZERO DUP2 EQ PUSH2 0x3E9C JUMPI PUSH1 0x0 DUP1 REVERT JUMPDEST PUSH1 0x0 DUP1 PUSH1 0x40 DUP4 DUP6 SUB SLT ISZERO PUSH2 0x4552 JUMPI PUSH1 0x0 DUP1 REVERT JUMPDEST PUSH2 0x455B DUP4 PUSH2 0x3E85 JUMP JUMPDEST SWAP2 POP PUSH2 0x4569 PUSH1 0x20 DUP5 ADD PUSH2 0x452F JUMP JUMPDEST SWAP1 POP SWAP3 POP SWAP3 SWAP1 POP JUMP JUMPDEST PUSH1 0x0 PUSH1 0x20 DUP1 DUP4 ADD DUP2 DUP5 MSTORE DUP1 DUP6 MLOAD DUP1 DUP4 MSTORE PUSH1 0x40 SWAP3 POP DUP3 DUP7 ADD SWAP2 POP DUP3 DUP2 PUSH1 0x5 SHL DUP8 ADD ADD DUP5 DUP9 ADD PUSH1 0x0 JUMPDEST DUP4 DUP2 LT ISZERO PUSH2 0x40DA JUMPI PUSH1 0x3F NOT DUP10 DUP5 SUB ADD DUP6 MSTORE DUP2 MLOAD PUSH1 0x80 DUP2 MLOAD DUP2 DUP7 MSTORE PUSH2 0x45BF DUP3 DUP8 ADD DUP3 PUSH2 0x3E46 JUMP JUMPDEST DUP4 DUP12 ADD MLOAD PUSH1 0x1 PUSH1 0x1 PUSH1 0xA0 SHL SUB AND DUP8 DUP13 ADD MSTORE DUP10 DUP5 ADD MLOAD DUP11 DUP9 ADD MSTORE PUSH1 0x60 SWAP4 DUP5 ADD MLOAD SWAP4 SWAP1 SWAP7 ADD SWAP3 SWAP1 SWAP3 MSTORE POP POP SWAP4 DUP7 ADD SWAP4 SWAP1 DUP7 ADD SWAP1 PUSH1 0x1 ADD PUSH2 0x4599 JUMP JUMPDEST PUSH1 0x0 DUP1 PUSH1 0x0 PUSH1 0x60 DUP5 DUP7 SUB SLT ISZERO PUSH2 0x460D JUMPI PUSH1 0x0 DUP1 REVERT JUMPDEST DUP4 CALLDATALOAD SWAP3 POP PUSH1 0x20 DUP5 ADD CALLDATALOAD SWAP2 POP PUSH2 0x4624 PUSH1 0x40 DUP6 ADD PUSH2 0x452F JUMP JUMPDEST SWAP1 POP SWAP3 POP SWAP3 POP SWAP3 JUMP JUMPDEST PUSH1 0x0 DUP1 PUSH1 0x0 DUP1 PUSH1 0x80 DUP6 DUP8 SUB SLT ISZERO PUSH2 0x4643 JUMPI PUSH1 0x0 DUP1 REVERT JUMPDEST PUSH2 0x464C DUP6 PUSH2 0x3E85 JUMP JUMPDEST SWAP4 POP PUSH2 0x465A PUSH1 0x20 DUP7 ADD PUSH2 0x3E85 JUMP JUMPDEST SWAP3 POP PUSH1 0x40 DUP6 ADD CALLDATALOAD SWAP2 POP PUSH1 0x60 DUP6 ADD CALLDATALOAD PUSH8 0xFFFFFFFFFFFFFFFF DUP2 GT ISZERO PUSH2 0x467D JUMPI PUSH1 0x0 DUP1 REVERT JUMPDEST DUP6 ADD PUSH1 0x1F DUP2 ADD DUP8 SGT PUSH2 0x468E JUMPI PUSH1 0x0 DUP1 REVERT JUMPDEST PUSH2 0x4025 DUP8 DUP3 CALLDATALOAD PUSH1 0x20 DUP5 ADD PUSH2 0x3F1D JUMP JUMPDEST PUSH1 0x0 DUP1 PUSH1 0x0 DUP1 PUSH1 0x80 DUP6 DUP8 SUB SLT ISZERO PUSH2 0x46B3 JUMPI PUSH1 0x0 DUP1 REVERT JUMPDEST DUP5 CALLDATALOAD SWAP4 POP PUSH1 0x20 DUP6 ADD CALLDATALOAD PUSH8 0xFFFFFFFFFFFFFFFF DUP2 GT ISZERO PUSH2 0x46D1 JUMPI PUSH1 0x0 DUP1 REVERT JUMPDEST PUSH2 0x46DD DUP8 DUP3 DUP9 ADD PUSH2 0x3F93 JUMP JUMPDEST SWAP4 POP POP PUSH2 0x46EC PUSH1 0x40 DUP7 ADD PUSH2 0x3E85 JUMP JUMPDEST SWAP4 SWAP7 SWAP3 SWAP6 POP SWAP3 SWAP4 PUSH1 0x60 ADD CALLDATALOAD SWAP3 POP POP JUMP JUMPDEST PUSH1 0x0 PUSH1 0x1 DUP1 PUSH1 0xA0 SHL SUB DUP1 DUP9 AND DUP4 MSTORE PUSH1 0xA0 PUSH1 0x20 DUP5 ADD MSTORE PUSH2 0x471E PUSH1 0xA0 DUP5 ADD DUP9 PUSH2 0x3E46 JUMP JUMPDEST DUP4 DUP2 SUB PUSH1 0x40 DUP6 ADD MSTORE PUSH2 0x4730 DUP2 DUP9 PUSH2 0x3E46 JUMP JUMPDEST PUSH1 0x60 DUP6 ADD SWAP7 SWAP1 SWAP7 MSTORE POP SWAP3 SWAP1 SWAP3 AND PUSH1 0x80 SWAP1 SWAP2 ADD MSTORE POP SWAP4 SWAP3 POP POP POP JUMP JUMPDEST PUSH1 0x0 DUP1 PUSH1 0x40 DUP4 DUP6 SUB SLT ISZERO PUSH2 0x475E JUMPI PUSH1 0x0 DUP1 REVERT JUMPDEST PUSH2 0x4767 DUP4 PUSH2 0x3E85 JUMP JUMPDEST SWAP2 POP PUSH2 0x4569 PUSH1 0x20 DUP5 ADD PUSH2 0x3E85 JUMP JUMPDEST PUSH1 0x0 PUSH2 0x100 DUP1 DUP4 MSTORE PUSH2 0x4789 DUP2 DUP5 ADD DUP13 PUSH2 0x3E46 JUMP JUMPDEST SWAP1 POP DUP3 DUP2 SUB PUSH1 0x20 DUP5 ADD MSTORE PUSH2 0x479D DUP2 DUP12 PUSH2 0x3E46 JUMP JUMPDEST PUSH1 0x1 PUSH1 0x1 PUSH1 0xA0 SHL SUB DUP11 AND PUSH1 0x40 DUP6 ADD MSTORE PUSH1 0x60 DUP5 ADD DUP10 SWAP1 MSTORE DUP4 DUP2 SUB PUSH1 0x80 DUP6 ADD MSTORE SWAP1 POP PUSH2 0x47C7 DUP2 DUP9 PUSH2 0x3E46 JUMP JUMPDEST PUSH1 0xA0 DUP5 ADD SWAP7 SWAP1 SWAP7 MSTORE POP POP PUSH1 0xC0 DUP2 ADD SWAP3 SWAP1 SWAP3 MSTORE PUSH1 0xE0 SWAP1 SWAP2 ADD MSTORE SWAP6 SWAP5 POP POP POP POP POP JUMP JUMPDEST PUSH1 0x0 DUP1 PUSH1 0x40 DUP4 DUP6 SUB SLT ISZERO PUSH2 0x47FB JUMPI PUSH1 0x0 DUP1 REVERT JUMPDEST DUP3 CALLDATALOAD SWAP2 POP PUSH1 0x20 DUP4 ADD CALLDATALOAD PUSH8 0xFFFFFFFFFFFFFFFF DUP2 GT ISZERO PUSH2 0x4819 JUMPI PUSH1 0x0 DUP1 REVERT JUMPDEST PUSH2 0x4825 DUP6 DUP3 DUP7 ADD PUSH2 0x3F93 JUMP JUMPDEST SWAP2 POP POP SWAP3 POP SWAP3 SWAP1 POP JUMP JUMPDEST DUP7 DUP2 MSTORE PUSH1 0xC0 PUSH1 0x20 DUP3 ADD MSTORE PUSH1 0x0 PUSH2 0x4848 PUSH1 0xC0 DUP4 ADD DUP9 PUSH2 0x3E46 JUMP JUMPDEST PUSH1 0x1 PUSH1 0x1 PUSH1 0xA0 SHL SUB SWAP7 DUP8 AND PUSH1 0x40 DUP5 ADD MSTORE SWAP5 SWAP1 SWAP6 AND PUSH1 0x60 DUP3 ADD MSTORE PUSH1 0x80 DUP2 ADD SWAP3 SWAP1 SWAP3 MSTORE PUSH1 0xA0 SWAP1 SWAP2 ADD MSTORE SWAP4 SWAP3 POP POP POP JUMP JUMPDEST PUSH1 0x80 DUP2 MSTORE PUSH1 0x0 PUSH2 0x4889 PUSH1 0x80 DUP4 ADD DUP8 PUSH2 0x3E46 JUMP JUMPDEST PUSH1 0x1 PUSH1 0x1 PUSH1 0xA0 SHL SUB SWAP6 SWAP1 SWAP6 AND PUSH1 0x20 DUP4 ADD MSTORE POP PUSH1 0x40 DUP2 ADD SWAP3 SWAP1 SWAP3 MSTORE PUSH1 0x60 SWAP1 SWAP2 ADD MSTORE SWAP2 SWAP1 POP JUMP JUMPDEST PUSH4 0x4E487B71 PUSH1 0xE0 SHL PUSH1 0x0 MSTORE PUSH1 0x32 PUSH1 0x4 MSTORE PUSH1 0x24 PUSH1 0x0 REVERT JUMPDEST PUSH1 0x1 DUP2 DUP2 SHR SWAP1 DUP3 AND DUP1 PUSH2 0x48D8 JUMPI PUSH1 0x7F DUP3 AND SWAP2 POP JUMPDEST PUSH1 0x20 DUP3 LT DUP2 EQ ISZERO PUSH2 0x48F9 JUMPI PUSH4 0x4E487B71 PUSH1 0xE0 SHL PUSH1 0x0 MSTORE PUSH1 0x22 PUSH1 0x4 MSTORE PUSH1 0x24 PUSH1 0x0 REVERT JUMPDEST POP SWAP2 SWAP1 POP JUMP JUMPDEST PUSH1 0x20 DUP1 DUP3 MSTORE PUSH1 0x2D SWAP1 DUP3 ADD MSTORE PUSH32 0x4552433732313A2063616C6C6572206973206E6F7420746F6B656E206F776E65 PUSH1 0x40 DUP3 ADD MSTORE PUSH13 0x1C881BDC88185C1C1C9BDD9959 PUSH1 0x9A SHL PUSH1 0x60 DUP3 ADD MSTORE PUSH1 0x80 ADD SWAP1 JUMP JUMPDEST PUSH4 0x4E487B71 PUSH1 0xE0 SHL PUSH1 0x0 MSTORE PUSH1 0x11 PUSH1 0x4 MSTORE PUSH1 0x24 PUSH1 0x0 REVERT JUMPDEST PUSH1 0x0 PUSH1 0x0 NOT DUP3 EQ ISZERO PUSH2 0x4976 JUMPI PUSH2 0x4976 PUSH2 0x494C JUMP JUMPDEST POP PUSH1 0x1 ADD SWAP1 JUMP JUMPDEST PUSH1 0x0 DUP3 DUP3 LT ISZERO PUSH2 0x498F JUMPI PUSH2 0x498F PUSH2 0x494C JUMP JUMPDEST POP SUB SWAP1 JUMP JUMPDEST PUSH1 0x0 DUP2 PUSH1 0x0 NOT DIV DUP4 GT DUP3 ISZERO ISZERO AND ISZERO PUSH2 0x49AE JUMPI PUSH2 0x49AE PUSH2 0x494C JUMP JUMPDEST POP MUL SWAP1 JUMP JUMPDEST PUSH1 0x0 DUP3 PUSH2 0x49D0 JUMPI PUSH4 0x4E487B71 PUSH1 0xE0 SHL PUSH1 0x0 MSTORE PUSH1 0x12 PUSH1 0x4 MSTORE PUSH1 0x24 PUSH1 0x0 REVERT JUMPDEST POP DIV SWAP1 JUMP JUMPDEST PUSH1 0x0 DUP3 NOT DUP3 GT ISZERO PUSH2 0x49E8 JUMPI PUSH2 0x49E8 PUSH2 0x494C JUMP JUMPDEST POP ADD SWAP1 JUMP JUMPDEST PUSH1 0x0 DUP4 MLOAD PUSH2 0x49FF DUP2 DUP5 PUSH1 0x20 DUP9 ADD PUSH2 0x3E1A JUMP JUMPDEST DUP4 MLOAD SWAP1 DUP4 ADD SWAP1 PUSH2 0x4A13 DUP2 DUP4 PUSH1 0x20 DUP9 ADD PUSH2 0x3E1A JUMP JUMPDEST ADD SWAP5 SWAP4 POP POP POP POP JUMP JUMPDEST PUSH1 0x20 DUP1 DUP3 MSTORE PUSH1 0x25 SWAP1 DUP3 ADD MSTORE PUSH32 0x4552433732313A207472616E736665722066726F6D20696E636F727265637420 PUSH1 0x40 DUP3 ADD MSTORE PUSH5 0x37BBB732B9 PUSH1 0xD9 SHL PUSH1 0x60 DUP3 ADD MSTORE PUSH1 0x80 ADD SWAP1 JUMP JUMPDEST PUSH1 0x20 DUP1 DUP3 MSTORE PUSH1 0x32 SWAP1 DUP3 ADD MSTORE PUSH32 0x4552433732313A207472616E7366657220746F206E6F6E204552433732315265 PUSH1 0x40 DUP3 ADD MSTORE PUSH18 0x31B2B4BB32B91034B6B83632B6B2B73A32B9 PUSH1 0x71 SHL PUSH1 0x60 DUP3 ADD MSTORE PUSH1 0x80 ADD SWAP1 JUMP JUMPDEST PUSH1 0x1 PUSH1 0x1 PUSH1 0xA0 SHL SUB DUP6 DUP2 AND DUP3 MSTORE DUP5 AND PUSH1 0x20 DUP3 ADD MSTORE PUSH1 0x40 DUP2 ADD DUP4 SWAP1 MSTORE PUSH1 0x80 PUSH1 0x60 DUP3 ADD DUP2 SWAP1 MSTORE PUSH1 0x0 SWAP1 PUSH2 0x4AE6 SWAP1 DUP4 ADD DUP5 PUSH2 0x3E46 JUMP JUMPDEST SWAP7 SWAP6 POP POP POP POP POP POP JUMP JUMPDEST PUSH1 0x0 PUSH1 0x20 DUP3 DUP5 SUB SLT ISZERO PUSH2 0x4B02 JUMPI PUSH1 0x0 DUP1 REVERT JUMPDEST DUP2 MLOAD PUSH2 0x2A20 DUP2 PUSH2 0x3DCE JUMP INVALID LOG2 PUSH5 0x6970667358 0x22 SLT KECCAK256 0xEC 0xF9 DUP3 0xEC ADD PUSH10 0xDC980492FF2362E13B0B DIV SLOAD 0xFC 0xC1 0xA8 0x4E 0xAD 0xCF DUP14 0x4C 0xC1 SWAP15 PUSH13 0x337DFF64736F6C634300080900 CALLER "},"methodIdentifiers":{"approve(address,uint256)":"095ea7b3","balanceOf(address)":"70a08231","buyShare(uint256)":"a9ed6e9a","checkPropertyOwner(uint256)":"65186d5f","checkShareOwner(uint256)":"418a6636","createProperty(string,string,string[3],uint256,string,uint256,uint256)":"625e4e83","createShare(uint256,uint256)":"3bbc7b0b","decisions(uint256,uint256)":"fd040ac7","getApproved(uint256)":"081812fc","getDecision(uint256)":"af754848","getOpenShareCount()":"2a8092cb","getOpenShares(uint256)":"f9689d58","getProperty(uint256)":"32665ffb","getPropertyCount()":"7326b901","getPunishment(uint256)":"30f703a3","getRequestFunds(uint256)":"91dcac52","getShares(uint256)":"6f7267b7","getTransact(uint256)":"38f36f5b","hasShare(uint256)":"58335ef3","invest(uint256,uint256)":"d87aa643","isApprovedForAll(address,address)":"e985e9c5","makeDecision(uint256,string)":"f8d35630","makeRequest(uint256,string,address,uint256)":"bc93e759","makeTransact(uint256,uint256,string,address)":"53557d28","makeTransaction(address,uint256)":"e6beded8","name()":"06fdde03","nextTokenId()":"75794a3c","owner()":"8da5cb5b","ownerOf(uint256)":"6352211e","properties(uint256)":"f7b10808","property_id(uint256)":"03747b80","punish(uint256,uint256)":"d70080cc","renounceOwnership()":"715018a6","requestFunds(address,uint256)":"494666b6","requestPunishment(uint256,address,string,string)":"2babeb40","requestfunds(uint256,uint256)":"6e9d0118","safeTransferFrom(address,address,uint256)":"42842e0e","safeTransferFrom(address,address,uint256,bytes)":"b88d4fde","sellShare(uint256,uint256)":"0519e975","setApprovalForAll(address,bool)":"a22cb465","shares(uint256,uint256)":"01bee1d6","supportsInterface(bytes4)":"01ffc9a7","symbol()":"95d89b41","tokenURI(uint256)":"c87b56dd","transact(uint256,uint256)":"f9b1fb48","transferFrom(address,address,uint256)":"23b872dd","transferOwnership(address)":"f2fde38b","vote(uint256,uint256)":"b384abef","votePunishment(uint256,uint256)":"73368dd2","voteRequest(uint256,uint256,bool)":"b2df9ef1","voteTransact(uint256,uint256,bool)":"b5229abe"}}}}}